{
	"test2/TokenMaster.sol": {
		"TokenMaster": {
			"abi": [
				{
					"inputs": [],
					"stateMutability": "nonpayable",
					"type": "constructor"
				},
				{
					"anonymous": false,
					"inputs": [
						{
							"indexed": true,
							"internalType": "address",
							"name": "owner",
							"type": "address"
						},
						{
							"indexed": true,
							"internalType": "address",
							"name": "approved",
							"type": "address"
						},
						{
							"indexed": true,
							"internalType": "uint256",
							"name": "tokenId",
							"type": "uint256"
						}
					],
					"name": "Approval",
					"type": "event"
				},
				{
					"anonymous": false,
					"inputs": [
						{
							"indexed": true,
							"internalType": "address",
							"name": "owner",
							"type": "address"
						},
						{
							"indexed": true,
							"internalType": "address",
							"name": "operator",
							"type": "address"
						},
						{
							"indexed": false,
							"internalType": "bool",
							"name": "approved",
							"type": "bool"
						}
					],
					"name": "ApprovalForAll",
					"type": "event"
				},
				{
					"anonymous": false,
					"inputs": [
						{
							"indexed": true,
							"internalType": "address",
							"name": "previousOwner",
							"type": "address"
						},
						{
							"indexed": true,
							"internalType": "address",
							"name": "newOwner",
							"type": "address"
						}
					],
					"name": "OwnershipTransferred",
					"type": "event"
				},
				{
					"anonymous": false,
					"inputs": [
						{
							"indexed": true,
							"internalType": "address",
							"name": "from",
							"type": "address"
						},
						{
							"indexed": true,
							"internalType": "address",
							"name": "to",
							"type": "address"
						},
						{
							"indexed": true,
							"internalType": "uint256",
							"name": "tokenId",
							"type": "uint256"
						}
					],
					"name": "Transfer",
					"type": "event"
				},
				{
					"inputs": [
						{
							"internalType": "address",
							"name": "to",
							"type": "address"
						},
						{
							"internalType": "uint256",
							"name": "tokenId",
							"type": "uint256"
						}
					],
					"name": "approve",
					"outputs": [],
					"stateMutability": "nonpayable",
					"type": "function"
				},
				{
					"inputs": [
						{
							"internalType": "address",
							"name": "owner",
							"type": "address"
						}
					],
					"name": "balanceOf",
					"outputs": [
						{
							"internalType": "uint256",
							"name": "",
							"type": "uint256"
						}
					],
					"stateMutability": "view",
					"type": "function"
				},
				{
					"inputs": [
						{
							"internalType": "uint256",
							"name": "tokenId",
							"type": "uint256"
						}
					],
					"name": "getApproved",
					"outputs": [
						{
							"internalType": "address",
							"name": "",
							"type": "address"
						}
					],
					"stateMutability": "view",
					"type": "function"
				},
				{
					"inputs": [
						{
							"internalType": "uint256",
							"name": "_id",
							"type": "uint256"
						}
					],
					"name": "getOccasion",
					"outputs": [
						{
							"components": [
								{
									"internalType": "uint256",
									"name": "id",
									"type": "uint256"
								},
								{
									"internalType": "string",
									"name": "name",
									"type": "string"
								},
								{
									"internalType": "uint256",
									"name": "cost",
									"type": "uint256"
								},
								{
									"internalType": "uint256",
									"name": "tickets",
									"type": "uint256"
								},
								{
									"internalType": "uint256",
									"name": "maxTickets",
									"type": "uint256"
								},
								{
									"internalType": "string",
									"name": "date",
									"type": "string"
								},
								{
									"internalType": "string",
									"name": "time",
									"type": "string"
								},
								{
									"internalType": "string",
									"name": "location",
									"type": "string"
								}
							],
							"internalType": "struct TokenMaster.Occasion",
							"name": "",
							"type": "tuple"
						}
					],
					"stateMutability": "view",
					"type": "function"
				},
				{
					"inputs": [
						{
							"internalType": "uint256",
							"name": "_id",
							"type": "uint256"
						}
					],
					"name": "getSeatsTaken",
					"outputs": [
						{
							"internalType": "uint256[]",
							"name": "",
							"type": "uint256[]"
						}
					],
					"stateMutability": "view",
					"type": "function"
				},
				{
					"inputs": [
						{
							"internalType": "uint256",
							"name": "",
							"type": "uint256"
						},
						{
							"internalType": "address",
							"name": "",
							"type": "address"
						}
					],
					"name": "hasBought",
					"outputs": [
						{
							"internalType": "bool",
							"name": "",
							"type": "bool"
						}
					],
					"stateMutability": "view",
					"type": "function"
				},
				{
					"inputs": [
						{
							"internalType": "address",
							"name": "owner",
							"type": "address"
						},
						{
							"internalType": "address",
							"name": "operator",
							"type": "address"
						}
					],
					"name": "isApprovedForAll",
					"outputs": [
						{
							"internalType": "bool",
							"name": "",
							"type": "bool"
						}
					],
					"stateMutability": "view",
					"type": "function"
				},
				{
					"inputs": [
						{
							"internalType": "string",
							"name": "_name",
							"type": "string"
						},
						{
							"internalType": "uint256",
							"name": "_cost",
							"type": "uint256"
						},
						{
							"internalType": "uint256",
							"name": "_maxTickets",
							"type": "uint256"
						},
						{
							"internalType": "string",
							"name": "_date",
							"type": "string"
						},
						{
							"internalType": "string",
							"name": "_time",
							"type": "string"
						},
						{
							"internalType": "string",
							"name": "_location",
							"type": "string"
						}
					],
					"name": "list",
					"outputs": [],
					"stateMutability": "nonpayable",
					"type": "function"
				},
				{
					"inputs": [],
					"name": "name",
					"outputs": [
						{
							"internalType": "string",
							"name": "",
							"type": "string"
						}
					],
					"stateMutability": "view",
					"type": "function"
				},
				{
					"inputs": [],
					"name": "owner",
					"outputs": [
						{
							"internalType": "address",
							"name": "",
							"type": "address"
						}
					],
					"stateMutability": "view",
					"type": "function"
				},
				{
					"inputs": [
						{
							"internalType": "uint256",
							"name": "tokenId",
							"type": "uint256"
						}
					],
					"name": "ownerOf",
					"outputs": [
						{
							"internalType": "address",
							"name": "",
							"type": "address"
						}
					],
					"stateMutability": "view",
					"type": "function"
				},
				{
					"inputs": [],
					"name": "renounceOwnership",
					"outputs": [],
					"stateMutability": "nonpayable",
					"type": "function"
				},
				{
					"inputs": [
						{
							"internalType": "uint256",
							"name": "_id",
							"type": "uint256"
						},
						{
							"internalType": "uint256",
							"name": "_seat",
							"type": "uint256"
						}
					],
					"name": "safeMint",
					"outputs": [],
					"stateMutability": "payable",
					"type": "function"
				},
				{
					"inputs": [
						{
							"internalType": "address",
							"name": "from",
							"type": "address"
						},
						{
							"internalType": "address",
							"name": "to",
							"type": "address"
						},
						{
							"internalType": "uint256",
							"name": "tokenId",
							"type": "uint256"
						}
					],
					"name": "safeTransferFrom",
					"outputs": [],
					"stateMutability": "nonpayable",
					"type": "function"
				},
				{
					"inputs": [
						{
							"internalType": "address",
							"name": "from",
							"type": "address"
						},
						{
							"internalType": "address",
							"name": "to",
							"type": "address"
						},
						{
							"internalType": "uint256",
							"name": "tokenId",
							"type": "uint256"
						},
						{
							"internalType": "bytes",
							"name": "data",
							"type": "bytes"
						}
					],
					"name": "safeTransferFrom",
					"outputs": [],
					"stateMutability": "nonpayable",
					"type": "function"
				},
				{
					"inputs": [
						{
							"internalType": "uint256",
							"name": "",
							"type": "uint256"
						},
						{
							"internalType": "uint256",
							"name": "",
							"type": "uint256"
						}
					],
					"name": "seatTaken",
					"outputs": [
						{
							"internalType": "address",
							"name": "",
							"type": "address"
						}
					],
					"stateMutability": "view",
					"type": "function"
				},
				{
					"inputs": [
						{
							"internalType": "address",
							"name": "operator",
							"type": "address"
						},
						{
							"internalType": "bool",
							"name": "approved",
							"type": "bool"
						}
					],
					"name": "setApprovalForAll",
					"outputs": [],
					"stateMutability": "nonpayable",
					"type": "function"
				},
				{
					"inputs": [
						{
							"internalType": "bytes4",
							"name": "interfaceId",
							"type": "bytes4"
						}
					],
					"name": "supportsInterface",
					"outputs": [
						{
							"internalType": "bool",
							"name": "",
							"type": "bool"
						}
					],
					"stateMutability": "view",
					"type": "function"
				},
				{
					"inputs": [],
					"name": "symbol",
					"outputs": [
						{
							"internalType": "string",
							"name": "",
							"type": "string"
						}
					],
					"stateMutability": "view",
					"type": "function"
				},
				{
					"inputs": [
						{
							"internalType": "uint256",
							"name": "tokenId",
							"type": "uint256"
						}
					],
					"name": "tokenURI",
					"outputs": [
						{
							"internalType": "string",
							"name": "",
							"type": "string"
						}
					],
					"stateMutability": "view",
					"type": "function"
				},
				{
					"inputs": [],
					"name": "totalOccasions",
					"outputs": [
						{
							"internalType": "uint256",
							"name": "",
							"type": "uint256"
						}
					],
					"stateMutability": "view",
					"type": "function"
				},
				{
					"inputs": [
						{
							"internalType": "address",
							"name": "from",
							"type": "address"
						},
						{
							"internalType": "address",
							"name": "to",
							"type": "address"
						},
						{
							"internalType": "uint256",
							"name": "tokenId",
							"type": "uint256"
						}
					],
					"name": "transferFrom",
					"outputs": [],
					"stateMutability": "nonpayable",
					"type": "function"
				},
				{
					"inputs": [
						{
							"internalType": "address",
							"name": "newOwner",
							"type": "address"
						}
					],
					"name": "transferOwnership",
					"outputs": [],
					"stateMutability": "nonpayable",
					"type": "function"
				}
			],
			"devdoc": {
				"custom:security-contact": "skka3134@gmail.com",
				"events": {
					"Approval(address,address,uint256)": {
						"details": "Emitted when `owner` enables `approved` to manage the `tokenId` token."
					},
					"ApprovalForAll(address,address,bool)": {
						"details": "Emitted when `owner` enables or disables (`approved`) `operator` to manage all of its assets."
					},
					"Transfer(address,address,uint256)": {
						"details": "Emitted when `tokenId` token is transferred from `from` to `to`."
					}
				},
				"kind": "dev",
				"methods": {
					"approve(address,uint256)": {
						"details": "See {IERC721-approve}."
					},
					"balanceOf(address)": {
						"details": "See {IERC721-balanceOf}."
					},
					"getApproved(uint256)": {
						"details": "See {IERC721-getApproved}."
					},
					"isApprovedForAll(address,address)": {
						"details": "See {IERC721-isApprovedForAll}."
					},
					"name()": {
						"details": "See {IERC721Metadata-name}."
					},
					"owner()": {
						"details": "Returns the address of the current owner."
					},
					"ownerOf(uint256)": {
						"details": "See {IERC721-ownerOf}."
					},
					"renounceOwnership()": {
						"details": "Leaves the contract without owner. It will not be possible to call `onlyOwner` functions anymore. Can only be called by the current owner. NOTE: Renouncing ownership will leave the contract without an owner, thereby removing any functionality that is only available to the owner."
					},
					"safeTransferFrom(address,address,uint256)": {
						"details": "See {IERC721-safeTransferFrom}."
					},
					"safeTransferFrom(address,address,uint256,bytes)": {
						"details": "See {IERC721-safeTransferFrom}."
					},
					"setApprovalForAll(address,bool)": {
						"details": "See {IERC721-setApprovalForAll}."
					},
					"supportsInterface(bytes4)": {
						"details": "See {IERC165-supportsInterface}."
					},
					"symbol()": {
						"details": "See {IERC721Metadata-symbol}."
					},
					"tokenURI(uint256)": {
						"details": "See {IERC721Metadata-tokenURI}."
					},
					"transferFrom(address,address,uint256)": {
						"details": "See {IERC721-transferFrom}."
					},
					"transferOwnership(address)": {
						"details": "Transfers ownership of the contract to a new account (`newOwner`). Can only be called by the current owner."
					}
				},
				"version": 1
			},
			"evm": {
				"assembly": "    /* \"test2/TokenMaster.sol\":270:2397  contract TokenMaster is ERC721, Ownable {... */\n  mstore(0x40, 0x80)\n    /* \"test2/TokenMaster.sol\":879:923  constructor() ERC721(\"TokenMaster\", \"TM\") {} */\n  callvalue\n  dup1\n  iszero\n  tag_1\n  jumpi\n  0x00\n  dup1\n  revert\ntag_1:\n  pop\n    /* \"@openzeppelin/contracts/token/ERC721/ERC721.sol\":1390:1503  constructor(string memory name_, string memory symbol_) {... */\n  mload(0x40)\n  dup1\n  0x40\n  add\n  0x40\n  mstore\n  dup1\n  0x0b\n  dup2\n  mstore\n  0x20\n  add\n  shl(0xa9, 0x2a37b5b2b726b0b9ba32b9)\n  dup2\n  mstore\n  pop\n  mload(0x40)\n  dup1\n  0x40\n  add\n  0x40\n  mstore\n  dup1\n  0x02\n  dup2\n  mstore\n  0x20\n  add\n  shl(0xf0, 0x544d)\n  dup2\n  mstore\n  pop\n    /* \"@openzeppelin/contracts/token/ERC721/ERC721.sol\":1464:1469  name_ */\n  dup2\n    /* \"@openzeppelin/contracts/token/ERC721/ERC721.sol\":1456:1461  _name */\n  0x00\n    /* \"@openzeppelin/contracts/token/ERC721/ERC721.sol\":1456:1469  _name = name_ */\n  swap1\n  dup2\n  tag_6\n  swap2\n  swap1\n  tag_7\n  jump\t// in\ntag_6:\n  pop\n    /* \"@openzeppelin/contracts/token/ERC721/ERC721.sol\":1479:1486  _symbol */\n  0x01\n    /* \"@openzeppelin/contracts/token/ERC721/ERC721.sol\":1479:1496  _symbol = symbol_ */\n  tag_8\n    /* \"@openzeppelin/contracts/token/ERC721/ERC721.sol\":1489:1496  symbol_ */\n  dup3\n    /* \"@openzeppelin/contracts/token/ERC721/ERC721.sol\":1479:1486  _symbol */\n  dup3\n    /* \"@openzeppelin/contracts/token/ERC721/ERC721.sol\":1479:1496  _symbol = symbol_ */\n  tag_7\n  jump\t// in\ntag_8:\n  pop\n    /* \"@openzeppelin/contracts/token/ERC721/ERC721.sol\":1390:1503  constructor(string memory name_, string memory symbol_) {... */\n  pop\n  pop\n    /* \"@openzeppelin/contracts/access/Ownable.sol\":936:968  _transferOwnership(_msgSender()) */\n  tag_10\n    /* \"@openzeppelin/contracts/access/Ownable.sol\":955:967  _msgSender() */\n  tag_11\n    /* \"@openzeppelin/contracts/access/Ownable.sol\":955:965  _msgSender */\n  shl(0x20, tag_12)\n    /* \"@openzeppelin/contracts/access/Ownable.sol\":955:967  _msgSender() */\n  0x20\n  shr\n  jump\t// in\ntag_11:\n    /* \"@openzeppelin/contracts/access/Ownable.sol\":936:954  _transferOwnership */\n  tag_13\n    /* \"@openzeppelin/contracts/access/Ownable.sol\":936:968  _transferOwnership(_msgSender()) */\n  jump\t// in\ntag_10:\n    /* \"test2/TokenMaster.sol\":270:2397  contract TokenMaster is ERC721, Ownable {... */\n  jump(tag_23)\n    /* \"@openzeppelin/contracts/utils/Context.sol\":640:736  function _msgSender() internal view virtual returns (address) {... */\ntag_12:\n    /* \"@openzeppelin/contracts/utils/Context.sol\":719:729  msg.sender */\n  caller\n  swap1\n    /* \"@openzeppelin/contracts/utils/Context.sol\":640:736  function _msgSender() internal view virtual returns (address) {... */\n  jump\t// out\n    /* \"@openzeppelin/contracts/access/Ownable.sol\":2433:2620  function _transferOwnership(address newOwner) internal virtual {... */\ntag_13:\n    /* \"@openzeppelin/contracts/access/Ownable.sol\":2525:2531  _owner */\n  0x06\n  dup1\n  sload\n  sub(shl(0xa0, 0x01), 0x01)\n    /* \"@openzeppelin/contracts/access/Ownable.sol\":2541:2558  _owner = newOwner */\n  dup4\n  dup2\n  and\n  not(sub(shl(0xa0, 0x01), 0x01))\n  dup4\n  and\n  dup2\n  or\n  swap1\n  swap4\n  sstore\n    /* \"@openzeppelin/contracts/access/Ownable.sol\":2573:2613  OwnershipTransferred(oldOwner, newOwner) */\n  mload(0x40)\n    /* \"@openzeppelin/contracts/access/Ownable.sol\":2525:2531  _owner */\n  swap2\n  and\n  swap2\n    /* \"@openzeppelin/contracts/access/Ownable.sol\":2541:2558  _owner = newOwner */\n  swap1\n    /* \"@openzeppelin/contracts/access/Ownable.sol\":2525:2531  _owner */\n  dup3\n  swap1\n    /* \"@openzeppelin/contracts/access/Ownable.sol\":2573:2613  OwnershipTransferred(oldOwner, newOwner) */\n  0x8be0079c531659141344cd1fd0a4f28419497f9722a3daafe3b4186f6b6457e0\n  swap1\n    /* \"@openzeppelin/contracts/access/Ownable.sol\":2506:2522  address oldOwner */\n  0x00\n  swap1\n    /* \"@openzeppelin/contracts/access/Ownable.sol\":2573:2613  OwnershipTransferred(oldOwner, newOwner) */\n  log3\n    /* \"@openzeppelin/contracts/access/Ownable.sol\":2496:2620  {... */\n  pop\n    /* \"@openzeppelin/contracts/access/Ownable.sol\":2433:2620  function _transferOwnership(address newOwner) internal virtual {... */\n  pop\n  jump\t// out\n    /* \"#utility.yul\":14:141   */\ntag_18:\n    /* \"#utility.yul\":75:85   */\n  0x4e487b71\n    /* \"#utility.yul\":70:73   */\n  0xe0\n    /* \"#utility.yul\":66:86   */\n  shl\n    /* \"#utility.yul\":63:64   */\n  0x00\n    /* \"#utility.yul\":56:87   */\n  mstore\n    /* \"#utility.yul\":106:110   */\n  0x41\n    /* \"#utility.yul\":103:104   */\n  0x04\n    /* \"#utility.yul\":96:111   */\n  mstore\n    /* \"#utility.yul\":130:134   */\n  0x24\n    /* \"#utility.yul\":127:128   */\n  0x00\n    /* \"#utility.yul\":120:135   */\n  revert\n    /* \"#utility.yul\":146:526   */\ntag_19:\n    /* \"#utility.yul\":225:226   */\n  0x01\n    /* \"#utility.yul\":221:233   */\n  dup2\n  dup2\n  shr\n  swap1\n    /* \"#utility.yul\":268:280   */\n  dup3\n  and\n  dup1\n    /* \"#utility.yul\":289:350   */\n  tag_26\n  jumpi\n    /* \"#utility.yul\":343:347   */\n  0x7f\n    /* \"#utility.yul\":335:341   */\n  dup3\n    /* \"#utility.yul\":331:348   */\n  and\n    /* \"#utility.yul\":321:348   */\n  swap2\n  pop\n    /* \"#utility.yul\":289:350   */\ntag_26:\n    /* \"#utility.yul\":396:398   */\n  0x20\n    /* \"#utility.yul\":388:394   */\n  dup3\n    /* \"#utility.yul\":385:399   */\n  lt\n    /* \"#utility.yul\":365:383   */\n  dup2\n    /* \"#utility.yul\":362:400   */\n  sub\n    /* \"#utility.yul\":359:520   */\n  tag_27\n  jumpi\n    /* \"#utility.yul\":442:452   */\n  0x4e487b71\n    /* \"#utility.yul\":437:440   */\n  0xe0\n    /* \"#utility.yul\":433:453   */\n  shl\n    /* \"#utility.yul\":430:431   */\n  0x00\n    /* \"#utility.yul\":423:454   */\n  mstore\n    /* \"#utility.yul\":477:481   */\n  0x22\n    /* \"#utility.yul\":474:475   */\n  0x04\n    /* \"#utility.yul\":467:482   */\n  mstore\n    /* \"#utility.yul\":505:509   */\n  0x24\n    /* \"#utility.yul\":502:503   */\n  0x00\n    /* \"#utility.yul\":495:510   */\n  revert\n    /* \"#utility.yul\":359:520   */\ntag_27:\n  pop\n    /* \"#utility.yul\":146:526   */\n  swap2\n  swap1\n  pop\n  jump\t// out\n    /* \"#utility.yul\":657:1202   */\ntag_21:\n    /* \"#utility.yul\":759:761   */\n  0x1f\n    /* \"#utility.yul\":754:757   */\n  dup3\n    /* \"#utility.yul\":751:762   */\n  gt\n    /* \"#utility.yul\":748:1196   */\n  iszero\n  tag_30\n  jumpi\n    /* \"#utility.yul\":795:796   */\n  0x00\n    /* \"#utility.yul\":820:825   */\n  dup2\n    /* \"#utility.yul\":816:818   */\n  dup2\n    /* \"#utility.yul\":809:826   */\n  mstore\n    /* \"#utility.yul\":865:869   */\n  0x20\n    /* \"#utility.yul\":861:863   */\n  dup2\n    /* \"#utility.yul\":851:870   */\n  keccak256\n    /* \"#utility.yul\":935:937   */\n  0x1f\n    /* \"#utility.yul\":923:933   */\n  dup6\n    /* \"#utility.yul\":919:938   */\n  add\n    /* \"#utility.yul\":916:917   */\n  0x05\n    /* \"#utility.yul\":912:939   */\n  shr\n    /* \"#utility.yul\":906:910   */\n  dup2\n    /* \"#utility.yul\":902:940   */\n  add\n    /* \"#utility.yul\":971:975   */\n  0x20\n    /* \"#utility.yul\":959:969   */\n  dup7\n    /* \"#utility.yul\":956:976   */\n  lt\n    /* \"#utility.yul\":953:1000   */\n  iszero\n  tag_31\n  jumpi\n  pop\n    /* \"#utility.yul\":994:998   */\n  dup1\n    /* \"#utility.yul\":953:1000   */\ntag_31:\n    /* \"#utility.yul\":1049:1051   */\n  0x1f\n    /* \"#utility.yul\":1044:1047   */\n  dup6\n    /* \"#utility.yul\":1040:1052   */\n  add\n    /* \"#utility.yul\":1037:1038   */\n  0x05\n    /* \"#utility.yul\":1033:1053   */\n  shr\n    /* \"#utility.yul\":1027:1031   */\n  dup3\n    /* \"#utility.yul\":1023:1054   */\n  add\n    /* \"#utility.yul\":1013:1054   */\n  swap2\n  pop\n    /* \"#utility.yul\":1104:1186   */\ntag_32:\n    /* \"#utility.yul\":1122:1124   */\n  dup2\n    /* \"#utility.yul\":1115:1120   */\n  dup2\n    /* \"#utility.yul\":1112:1125   */\n  lt\n    /* \"#utility.yul\":1104:1186   */\n  iszero\n  tag_34\n  jumpi\n    /* \"#utility.yul\":1167:1184   */\n  dup3\n  dup2\n  sstore\n    /* \"#utility.yul\":1148:1149   */\n  0x01\n    /* \"#utility.yul\":1137:1150   */\n  add\n    /* \"#utility.yul\":1104:1186   */\n  jump(tag_32)\ntag_34:\n    /* \"#utility.yul\":1108:1111   */\n  pop\n  pop\n  pop\n    /* \"#utility.yul\":748:1196   */\ntag_30:\n    /* \"#utility.yul\":657:1202   */\n  pop\n  pop\n  pop\n  jump\t// out\n    /* \"#utility.yul\":1378:2730   */\ntag_7:\n    /* \"#utility.yul\":1498:1508   */\n  dup2\n  mload\n  sub(shl(0x40, 0x01), 0x01)\n    /* \"#utility.yul\":1520:1550   */\n  dup2\n  gt\n    /* \"#utility.yul\":1517:1573   */\n  iszero\n  tag_38\n  jumpi\n    /* \"#utility.yul\":1553:1571   */\n  tag_38\n  tag_18\n  jump\t// in\ntag_38:\n    /* \"#utility.yul\":1582:1679   */\n  tag_39\n    /* \"#utility.yul\":1672:1678   */\n  dup2\n    /* \"#utility.yul\":1632:1670   */\n  tag_40\n    /* \"#utility.yul\":1664:1668   */\n  dup5\n    /* \"#utility.yul\":1658:1669   */\n  sload\n    /* \"#utility.yul\":1632:1670   */\n  tag_19\n  jump\t// in\ntag_40:\n    /* \"#utility.yul\":1626:1630   */\n  dup5\n    /* \"#utility.yul\":1582:1679   */\n  tag_21\n  jump\t// in\ntag_39:\n    /* \"#utility.yul\":1734:1738   */\n  0x20\n  dup1\n    /* \"#utility.yul\":1798:1800   */\n  0x1f\n    /* \"#utility.yul\":1787:1801   */\n  dup4\n  gt\n    /* \"#utility.yul\":1815:1816   */\n  0x01\n    /* \"#utility.yul\":1810:2473   */\n  dup2\n  eq\n  tag_42\n  jumpi\n    /* \"#utility.yul\":2517:2518   */\n  0x00\n    /* \"#utility.yul\":2534:2540   */\n  dup5\n    /* \"#utility.yul\":2531:2620   */\n  iszero\n  tag_43\n  jumpi\n  pop\n    /* \"#utility.yul\":2586:2605   */\n  dup6\n  dup4\n  add\n    /* \"#utility.yul\":2580:2606   */\n  mload\n    /* \"#utility.yul\":2531:2620   */\ntag_43:\n  not(0x00)\n    /* \"#utility.yul\":1335:1336   */\n  0x03\n    /* \"#utility.yul\":1331:1342   */\n  dup7\n  swap1\n  shl\n    /* \"#utility.yul\":1327:1351   */\n  shr\n    /* \"#utility.yul\":1323:1352   */\n  not\n    /* \"#utility.yul\":1313:1353   */\n  and\n    /* \"#utility.yul\":1359:1360   */\n  0x01\n    /* \"#utility.yul\":1355:1366   */\n  dup6\n  swap1\n  shl\n    /* \"#utility.yul\":1310:1367   */\n  or\n    /* \"#utility.yul\":2633:2714   */\n  dup6\n  sstore\n    /* \"#utility.yul\":1780:2724   */\n  jump(tag_34)\n    /* \"#utility.yul\":1810:2473   */\ntag_42:\n    /* \"#utility.yul\":604:605   */\n  0x00\n    /* \"#utility.yul\":597:611   */\n  dup6\n  dup2\n  mstore\n    /* \"#utility.yul\":641:645   */\n  0x20\n    /* \"#utility.yul\":628:646   */\n  dup2\n  keccak256\n  not(0x1f)\n    /* \"#utility.yul\":1846:1866   */\n  dup7\n  and\n  swap2\n    /* \"#utility.yul\":1964:2200   */\ntag_46:\n    /* \"#utility.yul\":1978:1985   */\n  dup3\n    /* \"#utility.yul\":1975:1976   */\n  dup2\n    /* \"#utility.yul\":1972:1986   */\n  lt\n    /* \"#utility.yul\":1964:2200   */\n  iszero\n  tag_48\n  jumpi\n    /* \"#utility.yul\":2067:2086   */\n  dup9\n  dup7\n  add\n    /* \"#utility.yul\":2061:2087   */\n  mload\n    /* \"#utility.yul\":2046:2088   */\n  dup3\n  sstore\n    /* \"#utility.yul\":2159:2186   */\n  swap5\n  dup5\n  add\n  swap5\n    /* \"#utility.yul\":2127:2128   */\n  0x01\n    /* \"#utility.yul\":2115:2129   */\n  swap1\n  swap2\n  add\n  swap1\n    /* \"#utility.yul\":1994:2013   */\n  dup5\n  add\n    /* \"#utility.yul\":1964:2200   */\n  jump(tag_46)\ntag_48:\n    /* \"#utility.yul\":1968:1971   */\n  pop\n    /* \"#utility.yul\":2228:2234   */\n  dup6\n    /* \"#utility.yul\":2219:2226   */\n  dup3\n    /* \"#utility.yul\":2216:2235   */\n  lt\n    /* \"#utility.yul\":2213:2414   */\n  iszero\n  tag_49\n  jumpi\n    /* \"#utility.yul\":2289:2308   */\n  dup8\n  dup6\n  add\n    /* \"#utility.yul\":2283:2309   */\n  mload\n  not(0x00)\n    /* \"#utility.yul\":2372:2373   */\n  0x03\n    /* \"#utility.yul\":2368:2382   */\n  dup9\n  swap1\n  shl\n    /* \"#utility.yul\":2384:2387   */\n  0xf8\n    /* \"#utility.yul\":2364:2388   */\n  and\n    /* \"#utility.yul\":2360:2397   */\n  shr\n    /* \"#utility.yul\":2356:2398   */\n  not\n    /* \"#utility.yul\":2341:2399   */\n  and\n    /* \"#utility.yul\":2326:2400   */\n  dup2\n  sstore\n    /* \"#utility.yul\":2213:2414   */\ntag_49:\n  pop\n  pop\n  pop\n  pop\n  pop\n    /* \"#utility.yul\":2460:2461   */\n  0x01\n    /* \"#utility.yul\":2444:2458   */\n  swap1\n  dup2\n  shl\n    /* \"#utility.yul\":2440:2462   */\n  add\n    /* \"#utility.yul\":2427:2463   */\n  swap1\n  sstore\n  pop\n    /* \"#utility.yul\":1378:2730   */\n  jump\t// out\ntag_23:\n    /* \"test2/TokenMaster.sol\":270:2397  contract TokenMaster is ERC721, Ownable {... */\n  dataSize(sub_0)\n  dup1\n  dataOffset(sub_0)\n  0x00\n  codecopy\n  0x00\n  return\nstop\n\nsub_0: assembly {\n        /* \"test2/TokenMaster.sol\":270:2397  contract TokenMaster is ERC721, Ownable {... */\n      mstore(0x40, 0x80)\n      jumpi(tag_1, lt(calldatasize, 0x04))\n      shr(0xe0, calldataload(0x00))\n      dup1\n      0x74bc8656\n      gt\n      tag_25\n      jumpi\n      dup1\n      0xa22cb465\n      gt\n      tag_26\n      jumpi\n      dup1\n      0xa22cb465\n      eq\n      tag_19\n      jumpi\n      dup1\n      0xaf296da1\n      eq\n      tag_20\n      jumpi\n      dup1\n      0xb88d4fde\n      eq\n      tag_21\n      jumpi\n      dup1\n      0xc87b56dd\n      eq\n      tag_22\n      jumpi\n      dup1\n      0xe985e9c5\n      eq\n      tag_23\n      jumpi\n      dup1\n      0xf2fde38b\n      eq\n      tag_24\n      jumpi\n      0x00\n      dup1\n      revert\n    tag_26:\n      dup1\n      0x74bc8656\n      eq\n      tag_13\n      jumpi\n      dup1\n      0x8da5cb5b\n      eq\n      tag_14\n      jumpi\n      dup1\n      0x953865c1\n      eq\n      tag_15\n      jumpi\n      dup1\n      0x95d89b41\n      eq\n      tag_16\n      jumpi\n      dup1\n      0x9a382f0f\n      eq\n      tag_17\n      jumpi\n      dup1\n      0x9cb04aef\n      eq\n      tag_18\n      jumpi\n      0x00\n      dup1\n      revert\n    tag_25:\n      dup1\n      0x0ef7ec74\n      gt\n      tag_27\n      jumpi\n      dup1\n      0x0ef7ec74\n      eq\n      tag_7\n      jumpi\n      dup1\n      0x23b872dd\n      eq\n      tag_8\n      jumpi\n      dup1\n      0x42842e0e\n      eq\n      tag_9\n      jumpi\n      dup1\n      0x6352211e\n      eq\n      tag_10\n      jumpi\n      dup1\n      0x70a08231\n      eq\n      tag_11\n      jumpi\n      dup1\n      0x715018a6\n      eq\n      tag_12\n      jumpi\n      0x00\n      dup1\n      revert\n    tag_27:\n      dup1\n      0x01ffc9a7\n      eq\n      tag_2\n      jumpi\n      dup1\n      0x0414ab2b\n      eq\n      tag_3\n      jumpi\n      dup1\n      0x06fdde03\n      eq\n      tag_4\n      jumpi\n      dup1\n      0x081812fc\n      eq\n      tag_5\n      jumpi\n      dup1\n      0x095ea7b3\n      eq\n      tag_6\n      jumpi\n    tag_1:\n      0x00\n      dup1\n      revert\n        /* \"@openzeppelin/contracts/token/ERC721/ERC721.sol\":1570:1870  function supportsInterface(bytes4 interfaceId) public view virtual override(ERC165, IERC165) returns (bool) {... */\n    tag_2:\n      callvalue\n      dup1\n      iszero\n      tag_28\n      jumpi\n      0x00\n      dup1\n      revert\n    tag_28:\n      pop\n      tag_29\n      tag_30\n      calldatasize\n      0x04\n      tag_31\n      jump\t// in\n    tag_30:\n      tag_32\n      jump\t// in\n    tag_29:\n      mload(0x40)\n        /* \"#utility.yul\":565:579   */\n      swap1\n      iszero\n        /* \"#utility.yul\":558:580   */\n      iszero\n        /* \"#utility.yul\":540:581   */\n      dup2\n      mstore\n        /* \"#utility.yul\":528:530   */\n      0x20\n        /* \"#utility.yul\":513:531   */\n      add\n        /* \"@openzeppelin/contracts/token/ERC721/ERC721.sol\":1570:1870  function supportsInterface(bytes4 interfaceId) public view virtual override(ERC165, IERC165) returns (bool) {... */\n    tag_33:\n      mload(0x40)\n      dup1\n      swap2\n      sub\n      swap1\n      return\n        /* \"test2/TokenMaster.sol\":1410:1998  function safeMint(uint256 _id, uint256 _seat) public payable {... */\n    tag_3:\n      tag_35\n      tag_36\n      calldatasize\n      0x04\n      tag_37\n      jump\t// in\n    tag_36:\n      tag_38\n      jump\t// in\n    tag_35:\n      stop\n        /* \"@openzeppelin/contracts/token/ERC721/ERC721.sol\":2471:2569  function name() public view virtual override returns (string memory) {... */\n    tag_4:\n      callvalue\n      dup1\n      iszero\n      tag_39\n      jumpi\n      0x00\n      dup1\n      revert\n    tag_39:\n      pop\n      tag_40\n      tag_41\n      jump\t// in\n    tag_40:\n      mload(0x40)\n      tag_33\n      swap2\n      swap1\n      tag_43\n      jump\t// in\n        /* \"@openzeppelin/contracts/token/ERC721/ERC721.sol\":3935:4102  function getApproved(uint256 tokenId) public view virtual override returns (address) {... */\n    tag_5:\n      callvalue\n      dup1\n      iszero\n      tag_44\n      jumpi\n      0x00\n      dup1\n      revert\n    tag_44:\n      pop\n      tag_45\n      tag_46\n      calldatasize\n      0x04\n      tag_47\n      jump\t// in\n    tag_46:\n      tag_48\n      jump\t// in\n    tag_45:\n      mload(0x40)\n      sub(shl(0xa0, 0x01), 0x01)\n        /* \"#utility.yul\":1950:1982   */\n      swap1\n      swap2\n      and\n        /* \"#utility.yul\":1932:1983   */\n      dup2\n      mstore\n        /* \"#utility.yul\":1920:1922   */\n      0x20\n        /* \"#utility.yul\":1905:1923   */\n      add\n        /* \"@openzeppelin/contracts/token/ERC721/ERC721.sol\":3935:4102  function getApproved(uint256 tokenId) public view virtual override returns (address) {... */\n      tag_33\n        /* \"#utility.yul\":1786:1989   */\n      jump\n        /* \"@openzeppelin/contracts/token/ERC721/ERC721.sol\":3468:3874  function approve(address to, uint256 tokenId) public virtual override {... */\n    tag_6:\n      callvalue\n      dup1\n      iszero\n      tag_51\n      jumpi\n      0x00\n      dup1\n      revert\n    tag_51:\n      pop\n      tag_35\n      tag_53\n      calldatasize\n      0x04\n      tag_54\n      jump\t// in\n    tag_53:\n      tag_55\n      jump\t// in\n        /* \"test2/TokenMaster.sol\":2120:2234  function getSeatsTaken(uint256 _id) public view returns (uint256[] memory) {... */\n    tag_7:\n      callvalue\n      dup1\n      iszero\n      tag_56\n      jumpi\n      0x00\n      dup1\n      revert\n    tag_56:\n      pop\n      tag_57\n      tag_58\n      calldatasize\n      0x04\n      tag_47\n      jump\t// in\n    tag_58:\n      tag_59\n      jump\t// in\n    tag_57:\n      mload(0x40)\n      tag_33\n      swap2\n      swap1\n      tag_61\n      jump\t// in\n        /* \"@openzeppelin/contracts/token/ERC721/ERC721.sol\":4612:4938  function transferFrom(... */\n    tag_8:\n      callvalue\n      dup1\n      iszero\n      tag_62\n      jumpi\n      0x00\n      dup1\n      revert\n    tag_62:\n      pop\n      tag_35\n      tag_64\n      calldatasize\n      0x04\n      tag_65\n      jump\t// in\n    tag_64:\n      tag_66\n      jump\t// in\n        /* \"@openzeppelin/contracts/token/ERC721/ERC721.sol\":5004:5183  function safeTransferFrom(... */\n    tag_9:\n      callvalue\n      dup1\n      iszero\n      tag_67\n      jumpi\n      0x00\n      dup1\n      revert\n    tag_67:\n      pop\n      tag_35\n      tag_69\n      calldatasize\n      0x04\n      tag_65\n      jump\t// in\n    tag_69:\n      tag_70\n      jump\t// in\n        /* \"@openzeppelin/contracts/token/ERC721/ERC721.sol\":2190:2409  function ownerOf(uint256 tokenId) public view virtual override returns (address) {... */\n    tag_10:\n      callvalue\n      dup1\n      iszero\n      tag_71\n      jumpi\n      0x00\n      dup1\n      revert\n    tag_71:\n      pop\n      tag_45\n      tag_73\n      calldatasize\n      0x04\n      tag_47\n      jump\t// in\n    tag_73:\n      tag_74\n      jump\t// in\n        /* \"@openzeppelin/contracts/token/ERC721/ERC721.sol\":1929:2133  function balanceOf(address owner) public view virtual override returns (uint256) {... */\n    tag_11:\n      callvalue\n      dup1\n      iszero\n      tag_76\n      jumpi\n      0x00\n      dup1\n      revert\n    tag_76:\n      pop\n      tag_77\n      tag_78\n      calldatasize\n      0x04\n      tag_79\n      jump\t// in\n    tag_78:\n      tag_80\n      jump\t// in\n    tag_77:\n      mload(0x40)\n        /* \"#utility.yul\":3738:3763   */\n      swap1\n      dup2\n      mstore\n        /* \"#utility.yul\":3726:3728   */\n      0x20\n        /* \"#utility.yul\":3711:3729   */\n      add\n        /* \"@openzeppelin/contracts/token/ERC721/ERC721.sol\":1929:2133  function balanceOf(address owner) public view virtual override returns (uint256) {... */\n      tag_33\n        /* \"#utility.yul\":3592:3769   */\n      jump\n        /* \"@openzeppelin/contracts/access/Ownable.sol\":1831:1932  function renounceOwnership() public virtual onlyOwner {... */\n    tag_12:\n      callvalue\n      dup1\n      iszero\n      tag_83\n      jumpi\n      0x00\n      dup1\n      revert\n    tag_83:\n      pop\n      tag_35\n      tag_85\n      jump\t// in\n        /* \"test2/TokenMaster.sol\":2004:2114  function getOccasion(uint256 _id) public view returns (Occasion memory) {... */\n    tag_13:\n      callvalue\n      dup1\n      iszero\n      tag_86\n      jumpi\n      0x00\n      dup1\n      revert\n    tag_86:\n      pop\n      tag_87\n      tag_88\n      calldatasize\n      0x04\n      tag_47\n      jump\t// in\n    tag_88:\n      tag_89\n      jump\t// in\n    tag_87:\n      mload(0x40)\n      tag_33\n      swap2\n      swap1\n      tag_91\n      jump\t// in\n        /* \"@openzeppelin/contracts/access/Ownable.sol\":1201:1286  function owner() public view virtual returns (address) {... */\n    tag_14:\n      callvalue\n      dup1\n      iszero\n      tag_92\n      jumpi\n      0x00\n      dup1\n      revert\n    tag_92:\n      pop\n        /* \"@openzeppelin/contracts/access/Ownable.sol\":1273:1279  _owner */\n      and(sub(shl(0xa0, 0x01), 0x01), sload(0x06))\n        /* \"@openzeppelin/contracts/access/Ownable.sol\":1201:1286  function owner() public view virtual returns (address) {... */\n      jump(tag_45)\n        /* \"test2/TokenMaster.sol\":404:433  uint256 public totalOccasions */\n    tag_15:\n      callvalue\n      dup1\n      iszero\n      tag_96\n      jumpi\n      0x00\n      dup1\n      revert\n    tag_96:\n      pop\n      tag_77\n      sload(0x08)\n      dup2\n      jump\n        /* \"@openzeppelin/contracts/token/ERC721/ERC721.sol\":2633:2735  function symbol() public view virtual override returns (string memory) {... */\n    tag_16:\n      callvalue\n      dup1\n      iszero\n      tag_100\n      jumpi\n      0x00\n      dup1\n      revert\n    tag_100:\n      pop\n      tag_40\n      tag_102\n      jump\t// in\n        /* \"test2/TokenMaster.sol\":929:1404  function list(... */\n    tag_17:\n      callvalue\n      dup1\n      iszero\n      tag_104\n      jumpi\n      0x00\n      dup1\n      revert\n    tag_104:\n      pop\n      tag_35\n      tag_106\n      calldatasize\n      0x04\n      tag_107\n      jump\t// in\n    tag_106:\n      tag_108\n      jump\t// in\n        /* \"test2/TokenMaster.sol\":695:756  mapping(uint256 => mapping(address => bool)) public hasBought */\n    tag_18:\n      callvalue\n      dup1\n      iszero\n      tag_109\n      jumpi\n      0x00\n      dup1\n      revert\n    tag_109:\n      pop\n      tag_29\n      tag_111\n      calldatasize\n      0x04\n      tag_112\n      jump\t// in\n    tag_111:\n      0x0a\n      0x20\n      swap1\n      dup2\n      mstore\n      0x00\n      swap3\n      dup4\n      mstore\n      0x40\n      dup1\n      dup5\n      keccak256\n      swap1\n      swap2\n      mstore\n      swap1\n      dup3\n      mstore\n      swap1\n      keccak256\n      sload\n      0xff\n      and\n      dup2\n      jump\n        /* \"@openzeppelin/contracts/token/ERC721/ERC721.sol\":4169:4322  function setApprovalForAll(address operator, bool approved) public virtual override {... */\n    tag_19:\n      callvalue\n      dup1\n      iszero\n      tag_115\n      jumpi\n      0x00\n      dup1\n      revert\n    tag_115:\n      pop\n      tag_35\n      tag_117\n      calldatasize\n      0x04\n      tag_118\n      jump\t// in\n    tag_117:\n      tag_119\n      jump\t// in\n        /* \"test2/TokenMaster.sol\":762:826  mapping(uint256 => mapping(uint256 => address)) public seatTaken */\n    tag_20:\n      callvalue\n      dup1\n      iszero\n      tag_120\n      jumpi\n      0x00\n      dup1\n      revert\n    tag_120:\n      pop\n      tag_45\n      tag_122\n      calldatasize\n      0x04\n      tag_37\n      jump\t// in\n    tag_122:\n      0x0b\n      0x20\n      swap1\n      dup2\n      mstore\n      0x00\n      swap3\n      dup4\n      mstore\n      0x40\n      dup1\n      dup5\n      keccak256\n      swap1\n      swap2\n      mstore\n      swap1\n      dup3\n      mstore\n      swap1\n      keccak256\n      sload\n      sub(shl(0xa0, 0x01), 0x01)\n      and\n      dup2\n      jump\n        /* \"@openzeppelin/contracts/token/ERC721/ERC721.sol\":5249:5563  function safeTransferFrom(... */\n    tag_21:\n      callvalue\n      dup1\n      iszero\n      tag_125\n      jumpi\n      0x00\n      dup1\n      revert\n    tag_125:\n      pop\n      tag_35\n      tag_127\n      calldatasize\n      0x04\n      tag_128\n      jump\t// in\n    tag_127:\n      tag_129\n      jump\t// in\n        /* \"@openzeppelin/contracts/token/ERC721/ERC721.sol\":2801:3077  function tokenURI(uint256 tokenId) public view virtual override returns (string memory) {... */\n    tag_22:\n      callvalue\n      dup1\n      iszero\n      tag_130\n      jumpi\n      0x00\n      dup1\n      revert\n    tag_130:\n      pop\n      tag_40\n      tag_132\n      calldatasize\n      0x04\n      tag_47\n      jump\t// in\n    tag_132:\n      tag_133\n      jump\t// in\n        /* \"@openzeppelin/contracts/token/ERC721/ERC721.sol\":4388:4550  function isApprovedForAll(address owner, address operator) public view virtual override returns (bool) {... */\n    tag_23:\n      callvalue\n      dup1\n      iszero\n      tag_135\n      jumpi\n      0x00\n      dup1\n      revert\n    tag_135:\n      pop\n      tag_29\n      tag_137\n      calldatasize\n      0x04\n      tag_138\n      jump\t// in\n    tag_137:\n      tag_139\n      jump\t// in\n        /* \"@openzeppelin/contracts/access/Ownable.sol\":2081:2279  function transferOwnership(address newOwner) public virtual onlyOwner {... */\n    tag_24:\n      callvalue\n      dup1\n      iszero\n      tag_141\n      jumpi\n      0x00\n      dup1\n      revert\n    tag_141:\n      pop\n      tag_35\n      tag_143\n      calldatasize\n      0x04\n      tag_79\n      jump\t// in\n    tag_143:\n      tag_144\n      jump\t// in\n        /* \"@openzeppelin/contracts/token/ERC721/ERC721.sol\":1570:1870  function supportsInterface(bytes4 interfaceId) public view virtual override(ERC165, IERC165) returns (bool) {... */\n    tag_32:\n        /* \"@openzeppelin/contracts/token/ERC721/ERC721.sol\":1672:1676  bool */\n      0x00\n      not(sub(shl(0xe0, 0x01), 0x01))\n        /* \"@openzeppelin/contracts/token/ERC721/ERC721.sol\":1707:1747  interfaceId == type(IERC721).interfaceId */\n      dup3\n      and\n      shl(0xe0, 0x80ac58cd)\n      eq\n      dup1\n        /* \"@openzeppelin/contracts/token/ERC721/ERC721.sol\":1707:1811  interfaceId == type(IERC721).interfaceId ||... */\n      tag_146\n      jumpi\n      pop\n      not(sub(shl(0xe0, 0x01), 0x01))\n        /* \"@openzeppelin/contracts/token/ERC721/ERC721.sol\":1763:1811  interfaceId == type(IERC721Metadata).interfaceId */\n      dup3\n      and\n      shl(0xe0, 0x5b5e139f)\n      eq\n        /* \"@openzeppelin/contracts/token/ERC721/ERC721.sol\":1707:1811  interfaceId == type(IERC721).interfaceId ||... */\n    tag_146:\n        /* \"@openzeppelin/contracts/token/ERC721/ERC721.sol\":1707:1863  interfaceId == type(IERC721).interfaceId ||... */\n      dup1\n      tag_148\n      jumpi\n      pop\n      shl(0xe0, 0x01ffc9a7)\n      not(sub(shl(0xe0, 0x01), 0x01))\n        /* \"@openzeppelin/contracts/utils/introspection/ERC165.sol\":937:977  interfaceId == type(IERC165).interfaceId */\n      dup4\n      and\n      eq\n        /* \"@openzeppelin/contracts/token/ERC721/ERC721.sol\":1827:1863  super.supportsInterface(interfaceId) */\n    tag_148:\n        /* \"@openzeppelin/contracts/token/ERC721/ERC721.sol\":1688:1863  return... */\n      swap3\n        /* \"@openzeppelin/contracts/token/ERC721/ERC721.sol\":1570:1870  function supportsInterface(bytes4 interfaceId) public view virtual override(ERC165, IERC165) returns (bool) {... */\n      swap2\n      pop\n      pop\n      jump\t// out\n        /* \"test2/TokenMaster.sol\":1410:1998  function safeMint(uint256 _id, uint256 _seat) public payable {... */\n    tag_38:\n        /* \"test2/TokenMaster.sol\":1489:1492  _id */\n      dup2\n        /* \"test2/TokenMaster.sol\":1496:1497  0 */\n      0x00\n        /* \"test2/TokenMaster.sol\":1489:1497  _id != 0 */\n      sub\n        /* \"test2/TokenMaster.sol\":1481:1498  require(_id != 0) */\n      tag_151\n      jumpi\n      0x00\n      dup1\n      revert\n    tag_151:\n        /* \"test2/TokenMaster.sol\":1523:1537  totalOccasions */\n      sload(0x08)\n        /* \"test2/TokenMaster.sol\":1516:1519  _id */\n      dup3\n        /* \"test2/TokenMaster.sol\":1516:1537  _id <= totalOccasions */\n      gt\n      iszero\n        /* \"test2/TokenMaster.sol\":1508:1538  require(_id <= totalOccasions) */\n      tag_152\n      jumpi\n      0x00\n      dup1\n      revert\n    tag_152:\n        /* \"test2/TokenMaster.sol\":1570:1584  occasions[_id] */\n      0x00\n      dup3\n      dup2\n      mstore\n        /* \"test2/TokenMaster.sol\":1570:1579  occasions */\n      0x09\n        /* \"test2/TokenMaster.sol\":1570:1584  occasions[_id] */\n      0x20\n      mstore\n      0x40\n      swap1\n      keccak256\n        /* \"test2/TokenMaster.sol\":1570:1589  occasions[_id].cost */\n      0x02\n      add\n      sload\n        /* \"test2/TokenMaster.sol\":1557:1566  msg.value */\n      callvalue\n        /* \"test2/TokenMaster.sol\":1557:1589  msg.value >= occasions[_id].cost */\n      lt\n      iszero\n        /* \"test2/TokenMaster.sol\":1549:1590  require(msg.value >= occasions[_id].cost) */\n      tag_153\n      jumpi\n      0x00\n      dup1\n      revert\n    tag_153:\n        /* \"test2/TokenMaster.sol\":1642:1643  0 */\n      0x00\n        /* \"test2/TokenMaster.sol\":1609:1623  seatTaken[_id] */\n      dup3\n      dup2\n      mstore\n        /* \"test2/TokenMaster.sol\":1609:1618  seatTaken */\n      0x0b\n        /* \"test2/TokenMaster.sol\":1609:1623  seatTaken[_id] */\n      0x20\n      swap1\n      dup2\n      mstore\n      0x40\n      dup1\n      dup4\n      keccak256\n        /* \"test2/TokenMaster.sol\":1609:1630  seatTaken[_id][_seat] */\n      dup5\n      dup5\n      mstore\n      swap1\n      swap2\n      mstore\n      swap1\n      keccak256\n      sload\n      sub(shl(0xa0, 0x01), 0x01)\n      and\n        /* \"test2/TokenMaster.sol\":1609:1644  seatTaken[_id][_seat] == address(0) */\n      iszero\n        /* \"test2/TokenMaster.sol\":1601:1645  require(seatTaken[_id][_seat] == address(0)) */\n      tag_154\n      jumpi\n      0x00\n      dup1\n      revert\n    tag_154:\n        /* \"test2/TokenMaster.sol\":1672:1686  occasions[_id] */\n      0x00\n      dup3\n      dup2\n      mstore\n        /* \"test2/TokenMaster.sol\":1672:1681  occasions */\n      0x09\n        /* \"test2/TokenMaster.sol\":1672:1686  occasions[_id] */\n      0x20\n      mstore\n      0x40\n      swap1\n      keccak256\n        /* \"test2/TokenMaster.sol\":1672:1697  occasions[_id].maxTickets */\n      0x04\n      add\n      sload\n        /* \"test2/TokenMaster.sol\":1663:1697  _seat <= occasions[_id].maxTickets */\n      dup2\n      gt\n      iszero\n        /* \"test2/TokenMaster.sol\":1655:1698  require(_seat <= occasions[_id].maxTickets) */\n      tag_155\n      jumpi\n      0x00\n      dup1\n      revert\n    tag_155:\n        /* \"test2/TokenMaster.sol\":1708:1722  occasions[_id] */\n      0x00\n      dup3\n      dup2\n      mstore\n        /* \"test2/TokenMaster.sol\":1708:1717  occasions */\n      0x09\n        /* \"test2/TokenMaster.sol\":1708:1722  occasions[_id] */\n      0x20\n      mstore\n      0x40\n      dup2\n      keccak256\n        /* \"test2/TokenMaster.sol\":1708:1730  occasions[_id].tickets */\n      0x03\n      add\n        /* \"test2/TokenMaster.sol\":1708:1735  occasions[_id].tickets -= 1 */\n      dup1\n      sload\n        /* \"test2/TokenMaster.sol\":1734:1735  1 */\n      0x01\n      swap3\n        /* \"test2/TokenMaster.sol\":1708:1722  occasions[_id] */\n      swap1\n        /* \"test2/TokenMaster.sol\":1708:1735  occasions[_id].tickets -= 1 */\n      tag_156\n      swap1\n        /* \"test2/TokenMaster.sol\":1734:1735  1 */\n      dup5\n      swap1\n        /* \"test2/TokenMaster.sol\":1708:1735  occasions[_id].tickets -= 1 */\n      tag_157\n      jump\t// in\n    tag_156:\n      swap1\n      swap2\n      sstore\n      pop\n      pop\n        /* \"test2/TokenMaster.sol\":1746:1760  hasBought[_id] */\n      0x00\n      dup3\n      dup2\n      mstore\n        /* \"test2/TokenMaster.sol\":1746:1755  hasBought */\n      0x0a\n        /* \"test2/TokenMaster.sol\":1746:1760  hasBought[_id] */\n      0x20\n      swap1\n      dup2\n      mstore\n      0x40\n      dup1\n      dup4\n      keccak256\n        /* \"test2/TokenMaster.sol\":1761:1771  msg.sender */\n      caller\n        /* \"test2/TokenMaster.sol\":1746:1772  hasBought[_id][msg.sender] */\n      dup1\n      dup6\n      mstore\n      swap1\n      dup4\n      mstore\n      dup2\n      dup5\n      keccak256\n        /* \"test2/TokenMaster.sol\":1746:1779  hasBought[_id][msg.sender] = true */\n      dup1\n      sload\n      not(0xff)\n      and\n        /* \"test2/TokenMaster.sol\":1775:1779  true */\n      0x01\n        /* \"test2/TokenMaster.sol\":1746:1779  hasBought[_id][msg.sender] = true */\n      swap1\n      dup2\n      or\n      swap1\n      swap2\n      sstore\n        /* \"test2/TokenMaster.sol\":1789:1803  seatTaken[_id] */\n      dup7\n      dup6\n      mstore\n        /* \"test2/TokenMaster.sol\":1789:1798  seatTaken */\n      0x0b\n        /* \"test2/TokenMaster.sol\":1789:1803  seatTaken[_id] */\n      dup5\n      mstore\n      dup3\n      dup6\n      keccak256\n        /* \"test2/TokenMaster.sol\":1789:1810  seatTaken[_id][_seat] */\n      dup7\n      dup7\n      mstore\n      dup5\n      mstore\n      dup3\n      dup6\n      keccak256\n        /* \"test2/TokenMaster.sol\":1789:1823  seatTaken[_id][_seat] = msg.sender */\n      dup1\n      sload\n      not(sub(shl(0xa0, 0x01), 0x01))\n      and\n      swap1\n      swap3\n      or\n      swap1\n      swap2\n      sstore\n        /* \"test2/TokenMaster.sol\":1834:1849  seatsTaken[_id] */\n      dup6\n      dup5\n      mstore\n        /* \"test2/TokenMaster.sol\":1834:1844  seatsTaken */\n      0x0c\n        /* \"test2/TokenMaster.sol\":1834:1849  seatsTaken[_id] */\n      dup4\n      mstore\n      swap1\n      dup4\n      keccak256\n        /* \"test2/TokenMaster.sol\":1834:1861  seatsTaken[_id].push(_seat) */\n      dup1\n      sload\n      swap2\n      dup3\n      add\n      dup2\n      sstore\n      dup4\n      mstore\n      swap1\n      dup3\n      keccak256\n      add\n      dup3\n      swap1\n      sstore\n        /* \"test2/TokenMaster.sol\":1889:1914  _tokenIdCounter.current() */\n      tag_159\n        /* \"test2/TokenMaster.sol\":1889:1904  _tokenIdCounter */\n      0x07\n        /* \"@openzeppelin/contracts/utils/Counters.sol\":918:932  counter._value */\n      sload\n      swap1\n        /* \"@openzeppelin/contracts/utils/Counters.sol\":827:939  function current(Counter storage counter) internal view returns (uint256) {... */\n      jump\n        /* \"test2/TokenMaster.sol\":1889:1914  _tokenIdCounter.current() */\n    tag_159:\n        /* \"test2/TokenMaster.sol\":1871:1914  uint256 tokenId = _tokenIdCounter.current() */\n      swap1\n      pop\n        /* \"test2/TokenMaster.sol\":1924:1951  _tokenIdCounter.increment() */\n      tag_161\n        /* \"test2/TokenMaster.sol\":1924:1939  _tokenIdCounter */\n      0x07\n        /* \"@openzeppelin/contracts/utils/Counters.sol\":1032:1051  counter._value += 1 */\n      dup1\n      sload\n        /* \"@openzeppelin/contracts/utils/Counters.sol\":1050:1051  1 */\n      0x01\n        /* \"@openzeppelin/contracts/utils/Counters.sol\":1032:1051  counter._value += 1 */\n      add\n      swap1\n      sstore\n        /* \"@openzeppelin/contracts/utils/Counters.sol\":945:1068  function increment(Counter storage counter) internal {... */\n      jump\n        /* \"test2/TokenMaster.sol\":1924:1951  _tokenIdCounter.increment() */\n    tag_161:\n        /* \"test2/TokenMaster.sol\":1961:1991  _safeMint(msg.sender, tokenId) */\n      tag_163\n        /* \"test2/TokenMaster.sol\":1971:1981  msg.sender */\n      caller\n        /* \"test2/TokenMaster.sol\":1983:1990  tokenId */\n      dup3\n        /* \"test2/TokenMaster.sol\":1961:1970  _safeMint */\n      tag_164\n        /* \"test2/TokenMaster.sol\":1961:1991  _safeMint(msg.sender, tokenId) */\n      jump\t// in\n    tag_163:\n        /* \"test2/TokenMaster.sol\":1471:1998  {... */\n      pop\n        /* \"test2/TokenMaster.sol\":1410:1998  function safeMint(uint256 _id, uint256 _seat) public payable {... */\n      pop\n      pop\n      jump\t// out\n        /* \"@openzeppelin/contracts/token/ERC721/ERC721.sol\":2471:2569  function name() public view virtual override returns (string memory) {... */\n    tag_41:\n        /* \"@openzeppelin/contracts/token/ERC721/ERC721.sol\":2525:2538  string memory */\n      0x60\n        /* \"@openzeppelin/contracts/token/ERC721/ERC721.sol\":2557:2562  _name */\n      0x00\n        /* \"@openzeppelin/contracts/token/ERC721/ERC721.sol\":2550:2562  return _name */\n      dup1\n      sload\n      tag_166\n      swap1\n      tag_167\n      jump\t// in\n    tag_166:\n      dup1\n      0x1f\n      add\n      0x20\n      dup1\n      swap2\n      div\n      mul\n      0x20\n      add\n      mload(0x40)\n      swap1\n      dup2\n      add\n      0x40\n      mstore\n      dup1\n      swap3\n      swap2\n      swap1\n      dup2\n      dup2\n      mstore\n      0x20\n      add\n      dup3\n      dup1\n      sload\n      tag_168\n      swap1\n      tag_167\n      jump\t// in\n    tag_168:\n      dup1\n      iszero\n      tag_169\n      jumpi\n      dup1\n      0x1f\n      lt\n      tag_170\n      jumpi\n      0x0100\n      dup1\n      dup4\n      sload\n      div\n      mul\n      dup4\n      mstore\n      swap2\n      0x20\n      add\n      swap2\n      jump(tag_169)\n    tag_170:\n      dup3\n      add\n      swap2\n      swap1\n      0x00\n      mstore\n      keccak256(0x00, 0x20)\n      swap1\n    tag_171:\n      dup2\n      sload\n      dup2\n      mstore\n      swap1\n      0x01\n      add\n      swap1\n      0x20\n      add\n      dup1\n      dup4\n      gt\n      tag_171\n      jumpi\n      dup3\n      swap1\n      sub\n      0x1f\n      and\n      dup3\n      add\n      swap2\n    tag_169:\n      pop\n      pop\n      pop\n      pop\n      pop\n      swap1\n      pop\n        /* \"@openzeppelin/contracts/token/ERC721/ERC721.sol\":2471:2569  function name() public view virtual override returns (string memory) {... */\n      swap1\n      jump\t// out\n        /* \"@openzeppelin/contracts/token/ERC721/ERC721.sol\":3935:4102  function getApproved(uint256 tokenId) public view virtual override returns (address) {... */\n    tag_48:\n        /* \"@openzeppelin/contracts/token/ERC721/ERC721.sol\":4011:4018  address */\n      0x00\n        /* \"@openzeppelin/contracts/token/ERC721/ERC721.sol\":4030:4053  _requireMinted(tokenId) */\n      tag_173\n        /* \"@openzeppelin/contracts/token/ERC721/ERC721.sol\":4045:4052  tokenId */\n      dup3\n        /* \"@openzeppelin/contracts/token/ERC721/ERC721.sol\":4030:4044  _requireMinted */\n      tag_174\n        /* \"@openzeppelin/contracts/token/ERC721/ERC721.sol\":4030:4053  _requireMinted(tokenId) */\n      jump\t// in\n    tag_173:\n      pop\n        /* \"@openzeppelin/contracts/token/ERC721/ERC721.sol\":4071:4095  _tokenApprovals[tokenId] */\n      0x00\n      swap1\n      dup2\n      mstore\n        /* \"@openzeppelin/contracts/token/ERC721/ERC721.sol\":4071:4086  _tokenApprovals */\n      0x04\n        /* \"@openzeppelin/contracts/token/ERC721/ERC721.sol\":4071:4095  _tokenApprovals[tokenId] */\n      0x20\n      mstore\n      0x40\n      swap1\n      keccak256\n      sload\n      sub(shl(0xa0, 0x01), 0x01)\n      and\n      swap1\n        /* \"@openzeppelin/contracts/token/ERC721/ERC721.sol\":3935:4102  function getApproved(uint256 tokenId) public view virtual override returns (address) {... */\n      jump\t// out\n        /* \"@openzeppelin/contracts/token/ERC721/ERC721.sol\":3468:3874  function approve(address to, uint256 tokenId) public virtual override {... */\n    tag_55:\n        /* \"@openzeppelin/contracts/token/ERC721/ERC721.sol\":3548:3561  address owner */\n      0x00\n        /* \"@openzeppelin/contracts/token/ERC721/ERC721.sol\":3564:3587  ERC721.ownerOf(tokenId) */\n      tag_176\n        /* \"@openzeppelin/contracts/token/ERC721/ERC721.sol\":3579:3586  tokenId */\n      dup3\n        /* \"@openzeppelin/contracts/token/ERC721/ERC721.sol\":3564:3578  ERC721.ownerOf */\n      tag_74\n        /* \"@openzeppelin/contracts/token/ERC721/ERC721.sol\":3564:3587  ERC721.ownerOf(tokenId) */\n      jump\t// in\n    tag_176:\n        /* \"@openzeppelin/contracts/token/ERC721/ERC721.sol\":3548:3587  address owner = ERC721.ownerOf(tokenId) */\n      swap1\n      pop\n        /* \"@openzeppelin/contracts/token/ERC721/ERC721.sol\":3611:3616  owner */\n      dup1\n      sub(shl(0xa0, 0x01), 0x01)\n        /* \"@openzeppelin/contracts/token/ERC721/ERC721.sol\":3605:3616  to != owner */\n      and\n        /* \"@openzeppelin/contracts/token/ERC721/ERC721.sol\":3605:3607  to */\n      dup4\n      sub(shl(0xa0, 0x01), 0x01)\n        /* \"@openzeppelin/contracts/token/ERC721/ERC721.sol\":3605:3616  to != owner */\n      and\n      sub\n        /* \"@openzeppelin/contracts/token/ERC721/ERC721.sol\":3597:3654  require(to != owner, \"ERC721: approval to current owner\") */\n      tag_177\n      jumpi\n      mload(0x40)\n      shl(0xe5, 0x461bcd)\n      dup2\n      mstore\n        /* \"#utility.yul\":9452:9454   */\n      0x20\n        /* \"@openzeppelin/contracts/token/ERC721/ERC721.sol\":3597:3654  require(to != owner, \"ERC721: approval to current owner\") */\n      0x04\n      dup3\n      add\n        /* \"#utility.yul\":9434:9455   */\n      mstore\n        /* \"#utility.yul\":9491:9493   */\n      0x21\n        /* \"#utility.yul\":9471:9489   */\n      0x24\n      dup3\n      add\n        /* \"#utility.yul\":9464:9494   */\n      mstore\n        /* \"#utility.yul\":9530:9564   */\n      0x4552433732313a20617070726f76616c20746f2063757272656e74206f776e65\n        /* \"#utility.yul\":9510:9528   */\n      0x44\n      dup3\n      add\n        /* \"#utility.yul\":9503:9565   */\n      mstore\n      shl(0xf9, 0x39)\n        /* \"#utility.yul\":9581:9599   */\n      0x64\n      dup3\n      add\n        /* \"#utility.yul\":9574:9605   */\n      mstore\n        /* \"#utility.yul\":9622:9641   */\n      0x84\n      add\n        /* \"@openzeppelin/contracts/token/ERC721/ERC721.sol\":3597:3654  require(to != owner, \"ERC721: approval to current owner\") */\n    tag_178:\n      mload(0x40)\n      dup1\n      swap2\n      sub\n      swap1\n      revert\n    tag_177:\n        /* \"@openzeppelin/contracts/utils/Context.sol\":719:729  msg.sender */\n      caller\n      sub(shl(0xa0, 0x01), 0x01)\n        /* \"@openzeppelin/contracts/token/ERC721/ERC721.sol\":3686:3707  _msgSender() == owner */\n      dup3\n      and\n      eq\n      dup1\n        /* \"@openzeppelin/contracts/token/ERC721/ERC721.sol\":3686:3748  _msgSender() == owner || isApprovedForAll(owner, _msgSender()) */\n      tag_183\n      jumpi\n      pop\n        /* \"@openzeppelin/contracts/token/ERC721/ERC721.sol\":3711:3748  isApprovedForAll(owner, _msgSender()) */\n      tag_183\n        /* \"@openzeppelin/contracts/token/ERC721/ERC721.sol\":3728:3733  owner */\n      dup2\n        /* \"@openzeppelin/contracts/utils/Context.sol\":719:729  msg.sender */\n      caller\n        /* \"@openzeppelin/contracts/token/ERC721/ERC721.sol\":4388:4550  function isApprovedForAll(address owner, address operator) public view virtual override returns (bool) {... */\n      tag_139\n      jump\t// in\n        /* \"@openzeppelin/contracts/token/ERC721/ERC721.sol\":3711:3748  isApprovedForAll(owner, _msgSender()) */\n    tag_183:\n        /* \"@openzeppelin/contracts/token/ERC721/ERC721.sol\":3665:3835  require(... */\n      tag_185\n      jumpi\n      mload(0x40)\n      shl(0xe5, 0x461bcd)\n      dup2\n      mstore\n        /* \"#utility.yul\":9854:9856   */\n      0x20\n        /* \"@openzeppelin/contracts/token/ERC721/ERC721.sol\":3665:3835  require(... */\n      0x04\n      dup3\n      add\n        /* \"#utility.yul\":9836:9857   */\n      mstore\n        /* \"#utility.yul\":9893:9895   */\n      0x3d\n        /* \"#utility.yul\":9873:9891   */\n      0x24\n      dup3\n      add\n        /* \"#utility.yul\":9866:9896   */\n      mstore\n        /* \"#utility.yul\":9932:9966   */\n      0x4552433732313a20617070726f76652063616c6c6572206973206e6f7420746f\n        /* \"#utility.yul\":9912:9930   */\n      0x44\n      dup3\n      add\n        /* \"#utility.yul\":9905:9967   */\n      mstore\n        /* \"#utility.yul\":10003:10034   */\n      0x6b656e206f776e6572206f7220617070726f76656420666f7220616c6c000000\n        /* \"#utility.yul\":9983:10001   */\n      0x64\n      dup3\n      add\n        /* \"#utility.yul\":9976:10035   */\n      mstore\n        /* \"#utility.yul\":10052:10071   */\n      0x84\n      add\n        /* \"@openzeppelin/contracts/token/ERC721/ERC721.sol\":3665:3835  require(... */\n      tag_178\n        /* \"#utility.yul\":9652:10077   */\n      jump\n        /* \"@openzeppelin/contracts/token/ERC721/ERC721.sol\":3665:3835  require(... */\n    tag_185:\n        /* \"@openzeppelin/contracts/token/ERC721/ERC721.sol\":3846:3867  _approve(to, tokenId) */\n      tag_163\n        /* \"@openzeppelin/contracts/token/ERC721/ERC721.sol\":3855:3857  to */\n      dup4\n        /* \"@openzeppelin/contracts/token/ERC721/ERC721.sol\":3859:3866  tokenId */\n      dup4\n        /* \"@openzeppelin/contracts/token/ERC721/ERC721.sol\":3846:3854  _approve */\n      tag_189\n        /* \"@openzeppelin/contracts/token/ERC721/ERC721.sol\":3846:3867  _approve(to, tokenId) */\n      jump\t// in\n        /* \"test2/TokenMaster.sol\":2120:2234  function getSeatsTaken(uint256 _id) public view returns (uint256[] memory) {... */\n    tag_59:\n        /* \"test2/TokenMaster.sol\":2212:2227  seatsTaken[_id] */\n      0x00\n      dup2\n      dup2\n      mstore\n        /* \"test2/TokenMaster.sol\":2212:2222  seatsTaken */\n      0x0c\n        /* \"test2/TokenMaster.sol\":2212:2227  seatsTaken[_id] */\n      0x20\n      swap1\n      dup2\n      mstore\n      0x40\n      swap2\n      dup3\n      swap1\n      keccak256\n        /* \"test2/TokenMaster.sol\":2205:2227  return seatsTaken[_id] */\n      dup1\n      sload\n      dup4\n      mload\n      dup2\n      dup5\n      mul\n      dup2\n      add\n      dup5\n      add\n      swap1\n      swap5\n      mstore\n      dup1\n      dup5\n      mstore\n        /* \"test2/TokenMaster.sol\":2177:2193  uint256[] memory */\n      0x60\n      swap4\n        /* \"test2/TokenMaster.sol\":2205:2227  return seatsTaken[_id] */\n      swap3\n      dup4\n      add\n        /* \"test2/TokenMaster.sol\":2212:2227  seatsTaken[_id] */\n      dup3\n        /* \"test2/TokenMaster.sol\":2205:2227  return seatsTaken[_id] */\n      dup3\n      dup1\n      iszero\n      tag_191\n      jumpi\n      0x20\n      mul\n      dup3\n      add\n      swap2\n      swap1\n      0x00\n      mstore\n      keccak256(0x00, 0x20)\n      swap1\n    tag_192:\n      dup2\n      sload\n      dup2\n      mstore\n      0x20\n      add\n      swap1\n      0x01\n      add\n      swap1\n      dup1\n      dup4\n      gt\n      tag_192\n      jumpi\n    tag_191:\n      pop\n      pop\n      pop\n      pop\n      pop\n      swap1\n      pop\n        /* \"test2/TokenMaster.sol\":2120:2234  function getSeatsTaken(uint256 _id) public view returns (uint256[] memory) {... */\n      swap2\n      swap1\n      pop\n      jump\t// out\n        /* \"@openzeppelin/contracts/token/ERC721/ERC721.sol\":4612:4938  function transferFrom(... */\n    tag_66:\n        /* \"@openzeppelin/contracts/token/ERC721/ERC721.sol\":4801:4842  _isApprovedOrOwner(_msgSender(), tokenId) */\n      tag_194\n        /* \"@openzeppelin/contracts/utils/Context.sol\":719:729  msg.sender */\n      caller\n        /* \"@openzeppelin/contracts/token/ERC721/ERC721.sol\":4834:4841  tokenId */\n      dup3\n        /* \"@openzeppelin/contracts/token/ERC721/ERC721.sol\":4801:4819  _isApprovedOrOwner */\n      tag_196\n        /* \"@openzeppelin/contracts/token/ERC721/ERC721.sol\":4801:4842  _isApprovedOrOwner(_msgSender(), tokenId) */\n      jump\t// in\n    tag_194:\n        /* \"@openzeppelin/contracts/token/ERC721/ERC721.sol\":4793:4892  require(_isApprovedOrOwner(_msgSender(), tokenId), \"ERC721: caller is not token owner or approved\") */\n      tag_197\n      jumpi\n      mload(0x40)\n      shl(0xe5, 0x461bcd)\n      dup2\n      mstore\n      0x04\n      add\n      tag_178\n      swap1\n      tag_199\n      jump\t// in\n    tag_197:\n        /* \"@openzeppelin/contracts/token/ERC721/ERC721.sol\":4903:4931  _transfer(from, to, tokenId) */\n      tag_163\n        /* \"@openzeppelin/contracts/token/ERC721/ERC721.sol\":4913:4917  from */\n      dup4\n        /* \"@openzeppelin/contracts/token/ERC721/ERC721.sol\":4919:4921  to */\n      dup4\n        /* \"@openzeppelin/contracts/token/ERC721/ERC721.sol\":4923:4930  tokenId */\n      dup4\n        /* \"@openzeppelin/contracts/token/ERC721/ERC721.sol\":4903:4912  _transfer */\n      tag_201\n        /* \"@openzeppelin/contracts/token/ERC721/ERC721.sol\":4903:4931  _transfer(from, to, tokenId) */\n      jump\t// in\n        /* \"@openzeppelin/contracts/token/ERC721/ERC721.sol\":5004:5183  function safeTransferFrom(... */\n    tag_70:\n        /* \"@openzeppelin/contracts/token/ERC721/ERC721.sol\":5137:5176  safeTransferFrom(from, to, tokenId, \"\") */\n      tag_163\n        /* \"@openzeppelin/contracts/token/ERC721/ERC721.sol\":5154:5158  from */\n      dup4\n        /* \"@openzeppelin/contracts/token/ERC721/ERC721.sol\":5160:5162  to */\n      dup4\n        /* \"@openzeppelin/contracts/token/ERC721/ERC721.sol\":5164:5171  tokenId */\n      dup4\n        /* \"@openzeppelin/contracts/token/ERC721/ERC721.sol\":5137:5176  safeTransferFrom(from, to, tokenId, \"\") */\n      mload(0x40)\n      dup1\n      0x20\n      add\n      0x40\n      mstore\n      dup1\n      0x00\n      dup2\n      mstore\n      pop\n        /* \"@openzeppelin/contracts/token/ERC721/ERC721.sol\":5137:5153  safeTransferFrom */\n      tag_129\n        /* \"@openzeppelin/contracts/token/ERC721/ERC721.sol\":5137:5176  safeTransferFrom(from, to, tokenId, \"\") */\n      jump\t// in\n        /* \"@openzeppelin/contracts/token/ERC721/ERC721.sol\":2190:2409  function ownerOf(uint256 tokenId) public view virtual override returns (address) {... */\n    tag_74:\n        /* \"@openzeppelin/contracts/token/ERC721/ERC721.sol\":2262:2269  address */\n      0x00\n        /* \"@openzeppelin/contracts/token/ERC721/ERC721.sol\":6930:6946  _owners[tokenId] */\n      dup2\n      dup2\n      mstore\n        /* \"@openzeppelin/contracts/token/ERC721/ERC721.sol\":6930:6937  _owners */\n      0x02\n        /* \"@openzeppelin/contracts/token/ERC721/ERC721.sol\":6930:6946  _owners[tokenId] */\n      0x20\n      mstore\n      0x40\n      dup2\n      keccak256\n      sload\n      sub(shl(0xa0, 0x01), 0x01)\n      and\n      dup1\n        /* \"@openzeppelin/contracts/token/ERC721/ERC721.sol\":2324:2380  require(owner != address(0), \"ERC721: invalid token ID\") */\n      tag_148\n      jumpi\n      mload(0x40)\n      shl(0xe5, 0x461bcd)\n      dup2\n      mstore\n        /* \"#utility.yul\":10698:10700   */\n      0x20\n        /* \"@openzeppelin/contracts/token/ERC721/ERC721.sol\":2324:2380  require(owner != address(0), \"ERC721: invalid token ID\") */\n      0x04\n      dup3\n      add\n        /* \"#utility.yul\":10680:10701   */\n      mstore\n        /* \"#utility.yul\":10737:10739   */\n      0x18\n        /* \"#utility.yul\":10717:10735   */\n      0x24\n      dup3\n      add\n        /* \"#utility.yul\":10710:10740   */\n      mstore\n      shl(0x42, 0x115490cdcc8c4e881a5b9d985b1a59081d1bdad95b881251)\n        /* \"#utility.yul\":10756:10774   */\n      0x44\n      dup3\n      add\n        /* \"#utility.yul\":10749:10803   */\n      mstore\n        /* \"#utility.yul\":10820:10838   */\n      0x64\n      add\n        /* \"@openzeppelin/contracts/token/ERC721/ERC721.sol\":2324:2380  require(owner != address(0), \"ERC721: invalid token ID\") */\n      tag_178\n        /* \"#utility.yul\":10496:10844   */\n      jump\n        /* \"@openzeppelin/contracts/token/ERC721/ERC721.sol\":1929:2133  function balanceOf(address owner) public view virtual override returns (uint256) {... */\n    tag_80:\n        /* \"@openzeppelin/contracts/token/ERC721/ERC721.sol\":2001:2008  uint256 */\n      0x00\n      sub(shl(0xa0, 0x01), 0x01)\n        /* \"@openzeppelin/contracts/token/ERC721/ERC721.sol\":2028:2047  owner != address(0) */\n      dup3\n      and\n        /* \"@openzeppelin/contracts/token/ERC721/ERC721.sol\":2020:2093  require(owner != address(0), \"ERC721: address zero is not a valid owner\") */\n      tag_211\n      jumpi\n      mload(0x40)\n      shl(0xe5, 0x461bcd)\n      dup2\n      mstore\n        /* \"#utility.yul\":11051:11053   */\n      0x20\n        /* \"@openzeppelin/contracts/token/ERC721/ERC721.sol\":2020:2093  require(owner != address(0), \"ERC721: address zero is not a valid owner\") */\n      0x04\n      dup3\n      add\n        /* \"#utility.yul\":11033:11054   */\n      mstore\n        /* \"#utility.yul\":11090:11092   */\n      0x29\n        /* \"#utility.yul\":11070:11088   */\n      0x24\n      dup3\n      add\n        /* \"#utility.yul\":11063:11093   */\n      mstore\n        /* \"#utility.yul\":11129:11163   */\n      0x4552433732313a2061646472657373207a65726f206973206e6f742061207661\n        /* \"#utility.yul\":11109:11127   */\n      0x44\n      dup3\n      add\n        /* \"#utility.yul\":11102:11164   */\n      mstore\n      shl(0xb9, 0x3634b21037bbb732b9)\n        /* \"#utility.yul\":11180:11198   */\n      0x64\n      dup3\n      add\n        /* \"#utility.yul\":11173:11212   */\n      mstore\n        /* \"#utility.yul\":11229:11248   */\n      0x84\n      add\n        /* \"@openzeppelin/contracts/token/ERC721/ERC721.sol\":2020:2093  require(owner != address(0), \"ERC721: address zero is not a valid owner\") */\n      tag_178\n        /* \"#utility.yul\":10849:11254   */\n      jump\n        /* \"@openzeppelin/contracts/token/ERC721/ERC721.sol\":2020:2093  require(owner != address(0), \"ERC721: address zero is not a valid owner\") */\n    tag_211:\n      pop\n      sub(shl(0xa0, 0x01), 0x01)\n        /* \"@openzeppelin/contracts/token/ERC721/ERC721.sol\":2110:2126  _balances[owner] */\n      and\n      0x00\n      swap1\n      dup2\n      mstore\n        /* \"@openzeppelin/contracts/token/ERC721/ERC721.sol\":2110:2119  _balances */\n      0x03\n        /* \"@openzeppelin/contracts/token/ERC721/ERC721.sol\":2110:2126  _balances[owner] */\n      0x20\n      mstore\n      0x40\n      swap1\n      keccak256\n      sload\n      swap1\n        /* \"@openzeppelin/contracts/token/ERC721/ERC721.sol\":1929:2133  function balanceOf(address owner) public view virtual override returns (uint256) {... */\n      jump\t// out\n        /* \"@openzeppelin/contracts/access/Ownable.sol\":1831:1932  function renounceOwnership() public virtual onlyOwner {... */\n    tag_85:\n        /* \"@openzeppelin/contracts/access/Ownable.sol\":1094:1107  _checkOwner() */\n      tag_215\n        /* \"@openzeppelin/contracts/access/Ownable.sol\":1094:1105  _checkOwner */\n      tag_216\n        /* \"@openzeppelin/contracts/access/Ownable.sol\":1094:1107  _checkOwner() */\n      jump\t// in\n    tag_215:\n        /* \"@openzeppelin/contracts/access/Ownable.sol\":1895:1925  _transferOwnership(address(0)) */\n      tag_218\n        /* \"@openzeppelin/contracts/access/Ownable.sol\":1922:1923  0 */\n      0x00\n        /* \"@openzeppelin/contracts/access/Ownable.sol\":1895:1913  _transferOwnership */\n      tag_219\n        /* \"@openzeppelin/contracts/access/Ownable.sol\":1895:1925  _transferOwnership(address(0)) */\n      jump\t// in\n    tag_218:\n        /* \"@openzeppelin/contracts/access/Ownable.sol\":1831:1932  function renounceOwnership() public virtual onlyOwner {... */\n      jump\t// out\n        /* \"test2/TokenMaster.sol\":2004:2114  function getOccasion(uint256 _id) public view returns (Occasion memory) {... */\n    tag_89:\n        /* \"test2/TokenMaster.sol\":2059:2074  Occasion memory */\n      tag_220\n      mload(0x40)\n      dup1\n      0x0100\n      add\n      0x40\n      mstore\n      dup1\n      0x00\n      dup2\n      mstore\n      0x20\n      add\n      0x60\n      dup2\n      mstore\n      0x20\n      add\n      0x00\n      dup2\n      mstore\n      0x20\n      add\n      0x00\n      dup2\n      mstore\n      0x20\n      add\n      0x00\n      dup2\n      mstore\n      0x20\n      add\n      0x60\n      dup2\n      mstore\n      0x20\n      add\n      0x60\n      dup2\n      mstore\n      0x20\n      add\n      0x60\n      dup2\n      mstore\n      pop\n      swap1\n      jump\n    tag_220:\n        /* \"test2/TokenMaster.sol\":2093:2102  occasions */\n      0x09\n        /* \"test2/TokenMaster.sol\":2093:2107  occasions[_id] */\n      0x00\n        /* \"test2/TokenMaster.sol\":2103:2106  _id */\n      dup4\n        /* \"test2/TokenMaster.sol\":2093:2107  occasions[_id] */\n      dup2\n      mstore\n      0x20\n      add\n      swap1\n      dup2\n      mstore\n      0x20\n      add\n      0x00\n      keccak256\n        /* \"test2/TokenMaster.sol\":2086:2107  return occasions[_id] */\n      mload(0x40)\n      dup1\n      0x0100\n      add\n      0x40\n      mstore\n      swap1\n      dup2\n      0x00\n      dup3\n      add\n      sload\n      dup2\n      mstore\n      0x20\n      add\n      0x01\n      dup3\n      add\n      dup1\n      sload\n      tag_223\n      swap1\n      tag_167\n      jump\t// in\n    tag_223:\n      dup1\n      0x1f\n      add\n      0x20\n      dup1\n      swap2\n      div\n      mul\n      0x20\n      add\n      mload(0x40)\n      swap1\n      dup2\n      add\n      0x40\n      mstore\n      dup1\n      swap3\n      swap2\n      swap1\n      dup2\n      dup2\n      mstore\n      0x20\n      add\n      dup3\n      dup1\n      sload\n      tag_224\n      swap1\n      tag_167\n      jump\t// in\n    tag_224:\n      dup1\n      iszero\n      tag_225\n      jumpi\n      dup1\n      0x1f\n      lt\n      tag_226\n      jumpi\n      0x0100\n      dup1\n      dup4\n      sload\n      div\n      mul\n      dup4\n      mstore\n      swap2\n      0x20\n      add\n      swap2\n      jump(tag_225)\n    tag_226:\n      dup3\n      add\n      swap2\n      swap1\n      0x00\n      mstore\n      keccak256(0x00, 0x20)\n      swap1\n    tag_227:\n      dup2\n      sload\n      dup2\n      mstore\n      swap1\n      0x01\n      add\n      swap1\n      0x20\n      add\n      dup1\n      dup4\n      gt\n      tag_227\n      jumpi\n      dup3\n      swap1\n      sub\n      0x1f\n      and\n      dup3\n      add\n      swap2\n    tag_225:\n      pop\n      pop\n      pop\n      pop\n      pop\n      dup2\n      mstore\n      0x20\n      add\n      0x02\n      dup3\n      add\n      sload\n      dup2\n      mstore\n      0x20\n      add\n      0x03\n      dup3\n      add\n      sload\n      dup2\n      mstore\n      0x20\n      add\n      0x04\n      dup3\n      add\n      sload\n      dup2\n      mstore\n      0x20\n      add\n      0x05\n      dup3\n      add\n      dup1\n      sload\n      tag_228\n      swap1\n      tag_167\n      jump\t// in\n    tag_228:\n      dup1\n      0x1f\n      add\n      0x20\n      dup1\n      swap2\n      div\n      mul\n      0x20\n      add\n      mload(0x40)\n      swap1\n      dup2\n      add\n      0x40\n      mstore\n      dup1\n      swap3\n      swap2\n      swap1\n      dup2\n      dup2\n      mstore\n      0x20\n      add\n      dup3\n      dup1\n      sload\n      tag_229\n      swap1\n      tag_167\n      jump\t// in\n    tag_229:\n      dup1\n      iszero\n      tag_230\n      jumpi\n      dup1\n      0x1f\n      lt\n      tag_231\n      jumpi\n      0x0100\n      dup1\n      dup4\n      sload\n      div\n      mul\n      dup4\n      mstore\n      swap2\n      0x20\n      add\n      swap2\n      jump(tag_230)\n    tag_231:\n      dup3\n      add\n      swap2\n      swap1\n      0x00\n      mstore\n      keccak256(0x00, 0x20)\n      swap1\n    tag_232:\n      dup2\n      sload\n      dup2\n      mstore\n      swap1\n      0x01\n      add\n      swap1\n      0x20\n      add\n      dup1\n      dup4\n      gt\n      tag_232\n      jumpi\n      dup3\n      swap1\n      sub\n      0x1f\n      and\n      dup3\n      add\n      swap2\n    tag_230:\n      pop\n      pop\n      pop\n      pop\n      pop\n      dup2\n      mstore\n      0x20\n      add\n      0x06\n      dup3\n      add\n      dup1\n      sload\n      tag_233\n      swap1\n      tag_167\n      jump\t// in\n    tag_233:\n      dup1\n      0x1f\n      add\n      0x20\n      dup1\n      swap2\n      div\n      mul\n      0x20\n      add\n      mload(0x40)\n      swap1\n      dup2\n      add\n      0x40\n      mstore\n      dup1\n      swap3\n      swap2\n      swap1\n      dup2\n      dup2\n      mstore\n      0x20\n      add\n      dup3\n      dup1\n      sload\n      tag_234\n      swap1\n      tag_167\n      jump\t// in\n    tag_234:\n      dup1\n      iszero\n      tag_235\n      jumpi\n      dup1\n      0x1f\n      lt\n      tag_236\n      jumpi\n      0x0100\n      dup1\n      dup4\n      sload\n      div\n      mul\n      dup4\n      mstore\n      swap2\n      0x20\n      add\n      swap2\n      jump(tag_235)\n    tag_236:\n      dup3\n      add\n      swap2\n      swap1\n      0x00\n      mstore\n      keccak256(0x00, 0x20)\n      swap1\n    tag_237:\n      dup2\n      sload\n      dup2\n      mstore\n      swap1\n      0x01\n      add\n      swap1\n      0x20\n      add\n      dup1\n      dup4\n      gt\n      tag_237\n      jumpi\n      dup3\n      swap1\n      sub\n      0x1f\n      and\n      dup3\n      add\n      swap2\n    tag_235:\n      pop\n      pop\n      pop\n      pop\n      pop\n      dup2\n      mstore\n      0x20\n      add\n      0x07\n      dup3\n      add\n      dup1\n      sload\n      tag_238\n      swap1\n      tag_167\n      jump\t// in\n    tag_238:\n      dup1\n      0x1f\n      add\n      0x20\n      dup1\n      swap2\n      div\n      mul\n      0x20\n      add\n      mload(0x40)\n      swap1\n      dup2\n      add\n      0x40\n      mstore\n      dup1\n      swap3\n      swap2\n      swap1\n      dup2\n      dup2\n      mstore\n      0x20\n      add\n      dup3\n      dup1\n      sload\n      tag_239\n      swap1\n      tag_167\n      jump\t// in\n    tag_239:\n      dup1\n      iszero\n      tag_240\n      jumpi\n      dup1\n      0x1f\n      lt\n      tag_241\n      jumpi\n      0x0100\n      dup1\n      dup4\n      sload\n      div\n      mul\n      dup4\n      mstore\n      swap2\n      0x20\n      add\n      swap2\n      jump(tag_240)\n    tag_241:\n      dup3\n      add\n      swap2\n      swap1\n      0x00\n      mstore\n      keccak256(0x00, 0x20)\n      swap1\n    tag_242:\n      dup2\n      sload\n      dup2\n      mstore\n      swap1\n      0x01\n      add\n      swap1\n      0x20\n      add\n      dup1\n      dup4\n      gt\n      tag_242\n      jumpi\n      dup3\n      swap1\n      sub\n      0x1f\n      and\n      dup3\n      add\n      swap2\n    tag_240:\n      pop\n      pop\n      pop\n      pop\n      pop\n      dup2\n      mstore\n      pop\n      pop\n      swap1\n      pop\n        /* \"test2/TokenMaster.sol\":2004:2114  function getOccasion(uint256 _id) public view returns (Occasion memory) {... */\n      swap2\n      swap1\n      pop\n      jump\t// out\n        /* \"@openzeppelin/contracts/token/ERC721/ERC721.sol\":2633:2735  function symbol() public view virtual override returns (string memory) {... */\n    tag_102:\n        /* \"@openzeppelin/contracts/token/ERC721/ERC721.sol\":2689:2702  string memory */\n      0x60\n        /* \"@openzeppelin/contracts/token/ERC721/ERC721.sol\":2721:2728  _symbol */\n      0x01\n        /* \"@openzeppelin/contracts/token/ERC721/ERC721.sol\":2714:2728  return _symbol */\n      dup1\n      sload\n      tag_166\n      swap1\n      tag_167\n      jump\t// in\n        /* \"test2/TokenMaster.sol\":929:1404  function list(... */\n    tag_108:\n        /* \"@openzeppelin/contracts/access/Ownable.sol\":1094:1107  _checkOwner() */\n      tag_251\n        /* \"@openzeppelin/contracts/access/Ownable.sol\":1094:1105  _checkOwner */\n      tag_216\n        /* \"@openzeppelin/contracts/access/Ownable.sol\":1094:1107  _checkOwner() */\n      jump\t// in\n    tag_251:\n        /* \"test2/TokenMaster.sol\":1148:1162  totalOccasions */\n      0x08\n        /* \"test2/TokenMaster.sol\":1148:1164  totalOccasions++ */\n      dup1\n      sload\n      swap1\n        /* \"test2/TokenMaster.sol\":1148:1162  totalOccasions */\n      0x00\n        /* \"test2/TokenMaster.sol\":1148:1164  totalOccasions++ */\n      tag_253\n      dup4\n      tag_254\n      jump\t// in\n    tag_253:\n      swap2\n      swap1\n      pop\n      sstore\n      pop\n        /* \"test2/TokenMaster.sol\":1202:1397  Occasion(... */\n      mload(0x40)\n      dup1\n      0x0100\n      add\n      0x40\n      mstore\n      dup1\n        /* \"test2/TokenMaster.sol\":1224:1238  totalOccasions */\n      sload(0x08)\n        /* \"test2/TokenMaster.sol\":1202:1397  Occasion(... */\n      dup2\n      mstore\n      0x20\n      add\n        /* \"test2/TokenMaster.sol\":1252:1257  _name */\n      dup8\n        /* \"test2/TokenMaster.sol\":1202:1397  Occasion(... */\n      dup2\n      mstore\n      0x20\n      add\n        /* \"test2/TokenMaster.sol\":1271:1276  _cost */\n      dup7\n        /* \"test2/TokenMaster.sol\":1202:1397  Occasion(... */\n      dup2\n      mstore\n      0x20\n      add\n        /* \"test2/TokenMaster.sol\":1290:1301  _maxTickets */\n      dup6\n        /* \"test2/TokenMaster.sol\":1202:1397  Occasion(... */\n      dup2\n      mstore\n      0x20\n      add\n        /* \"test2/TokenMaster.sol\":1315:1326  _maxTickets */\n      dup6\n        /* \"test2/TokenMaster.sol\":1202:1397  Occasion(... */\n      dup2\n      mstore\n      0x20\n      add\n        /* \"test2/TokenMaster.sol\":1340:1345  _date */\n      dup5\n        /* \"test2/TokenMaster.sol\":1202:1397  Occasion(... */\n      dup2\n      mstore\n      0x20\n      add\n        /* \"test2/TokenMaster.sol\":1359:1364  _time */\n      dup4\n        /* \"test2/TokenMaster.sol\":1202:1397  Occasion(... */\n      dup2\n      mstore\n      0x20\n      add\n        /* \"test2/TokenMaster.sol\":1378:1387  _location */\n      dup3\n        /* \"test2/TokenMaster.sol\":1202:1397  Occasion(... */\n      dup2\n      mstore\n      pop\n        /* \"test2/TokenMaster.sol\":1174:1183  occasions */\n      0x09\n        /* \"test2/TokenMaster.sol\":1174:1199  occasions[totalOccasions] */\n      0x00\n        /* \"test2/TokenMaster.sol\":1184:1198  totalOccasions */\n      sload(0x08)\n        /* \"test2/TokenMaster.sol\":1174:1199  occasions[totalOccasions] */\n      dup2\n      mstore\n      0x20\n      add\n      swap1\n      dup2\n      mstore\n      0x20\n      add\n      0x00\n      keccak256\n        /* \"test2/TokenMaster.sol\":1174:1397  occasions[totalOccasions] = Occasion(... */\n      0x00\n      dup3\n      add\n      mload\n      dup2\n      0x00\n      add\n      sstore\n      0x20\n      dup3\n      add\n      mload\n      dup2\n      0x01\n      add\n      swap1\n      dup2\n      tag_255\n      swap2\n      swap1\n      tag_256\n      jump\t// in\n    tag_255:\n      pop\n      0x40\n      dup3\n      add\n      mload\n      0x02\n      dup3\n      add\n      sstore\n      0x60\n      dup3\n      add\n      mload\n      0x03\n      dup3\n      add\n      sstore\n      0x80\n      dup3\n      add\n      mload\n      0x04\n      dup3\n      add\n      sstore\n      0xa0\n      dup3\n      add\n      mload\n      0x05\n      dup3\n      add\n      swap1\n      tag_257\n      swap1\n      dup3\n      tag_256\n      jump\t// in\n    tag_257:\n      pop\n      0xc0\n      dup3\n      add\n      mload\n      0x06\n      dup3\n      add\n      swap1\n      tag_258\n      swap1\n      dup3\n      tag_256\n      jump\t// in\n    tag_258:\n      pop\n      0xe0\n      dup3\n      add\n      mload\n      0x07\n      dup3\n      add\n      swap1\n      tag_259\n      swap1\n      dup3\n      tag_256\n      jump\t// in\n    tag_259:\n      pop\n      pop\n      pop\n      pop\n      pop\n      pop\n      pop\n      pop\n      pop\n        /* \"test2/TokenMaster.sol\":929:1404  function list(... */\n      jump\t// out\n        /* \"@openzeppelin/contracts/token/ERC721/ERC721.sol\":4169:4322  function setApprovalForAll(address operator, bool approved) public virtual override {... */\n    tag_119:\n        /* \"@openzeppelin/contracts/token/ERC721/ERC721.sol\":4263:4315  _setApprovalForAll(_msgSender(), operator, approved) */\n      tag_261\n        /* \"@openzeppelin/contracts/utils/Context.sol\":719:729  msg.sender */\n      caller\n        /* \"@openzeppelin/contracts/token/ERC721/ERC721.sol\":4296:4304  operator */\n      dup4\n        /* \"@openzeppelin/contracts/token/ERC721/ERC721.sol\":4306:4314  approved */\n      dup4\n        /* \"@openzeppelin/contracts/token/ERC721/ERC721.sol\":4263:4281  _setApprovalForAll */\n      tag_263\n        /* \"@openzeppelin/contracts/token/ERC721/ERC721.sol\":4263:4315  _setApprovalForAll(_msgSender(), operator, approved) */\n      jump\t// in\n    tag_261:\n        /* \"@openzeppelin/contracts/token/ERC721/ERC721.sol\":4169:4322  function setApprovalForAll(address operator, bool approved) public virtual override {... */\n      pop\n      pop\n      jump\t// out\n        /* \"@openzeppelin/contracts/token/ERC721/ERC721.sol\":5249:5563  function safeTransferFrom(... */\n    tag_129:\n        /* \"@openzeppelin/contracts/token/ERC721/ERC721.sol\":5417:5458  _isApprovedOrOwner(_msgSender(), tokenId) */\n      tag_265\n        /* \"@openzeppelin/contracts/utils/Context.sol\":719:729  msg.sender */\n      caller\n        /* \"@openzeppelin/contracts/token/ERC721/ERC721.sol\":5450:5457  tokenId */\n      dup4\n        /* \"@openzeppelin/contracts/token/ERC721/ERC721.sol\":5417:5435  _isApprovedOrOwner */\n      tag_196\n        /* \"@openzeppelin/contracts/token/ERC721/ERC721.sol\":5417:5458  _isApprovedOrOwner(_msgSender(), tokenId) */\n      jump\t// in\n    tag_265:\n        /* \"@openzeppelin/contracts/token/ERC721/ERC721.sol\":5409:5508  require(_isApprovedOrOwner(_msgSender(), tokenId), \"ERC721: caller is not token owner or approved\") */\n      tag_267\n      jumpi\n      mload(0x40)\n      shl(0xe5, 0x461bcd)\n      dup2\n      mstore\n      0x04\n      add\n      tag_178\n      swap1\n      tag_199\n      jump\t// in\n    tag_267:\n        /* \"@openzeppelin/contracts/token/ERC721/ERC721.sol\":5518:5556  _safeTransfer(from, to, tokenId, data) */\n      tag_269\n        /* \"@openzeppelin/contracts/token/ERC721/ERC721.sol\":5532:5536  from */\n      dup5\n        /* \"@openzeppelin/contracts/token/ERC721/ERC721.sol\":5538:5540  to */\n      dup5\n        /* \"@openzeppelin/contracts/token/ERC721/ERC721.sol\":5542:5549  tokenId */\n      dup5\n        /* \"@openzeppelin/contracts/token/ERC721/ERC721.sol\":5551:5555  data */\n      dup5\n        /* \"@openzeppelin/contracts/token/ERC721/ERC721.sol\":5518:5531  _safeTransfer */\n      tag_270\n        /* \"@openzeppelin/contracts/token/ERC721/ERC721.sol\":5518:5556  _safeTransfer(from, to, tokenId, data) */\n      jump\t// in\n    tag_269:\n        /* \"@openzeppelin/contracts/token/ERC721/ERC721.sol\":5249:5563  function safeTransferFrom(... */\n      pop\n      pop\n      pop\n      pop\n      jump\t// out\n        /* \"@openzeppelin/contracts/token/ERC721/ERC721.sol\":2801:3077  function tokenURI(uint256 tokenId) public view virtual override returns (string memory) {... */\n    tag_133:\n        /* \"@openzeppelin/contracts/token/ERC721/ERC721.sol\":2874:2887  string memory */\n      0x60\n        /* \"@openzeppelin/contracts/token/ERC721/ERC721.sol\":2899:2922  _requireMinted(tokenId) */\n      tag_272\n        /* \"@openzeppelin/contracts/token/ERC721/ERC721.sol\":2914:2921  tokenId */\n      dup3\n        /* \"@openzeppelin/contracts/token/ERC721/ERC721.sol\":2899:2913  _requireMinted */\n      tag_174\n        /* \"@openzeppelin/contracts/token/ERC721/ERC721.sol\":2899:2922  _requireMinted(tokenId) */\n      jump\t// in\n    tag_272:\n        /* \"@openzeppelin/contracts/token/ERC721/ERC721.sol\":2933:2954  string memory baseURI */\n      0x00\n        /* \"@openzeppelin/contracts/token/ERC721/ERC721.sol\":2957:2967  _baseURI() */\n      tag_273\n        /* \"@openzeppelin/contracts/token/ERC721/ERC721.sol\":3395:3404  return \"\" */\n      0x40\n      dup1\n      mload\n      0x20\n      dup2\n      add\n      swap1\n      swap2\n      mstore\n      0x00\n      dup2\n      mstore\n      swap1\n        /* \"@openzeppelin/contracts/token/ERC721/ERC721.sol\":3319:3411  function _baseURI() internal view virtual returns (string memory) {... */\n      jump\n        /* \"@openzeppelin/contracts/token/ERC721/ERC721.sol\":2957:2967  _baseURI() */\n    tag_273:\n        /* \"@openzeppelin/contracts/token/ERC721/ERC721.sol\":2933:2967  string memory baseURI = _baseURI() */\n      swap1\n      pop\n        /* \"@openzeppelin/contracts/token/ERC721/ERC721.sol\":3008:3009  0 */\n      0x00\n        /* \"@openzeppelin/contracts/token/ERC721/ERC721.sol\":2990:2997  baseURI */\n      dup2\n        /* \"@openzeppelin/contracts/token/ERC721/ERC721.sol\":2984:3005  bytes(baseURI).length */\n      mload\n        /* \"@openzeppelin/contracts/token/ERC721/ERC721.sol\":2984:3009  bytes(baseURI).length > 0 */\n      gt\n        /* \"@openzeppelin/contracts/token/ERC721/ERC721.sol\":2984:3070  bytes(baseURI).length > 0 ? string(abi.encodePacked(baseURI, tokenId.toString())) : \"\" */\n      tag_275\n      jumpi\n      mload(0x40)\n      dup1\n      0x20\n      add\n      0x40\n      mstore\n      dup1\n      0x00\n      dup2\n      mstore\n      pop\n      jump(tag_276)\n    tag_275:\n        /* \"@openzeppelin/contracts/token/ERC721/ERC721.sol\":3036:3043  baseURI */\n      dup1\n        /* \"@openzeppelin/contracts/token/ERC721/ERC721.sol\":3045:3063  tokenId.toString() */\n      tag_277\n        /* \"@openzeppelin/contracts/token/ERC721/ERC721.sol\":3045:3052  tokenId */\n      dup5\n        /* \"@openzeppelin/contracts/token/ERC721/ERC721.sol\":3045:3061  tokenId.toString */\n      tag_278\n        /* \"@openzeppelin/contracts/token/ERC721/ERC721.sol\":3045:3063  tokenId.toString() */\n      jump\t// in\n    tag_277:\n        /* \"@openzeppelin/contracts/token/ERC721/ERC721.sol\":3019:3064  abi.encodePacked(baseURI, tokenId.toString()) */\n      add(0x20, mload(0x40))\n      tag_279\n      swap3\n      swap2\n      swap1\n      tag_280\n      jump\t// in\n    tag_279:\n      mload(0x40)\n      0x20\n      dup2\n      dup4\n      sub\n      sub\n      dup2\n      mstore\n      swap1\n      0x40\n      mstore\n        /* \"@openzeppelin/contracts/token/ERC721/ERC721.sol\":2984:3070  bytes(baseURI).length > 0 ? string(abi.encodePacked(baseURI, tokenId.toString())) : \"\" */\n    tag_276:\n        /* \"@openzeppelin/contracts/token/ERC721/ERC721.sol\":2977:3070  return bytes(baseURI).length > 0 ? string(abi.encodePacked(baseURI, tokenId.toString())) : \"\" */\n      swap4\n        /* \"@openzeppelin/contracts/token/ERC721/ERC721.sol\":2801:3077  function tokenURI(uint256 tokenId) public view virtual override returns (string memory) {... */\n      swap3\n      pop\n      pop\n      pop\n      jump\t// out\n        /* \"@openzeppelin/contracts/token/ERC721/ERC721.sol\":4388:4550  function isApprovedForAll(address owner, address operator) public view virtual override returns (bool) {... */\n    tag_139:\n      sub(shl(0xa0, 0x01), 0x01)\n        /* \"@openzeppelin/contracts/token/ERC721/ERC721.sol\":4508:4533  _operatorApprovals[owner] */\n      swap2\n      dup3\n      and\n        /* \"@openzeppelin/contracts/token/ERC721/ERC721.sol\":4485:4489  bool */\n      0x00\n        /* \"@openzeppelin/contracts/token/ERC721/ERC721.sol\":4508:4533  _operatorApprovals[owner] */\n      swap1\n      dup2\n      mstore\n        /* \"@openzeppelin/contracts/token/ERC721/ERC721.sol\":4508:4526  _operatorApprovals */\n      0x05\n        /* \"@openzeppelin/contracts/token/ERC721/ERC721.sol\":4508:4533  _operatorApprovals[owner] */\n      0x20\n      swap1\n      dup2\n      mstore\n      0x40\n      dup1\n      dup4\n      keccak256\n        /* \"@openzeppelin/contracts/token/ERC721/ERC721.sol\":4508:4543  _operatorApprovals[owner][operator] */\n      swap4\n      swap1\n      swap5\n      and\n      dup3\n      mstore\n      swap2\n      swap1\n      swap2\n      mstore\n      keccak256\n      sload\n      0xff\n      and\n      swap1\n        /* \"@openzeppelin/contracts/token/ERC721/ERC721.sol\":4388:4550  function isApprovedForAll(address owner, address operator) public view virtual override returns (bool) {... */\n      jump\t// out\n        /* \"@openzeppelin/contracts/access/Ownable.sol\":2081:2279  function transferOwnership(address newOwner) public virtual onlyOwner {... */\n    tag_144:\n        /* \"@openzeppelin/contracts/access/Ownable.sol\":1094:1107  _checkOwner() */\n      tag_283\n        /* \"@openzeppelin/contracts/access/Ownable.sol\":1094:1105  _checkOwner */\n      tag_216\n        /* \"@openzeppelin/contracts/access/Ownable.sol\":1094:1107  _checkOwner() */\n      jump\t// in\n    tag_283:\n      sub(shl(0xa0, 0x01), 0x01)\n        /* \"@openzeppelin/contracts/access/Ownable.sol\":2169:2191  newOwner != address(0) */\n      dup2\n      and\n        /* \"@openzeppelin/contracts/access/Ownable.sol\":2161:2234  require(newOwner != address(0), \"Ownable: new owner is the zero address\") */\n      tag_285\n      jumpi\n      mload(0x40)\n      shl(0xe5, 0x461bcd)\n      dup2\n      mstore\n        /* \"#utility.yul\":14306:14308   */\n      0x20\n        /* \"@openzeppelin/contracts/access/Ownable.sol\":2161:2234  require(newOwner != address(0), \"Ownable: new owner is the zero address\") */\n      0x04\n      dup3\n      add\n        /* \"#utility.yul\":14288:14309   */\n      mstore\n        /* \"#utility.yul\":14345:14347   */\n      0x26\n        /* \"#utility.yul\":14325:14343   */\n      0x24\n      dup3\n      add\n        /* \"#utility.yul\":14318:14348   */\n      mstore\n        /* \"#utility.yul\":14384:14418   */\n      0x4f776e61626c653a206e6577206f776e657220697320746865207a65726f2061\n        /* \"#utility.yul\":14364:14382   */\n      0x44\n      dup3\n      add\n        /* \"#utility.yul\":14357:14419   */\n      mstore\n      shl(0xd0, 0x646472657373)\n        /* \"#utility.yul\":14435:14453   */\n      0x64\n      dup3\n      add\n        /* \"#utility.yul\":14428:14464   */\n      mstore\n        /* \"#utility.yul\":14481:14500   */\n      0x84\n      add\n        /* \"@openzeppelin/contracts/access/Ownable.sol\":2161:2234  require(newOwner != address(0), \"Ownable: new owner is the zero address\") */\n      tag_178\n        /* \"#utility.yul\":14104:14506   */\n      jump\n        /* \"@openzeppelin/contracts/access/Ownable.sol\":2161:2234  require(newOwner != address(0), \"Ownable: new owner is the zero address\") */\n    tag_285:\n        /* \"@openzeppelin/contracts/access/Ownable.sol\":2244:2272  _transferOwnership(newOwner) */\n      tag_288\n        /* \"@openzeppelin/contracts/access/Ownable.sol\":2263:2271  newOwner */\n      dup2\n        /* \"@openzeppelin/contracts/access/Ownable.sol\":2244:2262  _transferOwnership */\n      tag_219\n        /* \"@openzeppelin/contracts/access/Ownable.sol\":2244:2272  _transferOwnership(newOwner) */\n      jump\t// in\n    tag_288:\n        /* \"@openzeppelin/contracts/access/Ownable.sol\":2081:2279  function transferOwnership(address newOwner) public virtual onlyOwner {... */\n      pop\n      jump\t// out\n        /* \"@openzeppelin/contracts/token/ERC721/ERC721.sol\":8131:8239  function _safeMint(address to, uint256 tokenId) internal virtual {... */\n    tag_164:\n        /* \"@openzeppelin/contracts/token/ERC721/ERC721.sol\":8206:8232  _safeMint(to, tokenId, \"\") */\n      tag_261\n        /* \"@openzeppelin/contracts/token/ERC721/ERC721.sol\":8216:8218  to */\n      dup3\n        /* \"@openzeppelin/contracts/token/ERC721/ERC721.sol\":8220:8227  tokenId */\n      dup3\n        /* \"@openzeppelin/contracts/token/ERC721/ERC721.sol\":8206:8232  _safeMint(to, tokenId, \"\") */\n      mload(0x40)\n      dup1\n      0x20\n      add\n      0x40\n      mstore\n      dup1\n      0x00\n      dup2\n      mstore\n      pop\n        /* \"@openzeppelin/contracts/token/ERC721/ERC721.sol\":8206:8215  _safeMint */\n      tag_294\n        /* \"@openzeppelin/contracts/token/ERC721/ERC721.sol\":8206:8232  _safeMint(to, tokenId, \"\") */\n      jump\t// in\n        /* \"@openzeppelin/contracts/token/ERC721/ERC721.sol\":13466:13599  function _requireMinted(uint256 tokenId) internal view virtual {... */\n    tag_174:\n        /* \"@openzeppelin/contracts/token/ERC721/ERC721.sol\":7321:7325  bool */\n      0x00\n        /* \"@openzeppelin/contracts/token/ERC721/ERC721.sol\":6930:6946  _owners[tokenId] */\n      dup2\n      dup2\n      mstore\n        /* \"@openzeppelin/contracts/token/ERC721/ERC721.sol\":6930:6937  _owners */\n      0x02\n        /* \"@openzeppelin/contracts/token/ERC721/ERC721.sol\":6930:6946  _owners[tokenId] */\n      0x20\n      mstore\n      0x40\n      swap1\n      keccak256\n      sload\n      sub(shl(0xa0, 0x01), 0x01)\n      and\n        /* \"@openzeppelin/contracts/token/ERC721/ERC721.sol\":13539:13592  require(_exists(tokenId), \"ERC721: invalid token ID\") */\n      tag_288\n      jumpi\n      mload(0x40)\n      shl(0xe5, 0x461bcd)\n      dup2\n      mstore\n        /* \"#utility.yul\":10698:10700   */\n      0x20\n        /* \"@openzeppelin/contracts/token/ERC721/ERC721.sol\":13539:13592  require(_exists(tokenId), \"ERC721: invalid token ID\") */\n      0x04\n      dup3\n      add\n        /* \"#utility.yul\":10680:10701   */\n      mstore\n        /* \"#utility.yul\":10737:10739   */\n      0x18\n        /* \"#utility.yul\":10717:10735   */\n      0x24\n      dup3\n      add\n        /* \"#utility.yul\":10710:10740   */\n      mstore\n      shl(0x42, 0x115490cdcc8c4e881a5b9d985b1a59081d1bdad95b881251)\n        /* \"#utility.yul\":10756:10774   */\n      0x44\n      dup3\n      add\n        /* \"#utility.yul\":10749:10803   */\n      mstore\n        /* \"#utility.yul\":10820:10838   */\n      0x64\n      add\n        /* \"@openzeppelin/contracts/token/ERC721/ERC721.sol\":13539:13592  require(_exists(tokenId), \"ERC721: invalid token ID\") */\n      tag_178\n        /* \"#utility.yul\":10496:10844   */\n      jump\n        /* \"@openzeppelin/contracts/token/ERC721/ERC721.sol\":12768:12939  function _approve(address to, uint256 tokenId) internal virtual {... */\n    tag_189:\n        /* \"@openzeppelin/contracts/token/ERC721/ERC721.sol\":12842:12866  _tokenApprovals[tokenId] */\n      0x00\n      dup2\n      dup2\n      mstore\n        /* \"@openzeppelin/contracts/token/ERC721/ERC721.sol\":12842:12857  _tokenApprovals */\n      0x04\n        /* \"@openzeppelin/contracts/token/ERC721/ERC721.sol\":12842:12866  _tokenApprovals[tokenId] */\n      0x20\n      mstore\n      0x40\n      swap1\n      keccak256\n        /* \"@openzeppelin/contracts/token/ERC721/ERC721.sol\":12842:12871  _tokenApprovals[tokenId] = to */\n      dup1\n      sload\n      not(sub(shl(0xa0, 0x01), 0x01))\n      and\n      sub(shl(0xa0, 0x01), 0x01)\n      dup5\n      and\n      swap1\n      dup2\n      or\n      swap1\n      swap2\n      sstore\n        /* \"@openzeppelin/contracts/token/ERC721/ERC721.sol\":12842:12866  _tokenApprovals[tokenId] */\n      dup2\n      swap1\n        /* \"@openzeppelin/contracts/token/ERC721/ERC721.sol\":12895:12918  ERC721.ownerOf(tokenId) */\n      tag_302\n        /* \"@openzeppelin/contracts/token/ERC721/ERC721.sol\":12842:12866  _tokenApprovals[tokenId] */\n      dup3\n        /* \"@openzeppelin/contracts/token/ERC721/ERC721.sol\":12895:12909  ERC721.ownerOf */\n      tag_74\n        /* \"@openzeppelin/contracts/token/ERC721/ERC721.sol\":12895:12918  ERC721.ownerOf(tokenId) */\n      jump\t// in\n    tag_302:\n      sub(shl(0xa0, 0x01), 0x01)\n        /* \"@openzeppelin/contracts/token/ERC721/ERC721.sol\":12886:12932  Approval(ERC721.ownerOf(tokenId), to, tokenId) */\n      and\n      0x8c5be1e5ebec7d5bd14f71427d1e84f3dd0314c0f7b2291e5b200ac8c7c3b925\n      mload(0x40)\n      mload(0x40)\n      dup1\n      swap2\n      sub\n      swap1\n      log4\n        /* \"@openzeppelin/contracts/token/ERC721/ERC721.sol\":12768:12939  function _approve(address to, uint256 tokenId) internal virtual {... */\n      pop\n      pop\n      jump\t// out\n        /* \"@openzeppelin/contracts/token/ERC721/ERC721.sol\":7540:7801  function _isApprovedOrOwner(address spender, uint256 tokenId) internal view virtual returns (bool) {... */\n    tag_196:\n        /* \"@openzeppelin/contracts/token/ERC721/ERC721.sol\":7633:7637  bool */\n      0x00\n        /* \"@openzeppelin/contracts/token/ERC721/ERC721.sol\":7649:7662  address owner */\n      dup1\n        /* \"@openzeppelin/contracts/token/ERC721/ERC721.sol\":7665:7688  ERC721.ownerOf(tokenId) */\n      tag_304\n        /* \"@openzeppelin/contracts/token/ERC721/ERC721.sol\":7680:7687  tokenId */\n      dup4\n        /* \"@openzeppelin/contracts/token/ERC721/ERC721.sol\":7665:7679  ERC721.ownerOf */\n      tag_74\n        /* \"@openzeppelin/contracts/token/ERC721/ERC721.sol\":7665:7688  ERC721.ownerOf(tokenId) */\n      jump\t// in\n    tag_304:\n        /* \"@openzeppelin/contracts/token/ERC721/ERC721.sol\":7649:7688  address owner = ERC721.ownerOf(tokenId) */\n      swap1\n      pop\n        /* \"@openzeppelin/contracts/token/ERC721/ERC721.sol\":7717:7722  owner */\n      dup1\n      sub(shl(0xa0, 0x01), 0x01)\n        /* \"@openzeppelin/contracts/token/ERC721/ERC721.sol\":7706:7722  spender == owner */\n      and\n        /* \"@openzeppelin/contracts/token/ERC721/ERC721.sol\":7706:7713  spender */\n      dup5\n      sub(shl(0xa0, 0x01), 0x01)\n        /* \"@openzeppelin/contracts/token/ERC721/ERC721.sol\":7706:7722  spender == owner */\n      and\n      eq\n        /* \"@openzeppelin/contracts/token/ERC721/ERC721.sol\":7706:7758  spender == owner || isApprovedForAll(owner, spender) */\n      dup1\n      tag_306\n      jumpi\n      pop\n        /* \"@openzeppelin/contracts/token/ERC721/ERC721.sol\":7726:7758  isApprovedForAll(owner, spender) */\n      tag_306\n        /* \"@openzeppelin/contracts/token/ERC721/ERC721.sol\":7743:7748  owner */\n      dup2\n        /* \"@openzeppelin/contracts/token/ERC721/ERC721.sol\":7750:7757  spender */\n      dup6\n        /* \"@openzeppelin/contracts/token/ERC721/ERC721.sol\":7726:7742  isApprovedForAll */\n      tag_139\n        /* \"@openzeppelin/contracts/token/ERC721/ERC721.sol\":7726:7758  isApprovedForAll(owner, spender) */\n      jump\t// in\n    tag_306:\n        /* \"@openzeppelin/contracts/token/ERC721/ERC721.sol\":7706:7793  spender == owner || isApprovedForAll(owner, spender) || getApproved(tokenId) == spender */\n      dup1\n      tag_307\n      jumpi\n      pop\n        /* \"@openzeppelin/contracts/token/ERC721/ERC721.sol\":7786:7793  spender */\n      dup4\n      sub(shl(0xa0, 0x01), 0x01)\n        /* \"@openzeppelin/contracts/token/ERC721/ERC721.sol\":7762:7793  getApproved(tokenId) == spender */\n      and\n        /* \"@openzeppelin/contracts/token/ERC721/ERC721.sol\":7762:7782  getApproved(tokenId) */\n      tag_308\n        /* \"@openzeppelin/contracts/token/ERC721/ERC721.sol\":7774:7781  tokenId */\n      dup5\n        /* \"@openzeppelin/contracts/token/ERC721/ERC721.sol\":7762:7773  getApproved */\n      tag_48\n        /* \"@openzeppelin/contracts/token/ERC721/ERC721.sol\":7762:7782  getApproved(tokenId) */\n      jump\t// in\n    tag_308:\n      sub(shl(0xa0, 0x01), 0x01)\n        /* \"@openzeppelin/contracts/token/ERC721/ERC721.sol\":7762:7793  getApproved(tokenId) == spender */\n      and\n      eq\n        /* \"@openzeppelin/contracts/token/ERC721/ERC721.sol\":7706:7793  spender == owner || isApprovedForAll(owner, spender) || getApproved(tokenId) == spender */\n    tag_307:\n        /* \"@openzeppelin/contracts/token/ERC721/ERC721.sol\":7698:7794  return (spender == owner || isApprovedForAll(owner, spender) || getApproved(tokenId) == spender) */\n      swap5\n        /* \"@openzeppelin/contracts/token/ERC721/ERC721.sol\":7540:7801  function _isApprovedOrOwner(address spender, uint256 tokenId) internal view virtual returns (bool) {... */\n      swap4\n      pop\n      pop\n      pop\n      pop\n      jump\t// out\n        /* \"@openzeppelin/contracts/token/ERC721/ERC721.sol\":11423:12656  function _transfer(... */\n    tag_201:\n        /* \"@openzeppelin/contracts/token/ERC721/ERC721.sol\":11577:11581  from */\n      dup3\n      sub(shl(0xa0, 0x01), 0x01)\n        /* \"@openzeppelin/contracts/token/ERC721/ERC721.sol\":11550:11581  ERC721.ownerOf(tokenId) == from */\n      and\n        /* \"@openzeppelin/contracts/token/ERC721/ERC721.sol\":11550:11573  ERC721.ownerOf(tokenId) */\n      tag_310\n        /* \"@openzeppelin/contracts/token/ERC721/ERC721.sol\":11565:11572  tokenId */\n      dup3\n        /* \"@openzeppelin/contracts/token/ERC721/ERC721.sol\":11550:11564  ERC721.ownerOf */\n      tag_74\n        /* \"@openzeppelin/contracts/token/ERC721/ERC721.sol\":11550:11573  ERC721.ownerOf(tokenId) */\n      jump\t// in\n    tag_310:\n      sub(shl(0xa0, 0x01), 0x01)\n        /* \"@openzeppelin/contracts/token/ERC721/ERC721.sol\":11550:11581  ERC721.ownerOf(tokenId) == from */\n      and\n      eq\n        /* \"@openzeppelin/contracts/token/ERC721/ERC721.sol\":11542:11623  require(ERC721.ownerOf(tokenId) == from, \"ERC721: transfer from incorrect owner\") */\n      tag_311\n      jumpi\n      mload(0x40)\n      shl(0xe5, 0x461bcd)\n      dup2\n      mstore\n      0x04\n      add\n      tag_178\n      swap1\n      tag_313\n      jump\t// in\n    tag_311:\n      sub(shl(0xa0, 0x01), 0x01)\n        /* \"@openzeppelin/contracts/token/ERC721/ERC721.sol\":11641:11657  to != address(0) */\n      dup3\n      and\n        /* \"@openzeppelin/contracts/token/ERC721/ERC721.sol\":11633:11698  require(to != address(0), \"ERC721: transfer to the zero address\") */\n      tag_314\n      jumpi\n      mload(0x40)\n      shl(0xe5, 0x461bcd)\n      dup2\n      mstore\n        /* \"#utility.yul\":15119:15121   */\n      0x20\n        /* \"@openzeppelin/contracts/token/ERC721/ERC721.sol\":11633:11698  require(to != address(0), \"ERC721: transfer to the zero address\") */\n      0x04\n      dup3\n      add\n        /* \"#utility.yul\":15101:15122   */\n      mstore\n        /* \"#utility.yul\":15158:15160   */\n      0x24\n        /* \"#utility.yul\":15138:15156   */\n      dup1\n      dup3\n      add\n        /* \"#utility.yul\":15131:15161   */\n      mstore\n        /* \"#utility.yul\":15197:15231   */\n      0x4552433732313a207472616e7366657220746f20746865207a65726f20616464\n        /* \"#utility.yul\":15177:15195   */\n      0x44\n      dup3\n      add\n        /* \"#utility.yul\":15170:15232   */\n      mstore\n      shl(0xe0, 0x72657373)\n        /* \"#utility.yul\":15248:15266   */\n      0x64\n      dup3\n      add\n        /* \"#utility.yul\":15241:15275   */\n      mstore\n        /* \"#utility.yul\":15292:15311   */\n      0x84\n      add\n        /* \"@openzeppelin/contracts/token/ERC721/ERC721.sol\":11633:11698  require(to != address(0), \"ERC721: transfer to the zero address\") */\n      tag_178\n        /* \"#utility.yul\":14917:15317   */\n      jump\n        /* \"@openzeppelin/contracts/token/ERC721/ERC721.sol\":11633:11698  require(to != address(0), \"ERC721: transfer to the zero address\") */\n    tag_314:\n        /* \"@openzeppelin/contracts/token/ERC721/ERC721.sol\":11878:11882  from */\n      dup3\n      sub(shl(0xa0, 0x01), 0x01)\n        /* \"@openzeppelin/contracts/token/ERC721/ERC721.sol\":11851:11882  ERC721.ownerOf(tokenId) == from */\n      and\n        /* \"@openzeppelin/contracts/token/ERC721/ERC721.sol\":11851:11874  ERC721.ownerOf(tokenId) */\n      tag_319\n        /* \"@openzeppelin/contracts/token/ERC721/ERC721.sol\":11866:11873  tokenId */\n      dup3\n        /* \"@openzeppelin/contracts/token/ERC721/ERC721.sol\":11851:11865  ERC721.ownerOf */\n      tag_74\n        /* \"@openzeppelin/contracts/token/ERC721/ERC721.sol\":11851:11874  ERC721.ownerOf(tokenId) */\n      jump\t// in\n    tag_319:\n      sub(shl(0xa0, 0x01), 0x01)\n        /* \"@openzeppelin/contracts/token/ERC721/ERC721.sol\":11851:11882  ERC721.ownerOf(tokenId) == from */\n      and\n      eq\n        /* \"@openzeppelin/contracts/token/ERC721/ERC721.sol\":11843:11924  require(ERC721.ownerOf(tokenId) == from, \"ERC721: transfer from incorrect owner\") */\n      tag_320\n      jumpi\n      mload(0x40)\n      shl(0xe5, 0x461bcd)\n      dup2\n      mstore\n      0x04\n      add\n      tag_178\n      swap1\n      tag_313\n      jump\t// in\n    tag_320:\n        /* \"@openzeppelin/contracts/token/ERC721/ERC721.sol\":11993:12017  _tokenApprovals[tokenId] */\n      0x00\n      dup2\n      dup2\n      mstore\n        /* \"@openzeppelin/contracts/token/ERC721/ERC721.sol\":11993:12008  _tokenApprovals */\n      0x04\n        /* \"@openzeppelin/contracts/token/ERC721/ERC721.sol\":11993:12017  _tokenApprovals[tokenId] */\n      0x20\n      swap1\n      dup2\n      mstore\n      0x40\n      dup1\n      dup4\n      keccak256\n        /* \"@openzeppelin/contracts/token/ERC721/ERC721.sol\":11986:12017  delete _tokenApprovals[tokenId] */\n      dup1\n      sload\n      not(sub(shl(0xa0, 0x01), 0x01))\n      swap1\n      dup2\n      and\n      swap1\n      swap2\n      sstore\n      sub(shl(0xa0, 0x01), 0x01)\n        /* \"@openzeppelin/contracts/token/ERC721/ERC721.sol\":12461:12476  _balances[from] */\n      dup8\n      dup2\n      and\n      dup1\n      dup7\n      mstore\n        /* \"@openzeppelin/contracts/token/ERC721/ERC721.sol\":12461:12470  _balances */\n      0x03\n        /* \"@openzeppelin/contracts/token/ERC721/ERC721.sol\":12461:12476  _balances[from] */\n      dup6\n      mstore\n      dup4\n      dup7\n      keccak256\n        /* \"@openzeppelin/contracts/token/ERC721/ERC721.sol\":12461:12481  _balances[from] -= 1 */\n      dup1\n      sload\n      not(0x00)\n      add\n      swap1\n      sstore\n        /* \"@openzeppelin/contracts/token/ERC721/ERC721.sol\":12495:12508  _balances[to] */\n      swap1\n      dup8\n      and\n      dup1\n      dup7\n      mstore\n      dup4\n      dup7\n      keccak256\n        /* \"@openzeppelin/contracts/token/ERC721/ERC721.sol\":12495:12513  _balances[to] += 1 */\n      dup1\n      sload\n        /* \"@openzeppelin/contracts/token/ERC721/ERC721.sol\":11986:12017  delete _tokenApprovals[tokenId] */\n      0x01\n        /* \"@openzeppelin/contracts/token/ERC721/ERC721.sol\":12495:12513  _balances[to] += 1 */\n      add\n      swap1\n      sstore\n        /* \"@openzeppelin/contracts/token/ERC721/ERC721.sol\":12533:12549  _owners[tokenId] */\n      dup7\n      dup7\n      mstore\n        /* \"@openzeppelin/contracts/token/ERC721/ERC721.sol\":12533:12540  _owners */\n      0x02\n        /* \"@openzeppelin/contracts/token/ERC721/ERC721.sol\":12533:12549  _owners[tokenId] */\n      swap1\n      swap5\n      mstore\n      dup3\n      dup6\n      keccak256\n        /* \"@openzeppelin/contracts/token/ERC721/ERC721.sol\":12533:12554  _owners[tokenId] = to */\n      dup1\n      sload\n      swap1\n      swap3\n      and\n      dup5\n      or\n      swap1\n      swap2\n      sstore\n        /* \"@openzeppelin/contracts/token/ERC721/ERC721.sol\":12570:12597  Transfer(from, to, tokenId) */\n      swap1\n      mload\n        /* \"@openzeppelin/contracts/token/ERC721/ERC721.sol\":12009:12016  tokenId */\n      dup5\n      swap4\n        /* \"@openzeppelin/contracts/token/ERC721/ERC721.sol\":12570:12597  Transfer(from, to, tokenId) */\n      0xddf252ad1be2c89b69c2b068fc378daa952ba7f163c4a11628f55a4df523b3ef\n      swap2\n      log4\n        /* \"test2/TokenMaster.sol\":1471:1998  {... */\n      pop\n        /* \"test2/TokenMaster.sol\":1410:1998  function safeMint(uint256 _id, uint256 _seat) public payable {... */\n      pop\n      pop\n      jump\t// out\n        /* \"@openzeppelin/contracts/access/Ownable.sol\":1359:1489  function _checkOwner() internal view virtual {... */\n    tag_216:\n        /* \"@openzeppelin/contracts/access/Ownable.sol\":1273:1279  _owner */\n      and(sub(shl(0xa0, 0x01), 0x01), sload(0x06))\n        /* \"@openzeppelin/contracts/utils/Context.sol\":719:729  msg.sender */\n      caller\n        /* \"@openzeppelin/contracts/access/Ownable.sol\":1422:1445  owner() == _msgSender() */\n      eq\n        /* \"@openzeppelin/contracts/access/Ownable.sol\":1414:1482  require(owner() == _msgSender(), \"Ownable: caller is not the owner\") */\n      tag_218\n      jumpi\n      mload(0x40)\n      shl(0xe5, 0x461bcd)\n      dup2\n      mstore\n        /* \"#utility.yul\":15524:15526   */\n      0x20\n        /* \"@openzeppelin/contracts/access/Ownable.sol\":1414:1482  require(owner() == _msgSender(), \"Ownable: caller is not the owner\") */\n      0x04\n      dup3\n      add\n        /* \"#utility.yul\":15506:15527   */\n      dup2\n      swap1\n      mstore\n        /* \"#utility.yul\":15543:15561   */\n      0x24\n      dup3\n      add\n        /* \"#utility.yul\":15536:15566   */\n      mstore\n        /* \"#utility.yul\":15602:15636   */\n      0x4f776e61626c653a2063616c6c6572206973206e6f7420746865206f776e6572\n        /* \"#utility.yul\":15582:15600   */\n      0x44\n      dup3\n      add\n        /* \"#utility.yul\":15575:15637   */\n      mstore\n        /* \"#utility.yul\":15654:15672   */\n      0x64\n      add\n        /* \"@openzeppelin/contracts/access/Ownable.sol\":1414:1482  require(owner() == _msgSender(), \"Ownable: caller is not the owner\") */\n      tag_178\n        /* \"#utility.yul\":15322:15678   */\n      jump\n        /* \"@openzeppelin/contracts/access/Ownable.sol\":2433:2620  function _transferOwnership(address newOwner) internal virtual {... */\n    tag_219:\n        /* \"@openzeppelin/contracts/access/Ownable.sol\":2525:2531  _owner */\n      0x06\n      dup1\n      sload\n      sub(shl(0xa0, 0x01), 0x01)\n        /* \"@openzeppelin/contracts/access/Ownable.sol\":2541:2558  _owner = newOwner */\n      dup4\n      dup2\n      and\n      not(sub(shl(0xa0, 0x01), 0x01))\n      dup4\n      and\n      dup2\n      or\n      swap1\n      swap4\n      sstore\n        /* \"@openzeppelin/contracts/access/Ownable.sol\":2573:2613  OwnershipTransferred(oldOwner, newOwner) */\n      mload(0x40)\n        /* \"@openzeppelin/contracts/access/Ownable.sol\":2525:2531  _owner */\n      swap2\n      and\n      swap2\n        /* \"@openzeppelin/contracts/access/Ownable.sol\":2541:2558  _owner = newOwner */\n      swap1\n        /* \"@openzeppelin/contracts/access/Ownable.sol\":2525:2531  _owner */\n      dup3\n      swap1\n        /* \"@openzeppelin/contracts/access/Ownable.sol\":2573:2613  OwnershipTransferred(oldOwner, newOwner) */\n      0x8be0079c531659141344cd1fd0a4f28419497f9722a3daafe3b4186f6b6457e0\n      swap1\n        /* \"@openzeppelin/contracts/access/Ownable.sol\":2506:2522  address oldOwner */\n      0x00\n      swap1\n        /* \"@openzeppelin/contracts/access/Ownable.sol\":2573:2613  OwnershipTransferred(oldOwner, newOwner) */\n      log3\n        /* \"@openzeppelin/contracts/access/Ownable.sol\":2496:2620  {... */\n      pop\n        /* \"@openzeppelin/contracts/access/Ownable.sol\":2433:2620  function _transferOwnership(address newOwner) internal virtual {... */\n      pop\n      jump\t// out\n        /* \"@openzeppelin/contracts/token/ERC721/ERC721.sol\":13075:13382  function _setApprovalForAll(... */\n    tag_263:\n        /* \"@openzeppelin/contracts/token/ERC721/ERC721.sol\":13225:13233  operator */\n      dup2\n      sub(shl(0xa0, 0x01), 0x01)\n        /* \"@openzeppelin/contracts/token/ERC721/ERC721.sol\":13216:13233  owner != operator */\n      and\n        /* \"@openzeppelin/contracts/token/ERC721/ERC721.sol\":13216:13221  owner */\n      dup4\n      sub(shl(0xa0, 0x01), 0x01)\n        /* \"@openzeppelin/contracts/token/ERC721/ERC721.sol\":13216:13233  owner != operator */\n      and\n      sub\n        /* \"@openzeppelin/contracts/token/ERC721/ERC721.sol\":13208:13263  require(owner != operator, \"ERC721: approve to caller\") */\n      tag_333\n      jumpi\n      mload(0x40)\n      shl(0xe5, 0x461bcd)\n      dup2\n      mstore\n        /* \"#utility.yul\":15885:15887   */\n      0x20\n        /* \"@openzeppelin/contracts/token/ERC721/ERC721.sol\":13208:13263  require(owner != operator, \"ERC721: approve to caller\") */\n      0x04\n      dup3\n      add\n        /* \"#utility.yul\":15867:15888   */\n      mstore\n        /* \"#utility.yul\":15924:15926   */\n      0x19\n        /* \"#utility.yul\":15904:15922   */\n      0x24\n      dup3\n      add\n        /* \"#utility.yul\":15897:15927   */\n      mstore\n        /* \"#utility.yul\":15963:15990   */\n      0x4552433732313a20617070726f766520746f2063616c6c657200000000000000\n        /* \"#utility.yul\":15943:15961   */\n      0x44\n      dup3\n      add\n        /* \"#utility.yul\":15936:15991   */\n      mstore\n        /* \"#utility.yul\":16008:16026   */\n      0x64\n      add\n        /* \"@openzeppelin/contracts/token/ERC721/ERC721.sol\":13208:13263  require(owner != operator, \"ERC721: approve to caller\") */\n      tag_178\n        /* \"#utility.yul\":15683:16032   */\n      jump\n        /* \"@openzeppelin/contracts/token/ERC721/ERC721.sol\":13208:13263  require(owner != operator, \"ERC721: approve to caller\") */\n    tag_333:\n      sub(shl(0xa0, 0x01), 0x01)\n        /* \"@openzeppelin/contracts/token/ERC721/ERC721.sol\":13273:13298  _operatorApprovals[owner] */\n      dup4\n      dup2\n      and\n      0x00\n      dup2\n      dup2\n      mstore\n        /* \"@openzeppelin/contracts/token/ERC721/ERC721.sol\":13273:13291  _operatorApprovals */\n      0x05\n        /* \"@openzeppelin/contracts/token/ERC721/ERC721.sol\":13273:13298  _operatorApprovals[owner] */\n      0x20\n      swap1\n      dup2\n      mstore\n      0x40\n      dup1\n      dup4\n      keccak256\n        /* \"@openzeppelin/contracts/token/ERC721/ERC721.sol\":13273:13308  _operatorApprovals[owner][operator] */\n      swap5\n      dup8\n      and\n      dup1\n      dup5\n      mstore\n      swap5\n      dup3\n      mstore\n      swap2\n      dup3\n      swap1\n      keccak256\n        /* \"@openzeppelin/contracts/token/ERC721/ERC721.sol\":13273:13319  _operatorApprovals[owner][operator] = approved */\n      dup1\n      sload\n      not(0xff)\n      and\n      dup7\n      iszero\n      iszero\n      swap1\n      dup2\n      or\n      swap1\n      swap2\n      sstore\n        /* \"@openzeppelin/contracts/token/ERC721/ERC721.sol\":13334:13375  ApprovalForAll(owner, operator, approved) */\n      swap2\n      mload\n        /* \"#utility.yul\":540:581   */\n      swap2\n      dup3\n      mstore\n        /* \"@openzeppelin/contracts/token/ERC721/ERC721.sol\":13334:13375  ApprovalForAll(owner, operator, approved) */\n      0x17307eab39ab6107e8899845ad3d59bd9653f200f220920489ca2b5937696c31\n      swap2\n        /* \"#utility.yul\":513:531   */\n      add\n        /* \"@openzeppelin/contracts/token/ERC721/ERC721.sol\":13334:13375  ApprovalForAll(owner, operator, approved) */\n      mload(0x40)\n      dup1\n      swap2\n      sub\n      swap1\n      log3\n        /* \"@openzeppelin/contracts/token/ERC721/ERC721.sol\":13075:13382  function _setApprovalForAll(... */\n      pop\n      pop\n      pop\n      jump\t// out\n        /* \"@openzeppelin/contracts/token/ERC721/ERC721.sol\":6424:6729  function _safeTransfer(... */\n    tag_270:\n        /* \"@openzeppelin/contracts/token/ERC721/ERC721.sol\":6574:6602  _transfer(from, to, tokenId) */\n      tag_338\n        /* \"@openzeppelin/contracts/token/ERC721/ERC721.sol\":6584:6588  from */\n      dup5\n        /* \"@openzeppelin/contracts/token/ERC721/ERC721.sol\":6590:6592  to */\n      dup5\n        /* \"@openzeppelin/contracts/token/ERC721/ERC721.sol\":6594:6601  tokenId */\n      dup5\n        /* \"@openzeppelin/contracts/token/ERC721/ERC721.sol\":6574:6583  _transfer */\n      tag_201\n        /* \"@openzeppelin/contracts/token/ERC721/ERC721.sol\":6574:6602  _transfer(from, to, tokenId) */\n      jump\t// in\n    tag_338:\n        /* \"@openzeppelin/contracts/token/ERC721/ERC721.sol\":6620:6667  _checkOnERC721Received(from, to, tokenId, data) */\n      tag_339\n        /* \"@openzeppelin/contracts/token/ERC721/ERC721.sol\":6643:6647  from */\n      dup5\n        /* \"@openzeppelin/contracts/token/ERC721/ERC721.sol\":6649:6651  to */\n      dup5\n        /* \"@openzeppelin/contracts/token/ERC721/ERC721.sol\":6653:6660  tokenId */\n      dup5\n        /* \"@openzeppelin/contracts/token/ERC721/ERC721.sol\":6662:6666  data */\n      dup5\n        /* \"@openzeppelin/contracts/token/ERC721/ERC721.sol\":6620:6642  _checkOnERC721Received */\n      tag_340\n        /* \"@openzeppelin/contracts/token/ERC721/ERC721.sol\":6620:6667  _checkOnERC721Received(from, to, tokenId, data) */\n      jump\t// in\n    tag_339:\n        /* \"@openzeppelin/contracts/token/ERC721/ERC721.sol\":6612:6722  require(_checkOnERC721Received(from, to, tokenId, data), \"ERC721: transfer to non ERC721Receiver implementer\") */\n      tag_269\n      jumpi\n      mload(0x40)\n      shl(0xe5, 0x461bcd)\n      dup2\n      mstore\n      0x04\n      add\n      tag_178\n      swap1\n      tag_343\n      jump\t// in\n        /* \"@openzeppelin/contracts/utils/Strings.sol\":415:1111  function toString(uint256 value) internal pure returns (string memory) {... */\n    tag_278:\n        /* \"@openzeppelin/contracts/utils/Strings.sol\":471:484  string memory */\n      0x60\n        /* \"@openzeppelin/contracts/utils/Strings.sol\":520:534  uint256 length */\n      0x00\n        /* \"@openzeppelin/contracts/utils/Strings.sol\":537:554  Math.log10(value) */\n      tag_346\n        /* \"@openzeppelin/contracts/utils/Strings.sol\":548:553  value */\n      dup4\n        /* \"@openzeppelin/contracts/utils/Strings.sol\":537:547  Math.log10 */\n      tag_347\n        /* \"@openzeppelin/contracts/utils/Strings.sol\":537:554  Math.log10(value) */\n      jump\t// in\n    tag_346:\n        /* \"@openzeppelin/contracts/utils/Strings.sol\":557:558  1 */\n      0x01\n        /* \"@openzeppelin/contracts/utils/Strings.sol\":537:558  Math.log10(value) + 1 */\n      add\n        /* \"@openzeppelin/contracts/utils/Strings.sol\":520:558  uint256 length = Math.log10(value) + 1 */\n      swap1\n      pop\n        /* \"@openzeppelin/contracts/utils/Strings.sol\":572:592  string memory buffer */\n      0x00\n        /* \"@openzeppelin/contracts/utils/Strings.sol\":606:612  length */\n      dup2\n        /* \"@openzeppelin/contracts/utils/Strings.sol\":595:613  new string(length) */\n      0xffffffffffffffff\n      dup2\n      gt\n      iszero\n      tag_349\n      jumpi\n      tag_349\n      tag_350\n      jump\t// in\n    tag_349:\n      mload(0x40)\n      swap1\n      dup1\n      dup3\n      mstore\n      dup1\n      0x1f\n      add\n      not(0x1f)\n      and\n      0x20\n      add\n      dup3\n      add\n      0x40\n      mstore\n      dup1\n      iszero\n      tag_351\n      jumpi\n      0x20\n      dup3\n      add\n      dup2\n      dup1\n      calldatasize\n      dup4\n      calldatacopy\n      add\n      swap1\n      pop\n    tag_351:\n      pop\n        /* \"@openzeppelin/contracts/utils/Strings.sol\":572:613  string memory buffer = new string(length) */\n      swap1\n      pop\n        /* \"@openzeppelin/contracts/utils/Strings.sol\":733:761  add(buffer, add(32, length)) */\n      dup2\n      dup2\n      add\n        /* \"@openzeppelin/contracts/utils/Strings.sol\":749:751  32 */\n      0x20\n        /* \"@openzeppelin/contracts/utils/Strings.sol\":733:761  add(buffer, add(32, length)) */\n      add\n        /* \"@openzeppelin/contracts/utils/Strings.sol\":788:1068  while (true) {... */\n    tag_352:\n      not(0x00)\n        /* \"@openzeppelin/contracts/utils/Strings.sol\":819:824  ptr-- */\n      add\n      shl(0x81, 0x181899199a1a9b1b9c1cb0b131b232b3)\n        /* \"@openzeppelin/contracts/utils/Strings.sol\":953:955  10 */\n      0x0a\n        /* \"@openzeppelin/contracts/utils/Strings.sol\":942:956  mod(value, 10) */\n      dup7\n      mod\n        /* \"@openzeppelin/contracts/utils/Strings.sol\":937:967  byte(mod(value, 10), _SYMBOLS) */\n      byte\n        /* \"@openzeppelin/contracts/utils/Strings.sol\":819:824  ptr-- */\n      dup2\n        /* \"@openzeppelin/contracts/utils/Strings.sol\":924:968  mstore8(ptr, byte(mod(value, 10), _SYMBOLS)) */\n      mstore8\n        /* \"@openzeppelin/contracts/utils/Strings.sol\":1012:1014  10 */\n      0x0a\n        /* \"@openzeppelin/contracts/utils/Strings.sol\":1003:1014  value /= 10 */\n      dup6\n      div\n      swap5\n      pop\n        /* \"@openzeppelin/contracts/utils/Strings.sol\":1032:1053  if (value == 0) break */\n      dup5\n        /* \"@openzeppelin/contracts/utils/Strings.sol\":788:1068  while (true) {... */\n      tag_352\n        /* \"@openzeppelin/contracts/utils/Strings.sol\":1032:1053  if (value == 0) break */\n      jumpi\n      pop\n        /* \"@openzeppelin/contracts/utils/Strings.sol\":1088:1094  buffer */\n      swap4\n        /* \"@openzeppelin/contracts/utils/Strings.sol\":415:1111  function toString(uint256 value) internal pure returns (string memory) {... */\n      swap3\n      pop\n      pop\n      pop\n      jump\t// out\n        /* \"@openzeppelin/contracts/token/ERC721/ERC721.sol\":8460:8769  function _safeMint(... */\n    tag_294:\n        /* \"@openzeppelin/contracts/token/ERC721/ERC721.sol\":8584:8602  _mint(to, tokenId) */\n      tag_359\n        /* \"@openzeppelin/contracts/token/ERC721/ERC721.sol\":8590:8592  to */\n      dup4\n        /* \"@openzeppelin/contracts/token/ERC721/ERC721.sol\":8594:8601  tokenId */\n      dup4\n        /* \"@openzeppelin/contracts/token/ERC721/ERC721.sol\":8584:8589  _mint */\n      tag_360\n        /* \"@openzeppelin/contracts/token/ERC721/ERC721.sol\":8584:8602  _mint(to, tokenId) */\n      jump\t// in\n    tag_359:\n        /* \"@openzeppelin/contracts/token/ERC721/ERC721.sol\":8633:8686  _checkOnERC721Received(address(0), to, tokenId, data) */\n      tag_361\n        /* \"@openzeppelin/contracts/token/ERC721/ERC721.sol\":8664:8665  0 */\n      0x00\n        /* \"@openzeppelin/contracts/token/ERC721/ERC721.sol\":8668:8670  to */\n      dup5\n        /* \"@openzeppelin/contracts/token/ERC721/ERC721.sol\":8672:8679  tokenId */\n      dup5\n        /* \"@openzeppelin/contracts/token/ERC721/ERC721.sol\":8681:8685  data */\n      dup5\n        /* \"@openzeppelin/contracts/token/ERC721/ERC721.sol\":8633:8655  _checkOnERC721Received */\n      tag_340\n        /* \"@openzeppelin/contracts/token/ERC721/ERC721.sol\":8633:8686  _checkOnERC721Received(address(0), to, tokenId, data) */\n      jump\t// in\n    tag_361:\n        /* \"@openzeppelin/contracts/token/ERC721/ERC721.sol\":8612:8762  require(... */\n      tag_163\n      jumpi\n      mload(0x40)\n      shl(0xe5, 0x461bcd)\n      dup2\n      mstore\n      0x04\n      add\n      tag_178\n      swap1\n      tag_343\n      jump\t// in\n        /* \"@openzeppelin/contracts/token/ERC721/ERC721.sol\":14151:14982  function _checkOnERC721Received(... */\n    tag_340:\n        /* \"@openzeppelin/contracts/token/ERC721/ERC721.sol\":14300:14304  bool */\n      0x00\n      sub(shl(0xa0, 0x01), 0x01)\n        /* \"@openzeppelin/contracts/token/ERC721/ERC721.sol\":14320:14333  to.isContract */\n      dup5\n      and\n        /* \"@openzeppelin/contracts/utils/Address.sol\":1465:1484  account.code.length */\n      extcodesize\n        /* \"@openzeppelin/contracts/utils/Address.sol\":1465:1488  account.code.length > 0 */\n      iszero\n        /* \"@openzeppelin/contracts/token/ERC721/ERC721.sol\":14316:14976  if (to.isContract()) {... */\n      tag_371\n      jumpi\n        /* \"@openzeppelin/contracts/token/ERC721/ERC721.sol\":14355:14426  IERC721Receiver(to).onERC721Received(_msgSender(), from, tokenId, data) */\n      mload(0x40)\n      shl(0xe1, 0x0a85bd01)\n      dup2\n      mstore\n      sub(shl(0xa0, 0x01), 0x01)\n        /* \"@openzeppelin/contracts/token/ERC721/ERC721.sol\":14355:14391  IERC721Receiver(to).onERC721Received */\n      dup6\n      and\n      swap1\n      0x150b7a02\n      swap1\n        /* \"@openzeppelin/contracts/token/ERC721/ERC721.sol\":14355:14426  IERC721Receiver(to).onERC721Received(_msgSender(), from, tokenId, data) */\n      tag_373\n      swap1\n        /* \"@openzeppelin/contracts/utils/Context.sol\":719:729  msg.sender */\n      caller\n      swap1\n        /* \"@openzeppelin/contracts/token/ERC721/ERC721.sol\":14406:14410  from */\n      dup10\n      swap1\n        /* \"@openzeppelin/contracts/token/ERC721/ERC721.sol\":14412:14419  tokenId */\n      dup9\n      swap1\n        /* \"@openzeppelin/contracts/token/ERC721/ERC721.sol\":14421:14425  data */\n      dup9\n      swap1\n        /* \"@openzeppelin/contracts/token/ERC721/ERC721.sol\":14355:14426  IERC721Receiver(to).onERC721Received(_msgSender(), from, tokenId, data) */\n      0x04\n      add\n      tag_374\n      jump\t// in\n    tag_373:\n      0x20\n      mload(0x40)\n      dup1\n      dup4\n      sub\n      dup2\n      0x00\n      dup8\n      gas\n      call\n      swap3\n      pop\n      pop\n      pop\n      dup1\n      iszero\n      tag_375\n      jumpi\n      pop\n      0x40\n      dup1\n      mload\n      0x1f\n      returndatasize\n      swap1\n      dup2\n      add\n      not(0x1f)\n      and\n      dup3\n      add\n      swap1\n      swap3\n      mstore\n      tag_376\n      swap2\n      dup2\n      add\n      swap1\n      tag_377\n      jump\t// in\n    tag_376:\n      0x01\n    tag_375:\n        /* \"@openzeppelin/contracts/token/ERC721/ERC721.sol\":14351:14924  try IERC721Receiver(to).onERC721Received(_msgSender(), from, tokenId, data) returns (bytes4 retval) {... */\n      tag_378\n      jumpi\n      returndatasize\n      dup1\n      dup1\n      iszero\n      tag_383\n      jumpi\n      mload(0x40)\n      swap2\n      pop\n      and(add(returndatasize, 0x3f), not(0x1f))\n      dup3\n      add\n      0x40\n      mstore\n      returndatasize\n      dup3\n      mstore\n      returndatasize\n      0x00\n      0x20\n      dup5\n      add\n      returndatacopy\n      jump(tag_382)\n    tag_383:\n      0x60\n      swap2\n      pop\n    tag_382:\n      pop\n        /* \"@openzeppelin/contracts/token/ERC721/ERC721.sol\":14593:14599  reason */\n      dup1\n        /* \"@openzeppelin/contracts/token/ERC721/ERC721.sol\":14593:14606  reason.length */\n      mload\n        /* \"@openzeppelin/contracts/token/ERC721/ERC721.sol\":14610:14611  0 */\n      0x00\n        /* \"@openzeppelin/contracts/token/ERC721/ERC721.sol\":14593:14611  reason.length == 0 */\n      sub\n        /* \"@openzeppelin/contracts/token/ERC721/ERC721.sol\":14589:14910  if (reason.length == 0) {... */\n      tag_384\n      jumpi\n        /* \"@openzeppelin/contracts/token/ERC721/ERC721.sol\":14635:14695  revert(\"ERC721: transfer to non ERC721Receiver implementer\") */\n      mload(0x40)\n      shl(0xe5, 0x461bcd)\n      dup2\n      mstore\n      0x04\n      add\n      tag_178\n      swap1\n      tag_343\n      jump\t// in\n        /* \"@openzeppelin/contracts/token/ERC721/ERC721.sol\":14589:14910  if (reason.length == 0) {... */\n    tag_384:\n        /* \"@openzeppelin/contracts/token/ERC721/ERC721.sol\":14862:14868  reason */\n      dup1\n        /* \"@openzeppelin/contracts/token/ERC721/ERC721.sol\":14856:14869  mload(reason) */\n      mload\n        /* \"@openzeppelin/contracts/token/ERC721/ERC721.sol\":14847:14853  reason */\n      dup2\n        /* \"@openzeppelin/contracts/token/ERC721/ERC721.sol\":14843:14845  32 */\n      0x20\n        /* \"@openzeppelin/contracts/token/ERC721/ERC721.sol\":14839:14854  add(32, reason) */\n      add\n        /* \"@openzeppelin/contracts/token/ERC721/ERC721.sol\":14832:14870  revert(add(32, reason), mload(reason)) */\n      revert\n        /* \"@openzeppelin/contracts/token/ERC721/ERC721.sol\":14351:14924  try IERC721Receiver(to).onERC721Received(_msgSender(), from, tokenId, data) returns (bytes4 retval) {... */\n    tag_378:\n      not(sub(shl(0xe0, 0x01), 0x01))\n        /* \"@openzeppelin/contracts/token/ERC721/ERC721.sol\":14476:14527  retval == IERC721Receiver.onERC721Received.selector */\n      and\n      shl(0xe1, 0x0a85bd01)\n      eq\n      swap1\n      pop\n        /* \"@openzeppelin/contracts/token/ERC721/ERC721.sol\":14469:14527  return retval == IERC721Receiver.onERC721Received.selector */\n      jump(tag_307)\n        /* \"@openzeppelin/contracts/token/ERC721/ERC721.sol\":14316:14976  if (to.isContract()) {... */\n    tag_371:\n      pop\n        /* \"@openzeppelin/contracts/token/ERC721/ERC721.sol\":14961:14965  true */\n      0x01\n        /* \"@openzeppelin/contracts/token/ERC721/ERC721.sol\":14151:14982  function _checkOnERC721Received(... */\n      swap5\n      swap4\n      pop\n      pop\n      pop\n      pop\n      jump\t// out\n        /* \"@openzeppelin/contracts/utils/math/Math.sol\":9889:10779  function log10(uint256 value) internal pure returns (uint256) {... */\n    tag_347:\n        /* \"@openzeppelin/contracts/utils/math/Math.sol\":9942:9949  uint256 */\n      0x00\n      dup1\n      shl(0x40, 0x184f03e93ff9f4daa797ed6e38ed64bf6a1f01)\n        /* \"@openzeppelin/contracts/utils/math/Math.sol\":10017:10032  value >= 10**64 */\n      dup4\n      lt\n        /* \"@openzeppelin/contracts/utils/math/Math.sol\":10013:10112  if (value >= 10**64) {... */\n      tag_390\n      jumpi\n      shl(0x40, 0x184f03e93ff9f4daa797ed6e38ed64bf6a1f01)\n        /* \"@openzeppelin/contracts/utils/math/Math.sol\":10052:10067  value /= 10**64 */\n      dup4\n      div\n      swap3\n      pop\n        /* \"@openzeppelin/contracts/utils/math/Math.sol\":10095:10097  64 */\n      0x40\n        /* \"@openzeppelin/contracts/utils/math/Math.sol\":10085:10097  result += 64 */\n      add\n        /* \"@openzeppelin/contracts/utils/math/Math.sol\":10013:10112  if (value >= 10**64) {... */\n    tag_390:\n        /* \"@openzeppelin/contracts/utils/math/Math.sol\":10138:10144  10**32 */\n      0x04ee2d6d415b85acef8100000000\n        /* \"@openzeppelin/contracts/utils/math/Math.sol\":10129:10134  value */\n      dup4\n        /* \"@openzeppelin/contracts/utils/math/Math.sol\":10129:10144  value >= 10**32 */\n      lt\n        /* \"@openzeppelin/contracts/utils/math/Math.sol\":10125:10224  if (value >= 10**32) {... */\n      tag_393\n      jumpi\n        /* \"@openzeppelin/contracts/utils/math/Math.sol\":10173:10179  10**32 */\n      0x04ee2d6d415b85acef8100000000\n        /* \"@openzeppelin/contracts/utils/math/Math.sol\":10164:10179  value /= 10**32 */\n      dup4\n      div\n      swap3\n      pop\n        /* \"@openzeppelin/contracts/utils/math/Math.sol\":10207:10209  32 */\n      0x20\n        /* \"@openzeppelin/contracts/utils/math/Math.sol\":10197:10209  result += 32 */\n      add\n        /* \"@openzeppelin/contracts/utils/math/Math.sol\":10125:10224  if (value >= 10**32) {... */\n    tag_393:\n        /* \"@openzeppelin/contracts/utils/math/Math.sol\":10250:10256  10**16 */\n      0x2386f26fc10000\n        /* \"@openzeppelin/contracts/utils/math/Math.sol\":10241:10246  value */\n      dup4\n        /* \"@openzeppelin/contracts/utils/math/Math.sol\":10241:10256  value >= 10**16 */\n      lt\n        /* \"@openzeppelin/contracts/utils/math/Math.sol\":10237:10336  if (value >= 10**16) {... */\n      tag_396\n      jumpi\n        /* \"@openzeppelin/contracts/utils/math/Math.sol\":10285:10291  10**16 */\n      0x2386f26fc10000\n        /* \"@openzeppelin/contracts/utils/math/Math.sol\":10276:10291  value /= 10**16 */\n      dup4\n      div\n      swap3\n      pop\n        /* \"@openzeppelin/contracts/utils/math/Math.sol\":10319:10321  16 */\n      0x10\n        /* \"@openzeppelin/contracts/utils/math/Math.sol\":10309:10321  result += 16 */\n      add\n        /* \"@openzeppelin/contracts/utils/math/Math.sol\":10237:10336  if (value >= 10**16) {... */\n    tag_396:\n        /* \"@openzeppelin/contracts/utils/math/Math.sol\":10362:10367  10**8 */\n      0x05f5e100\n        /* \"@openzeppelin/contracts/utils/math/Math.sol\":10353:10358  value */\n      dup4\n        /* \"@openzeppelin/contracts/utils/math/Math.sol\":10353:10367  value >= 10**8 */\n      lt\n        /* \"@openzeppelin/contracts/utils/math/Math.sol\":10349:10445  if (value >= 10**8) {... */\n      tag_399\n      jumpi\n        /* \"@openzeppelin/contracts/utils/math/Math.sol\":10396:10401  10**8 */\n      0x05f5e100\n        /* \"@openzeppelin/contracts/utils/math/Math.sol\":10387:10401  value /= 10**8 */\n      dup4\n      div\n      swap3\n      pop\n        /* \"@openzeppelin/contracts/utils/math/Math.sol\":10429:10430  8 */\n      0x08\n        /* \"@openzeppelin/contracts/utils/math/Math.sol\":10419:10430  result += 8 */\n      add\n        /* \"@openzeppelin/contracts/utils/math/Math.sol\":10349:10445  if (value >= 10**8) {... */\n    tag_399:\n        /* \"@openzeppelin/contracts/utils/math/Math.sol\":10471:10476  10**4 */\n      0x2710\n        /* \"@openzeppelin/contracts/utils/math/Math.sol\":10462:10467  value */\n      dup4\n        /* \"@openzeppelin/contracts/utils/math/Math.sol\":10462:10476  value >= 10**4 */\n      lt\n        /* \"@openzeppelin/contracts/utils/math/Math.sol\":10458:10554  if (value >= 10**4) {... */\n      tag_402\n      jumpi\n        /* \"@openzeppelin/contracts/utils/math/Math.sol\":10505:10510  10**4 */\n      0x2710\n        /* \"@openzeppelin/contracts/utils/math/Math.sol\":10496:10510  value /= 10**4 */\n      dup4\n      div\n      swap3\n      pop\n        /* \"@openzeppelin/contracts/utils/math/Math.sol\":10538:10539  4 */\n      0x04\n        /* \"@openzeppelin/contracts/utils/math/Math.sol\":10528:10539  result += 4 */\n      add\n        /* \"@openzeppelin/contracts/utils/math/Math.sol\":10458:10554  if (value >= 10**4) {... */\n    tag_402:\n        /* \"@openzeppelin/contracts/utils/math/Math.sol\":10580:10585  10**2 */\n      0x64\n        /* \"@openzeppelin/contracts/utils/math/Math.sol\":10571:10576  value */\n      dup4\n        /* \"@openzeppelin/contracts/utils/math/Math.sol\":10571:10585  value >= 10**2 */\n      lt\n        /* \"@openzeppelin/contracts/utils/math/Math.sol\":10567:10663  if (value >= 10**2) {... */\n      tag_405\n      jumpi\n        /* \"@openzeppelin/contracts/utils/math/Math.sol\":10614:10619  10**2 */\n      0x64\n        /* \"@openzeppelin/contracts/utils/math/Math.sol\":10605:10619  value /= 10**2 */\n      dup4\n      div\n      swap3\n      pop\n        /* \"@openzeppelin/contracts/utils/math/Math.sol\":10647:10648  2 */\n      0x02\n        /* \"@openzeppelin/contracts/utils/math/Math.sol\":10637:10648  result += 2 */\n      add\n        /* \"@openzeppelin/contracts/utils/math/Math.sol\":10567:10663  if (value >= 10**2) {... */\n    tag_405:\n        /* \"@openzeppelin/contracts/utils/math/Math.sol\":10689:10694  10**1 */\n      0x0a\n        /* \"@openzeppelin/contracts/utils/math/Math.sol\":10680:10685  value */\n      dup4\n        /* \"@openzeppelin/contracts/utils/math/Math.sol\":10680:10694  value >= 10**1 */\n      lt\n        /* \"@openzeppelin/contracts/utils/math/Math.sol\":10676:10740  if (value >= 10**1) {... */\n      tag_148\n      jumpi\n        /* \"@openzeppelin/contracts/utils/math/Math.sol\":10724:10725  1 */\n      0x01\n        /* \"@openzeppelin/contracts/utils/math/Math.sol\":10714:10725  result += 1 */\n      add\n        /* \"@openzeppelin/contracts/utils/math/Math.sol\":10766:10772  result */\n      swap3\n        /* \"@openzeppelin/contracts/utils/math/Math.sol\":9889:10779  function log10(uint256 value) internal pure returns (uint256) {... */\n      swap2\n      pop\n      pop\n      jump\t// out\n        /* \"@openzeppelin/contracts/token/ERC721/ERC721.sol\":9091:10011  function _mint(address to, uint256 tokenId) internal virtual {... */\n    tag_360:\n      sub(shl(0xa0, 0x01), 0x01)\n        /* \"@openzeppelin/contracts/token/ERC721/ERC721.sol\":9170:9186  to != address(0) */\n      dup3\n      and\n        /* \"@openzeppelin/contracts/token/ERC721/ERC721.sol\":9162:9223  require(to != address(0), \"ERC721: mint to the zero address\") */\n      tag_410\n      jumpi\n      mload(0x40)\n      shl(0xe5, 0x461bcd)\n      dup2\n      mstore\n        /* \"#utility.yul\":17538:17540   */\n      0x20\n        /* \"@openzeppelin/contracts/token/ERC721/ERC721.sol\":9162:9223  require(to != address(0), \"ERC721: mint to the zero address\") */\n      0x04\n      dup3\n      add\n        /* \"#utility.yul\":17520:17541   */\n      dup2\n      swap1\n      mstore\n        /* \"#utility.yul\":17557:17575   */\n      0x24\n      dup3\n      add\n        /* \"#utility.yul\":17550:17580   */\n      mstore\n        /* \"#utility.yul\":17616:17650   */\n      0x4552433732313a206d696e7420746f20746865207a65726f2061646472657373\n        /* \"#utility.yul\":17596:17614   */\n      0x44\n      dup3\n      add\n        /* \"#utility.yul\":17589:17651   */\n      mstore\n        /* \"#utility.yul\":17668:17686   */\n      0x64\n      add\n        /* \"@openzeppelin/contracts/token/ERC721/ERC721.sol\":9162:9223  require(to != address(0), \"ERC721: mint to the zero address\") */\n      tag_178\n        /* \"#utility.yul\":17336:17692   */\n      jump\n        /* \"@openzeppelin/contracts/token/ERC721/ERC721.sol\":9162:9223  require(to != address(0), \"ERC721: mint to the zero address\") */\n    tag_410:\n        /* \"@openzeppelin/contracts/token/ERC721/ERC721.sol\":7321:7325  bool */\n      0x00\n        /* \"@openzeppelin/contracts/token/ERC721/ERC721.sol\":6930:6946  _owners[tokenId] */\n      dup2\n      dup2\n      mstore\n        /* \"@openzeppelin/contracts/token/ERC721/ERC721.sol\":6930:6937  _owners */\n      0x02\n        /* \"@openzeppelin/contracts/token/ERC721/ERC721.sol\":6930:6946  _owners[tokenId] */\n      0x20\n      mstore\n      0x40\n      swap1\n      keccak256\n      sload\n      sub(shl(0xa0, 0x01), 0x01)\n      and\n        /* \"@openzeppelin/contracts/token/ERC721/ERC721.sol\":7344:7375  _ownerOf(tokenId) != address(0) */\n      iszero\n        /* \"@openzeppelin/contracts/token/ERC721/ERC721.sol\":9233:9291  require(!_exists(tokenId), \"ERC721: token already minted\") */\n      tag_414\n      jumpi\n      mload(0x40)\n      shl(0xe5, 0x461bcd)\n      dup2\n      mstore\n        /* \"#utility.yul\":17899:17901   */\n      0x20\n        /* \"@openzeppelin/contracts/token/ERC721/ERC721.sol\":9233:9291  require(!_exists(tokenId), \"ERC721: token already minted\") */\n      0x04\n      dup3\n      add\n        /* \"#utility.yul\":17881:17902   */\n      mstore\n        /* \"#utility.yul\":17938:17940   */\n      0x1c\n        /* \"#utility.yul\":17918:17936   */\n      0x24\n      dup3\n      add\n        /* \"#utility.yul\":17911:17941   */\n      mstore\n        /* \"#utility.yul\":17977:18007   */\n      0x4552433732313a20746f6b656e20616c7265616479206d696e74656400000000\n        /* \"#utility.yul\":17957:17975   */\n      0x44\n      dup3\n      add\n        /* \"#utility.yul\":17950:18008   */\n      mstore\n        /* \"#utility.yul\":18025:18043   */\n      0x64\n      add\n        /* \"@openzeppelin/contracts/token/ERC721/ERC721.sol\":9233:9291  require(!_exists(tokenId), \"ERC721: token already minted\") */\n      tag_178\n        /* \"#utility.yul\":17697:18049   */\n      jump\n        /* \"@openzeppelin/contracts/token/ERC721/ERC721.sol\":9233:9291  require(!_exists(tokenId), \"ERC721: token already minted\") */\n    tag_414:\n        /* \"@openzeppelin/contracts/token/ERC721/ERC721.sol\":7321:7325  bool */\n      0x00\n        /* \"@openzeppelin/contracts/token/ERC721/ERC721.sol\":6930:6946  _owners[tokenId] */\n      dup2\n      dup2\n      mstore\n        /* \"@openzeppelin/contracts/token/ERC721/ERC721.sol\":6930:6937  _owners */\n      0x02\n        /* \"@openzeppelin/contracts/token/ERC721/ERC721.sol\":6930:6946  _owners[tokenId] */\n      0x20\n      mstore\n      0x40\n      swap1\n      keccak256\n      sload\n      sub(shl(0xa0, 0x01), 0x01)\n      and\n        /* \"@openzeppelin/contracts/token/ERC721/ERC721.sol\":7344:7375  _ownerOf(tokenId) != address(0) */\n      iszero\n        /* \"@openzeppelin/contracts/token/ERC721/ERC721.sol\":9437:9495  require(!_exists(tokenId), \"ERC721: token already minted\") */\n      tag_419\n      jumpi\n      mload(0x40)\n      shl(0xe5, 0x461bcd)\n      dup2\n      mstore\n        /* \"#utility.yul\":17899:17901   */\n      0x20\n        /* \"@openzeppelin/contracts/token/ERC721/ERC721.sol\":9437:9495  require(!_exists(tokenId), \"ERC721: token already minted\") */\n      0x04\n      dup3\n      add\n        /* \"#utility.yul\":17881:17902   */\n      mstore\n        /* \"#utility.yul\":17938:17940   */\n      0x1c\n        /* \"#utility.yul\":17918:17936   */\n      0x24\n      dup3\n      add\n        /* \"#utility.yul\":17911:17941   */\n      mstore\n        /* \"#utility.yul\":17977:18007   */\n      0x4552433732313a20746f6b656e20616c7265616479206d696e74656400000000\n        /* \"#utility.yul\":17957:17975   */\n      0x44\n      dup3\n      add\n        /* \"#utility.yul\":17950:18008   */\n      mstore\n        /* \"#utility.yul\":18025:18043   */\n      0x64\n      add\n        /* \"@openzeppelin/contracts/token/ERC721/ERC721.sol\":9437:9495  require(!_exists(tokenId), \"ERC721: token already minted\") */\n      tag_178\n        /* \"#utility.yul\":17697:18049   */\n      jump\n        /* \"@openzeppelin/contracts/token/ERC721/ERC721.sol\":9437:9495  require(!_exists(tokenId), \"ERC721: token already minted\") */\n    tag_419:\n      sub(shl(0xa0, 0x01), 0x01)\n        /* \"@openzeppelin/contracts/token/ERC721/ERC721.sol\":9837:9850  _balances[to] */\n      dup3\n      and\n      0x00\n      dup2\n      dup2\n      mstore\n        /* \"@openzeppelin/contracts/token/ERC721/ERC721.sol\":9837:9846  _balances */\n      0x03\n        /* \"@openzeppelin/contracts/token/ERC721/ERC721.sol\":9837:9850  _balances[to] */\n      0x20\n      swap1\n      dup2\n      mstore\n      0x40\n      dup1\n      dup4\n      keccak256\n        /* \"@openzeppelin/contracts/token/ERC721/ERC721.sol\":9837:9855  _balances[to] += 1 */\n      dup1\n      sload\n        /* \"@openzeppelin/contracts/token/ERC721/ERC721.sol\":9854:9855  1 */\n      0x01\n        /* \"@openzeppelin/contracts/token/ERC721/ERC721.sol\":9837:9855  _balances[to] += 1 */\n      add\n      swap1\n      sstore\n        /* \"@openzeppelin/contracts/token/ERC721/ERC721.sol\":9876:9892  _owners[tokenId] */\n      dup5\n      dup4\n      mstore\n        /* \"@openzeppelin/contracts/token/ERC721/ERC721.sol\":9876:9883  _owners */\n      0x02\n        /* \"@openzeppelin/contracts/token/ERC721/ERC721.sol\":9876:9892  _owners[tokenId] */\n      swap1\n      swap2\n      mstore\n      dup1\n      dup3\n      keccak256\n        /* \"@openzeppelin/contracts/token/ERC721/ERC721.sol\":9876:9897  _owners[tokenId] = to */\n      dup1\n      sload\n      not(sub(shl(0xa0, 0x01), 0x01))\n      and\n      dup5\n      or\n      swap1\n      sstore\n        /* \"@openzeppelin/contracts/token/ERC721/ERC721.sol\":9913:9946  Transfer(address(0), to, tokenId) */\n      mload\n        /* \"@openzeppelin/contracts/token/ERC721/ERC721.sol\":9884:9891  tokenId */\n      dup4\n      swap3\n        /* \"@openzeppelin/contracts/token/ERC721/ERC721.sol\":9837:9850  _balances[to] */\n      swap2\n      swap1\n        /* \"@openzeppelin/contracts/token/ERC721/ERC721.sol\":9913:9946  Transfer(address(0), to, tokenId) */\n      0xddf252ad1be2c89b69c2b068fc378daa952ba7f163c4a11628f55a4df523b3ef\n      swap1\n        /* \"@openzeppelin/contracts/token/ERC721/ERC721.sol\":9837:9850  _balances[to] */\n      dup3\n      swap1\n        /* \"@openzeppelin/contracts/token/ERC721/ERC721.sol\":9913:9946  Transfer(address(0), to, tokenId) */\n      log4\n        /* \"@openzeppelin/contracts/token/ERC721/ERC721.sol\":4169:4322  function setApprovalForAll(address operator, bool approved) public virtual override {... */\n      pop\n      pop\n      jump\t// out\n        /* \"#utility.yul\":14:145   */\n    tag_423:\n      not(sub(shl(0xe0, 0x01), 0x01))\n        /* \"#utility.yul\":88:120   */\n      dup2\n      and\n        /* \"#utility.yul\":78:121   */\n      dup2\n      eq\n        /* \"#utility.yul\":68:139   */\n      tag_288\n      jumpi\n        /* \"#utility.yul\":135:136   */\n      0x00\n        /* \"#utility.yul\":132:133   */\n      dup1\n        /* \"#utility.yul\":125:137   */\n      revert\n        /* \"#utility.yul\":150:395   */\n    tag_31:\n        /* \"#utility.yul\":208:214   */\n      0x00\n        /* \"#utility.yul\":261:263   */\n      0x20\n        /* \"#utility.yul\":249:258   */\n      dup3\n        /* \"#utility.yul\":240:247   */\n      dup5\n        /* \"#utility.yul\":236:259   */\n      sub\n        /* \"#utility.yul\":232:264   */\n      slt\n        /* \"#utility.yul\":229:281   */\n      iszero\n      tag_437\n      jumpi\n        /* \"#utility.yul\":277:278   */\n      0x00\n        /* \"#utility.yul\":274:275   */\n      dup1\n        /* \"#utility.yul\":267:279   */\n      revert\n        /* \"#utility.yul\":229:281   */\n    tag_437:\n        /* \"#utility.yul\":316:325   */\n      dup2\n        /* \"#utility.yul\":303:326   */\n      calldataload\n        /* \"#utility.yul\":335:365   */\n      tag_276\n        /* \"#utility.yul\":359:364   */\n      dup2\n        /* \"#utility.yul\":335:365   */\n      tag_423\n      jump\t// in\n        /* \"#utility.yul\":592:840   */\n    tag_37:\n        /* \"#utility.yul\":660:666   */\n      0x00\n        /* \"#utility.yul\":668:674   */\n      dup1\n        /* \"#utility.yul\":721:723   */\n      0x40\n        /* \"#utility.yul\":709:718   */\n      dup4\n        /* \"#utility.yul\":700:707   */\n      dup6\n        /* \"#utility.yul\":696:719   */\n      sub\n        /* \"#utility.yul\":692:724   */\n      slt\n        /* \"#utility.yul\":689:741   */\n      iszero\n      tag_441\n      jumpi\n        /* \"#utility.yul\":737:738   */\n      0x00\n        /* \"#utility.yul\":734:735   */\n      dup1\n        /* \"#utility.yul\":727:739   */\n      revert\n        /* \"#utility.yul\":689:741   */\n    tag_441:\n      pop\n      pop\n        /* \"#utility.yul\":760:783   */\n      dup1\n      calldataload\n      swap3\n        /* \"#utility.yul\":830:832   */\n      0x20\n        /* \"#utility.yul\":815:833   */\n      swap1\n      swap2\n      add\n        /* \"#utility.yul\":802:834   */\n      calldataload\n      swap2\n      pop\n        /* \"#utility.yul\":592:840   */\n      jump\t// out\n        /* \"#utility.yul\":845:1095   */\n    tag_424:\n        /* \"#utility.yul\":930:931   */\n      0x00\n        /* \"#utility.yul\":940:1053   */\n    tag_443:\n        /* \"#utility.yul\":954:960   */\n      dup4\n        /* \"#utility.yul\":951:952   */\n      dup2\n        /* \"#utility.yul\":948:961   */\n      lt\n        /* \"#utility.yul\":940:1053   */\n      iszero\n      tag_445\n      jumpi\n        /* \"#utility.yul\":1030:1041   */\n      dup2\n      dup2\n      add\n        /* \"#utility.yul\":1024:1042   */\n      mload\n        /* \"#utility.yul\":1011:1022   */\n      dup4\n      dup3\n      add\n        /* \"#utility.yul\":1004:1043   */\n      mstore\n        /* \"#utility.yul\":976:978   */\n      0x20\n        /* \"#utility.yul\":969:979   */\n      add\n        /* \"#utility.yul\":940:1053   */\n      jump(tag_443)\n    tag_445:\n      pop\n      pop\n        /* \"#utility.yul\":1087:1088   */\n      0x00\n        /* \"#utility.yul\":1069:1085   */\n      swap2\n      add\n        /* \"#utility.yul\":1062:1089   */\n      mstore\n        /* \"#utility.yul\":845:1095   */\n      jump\t// out\n        /* \"#utility.yul\":1100:1371   */\n    tag_425:\n        /* \"#utility.yul\":1142:1145   */\n      0x00\n        /* \"#utility.yul\":1180:1185   */\n      dup2\n        /* \"#utility.yul\":1174:1186   */\n      mload\n        /* \"#utility.yul\":1207:1213   */\n      dup1\n        /* \"#utility.yul\":1202:1205   */\n      dup5\n        /* \"#utility.yul\":1195:1214   */\n      mstore\n        /* \"#utility.yul\":1223:1299   */\n      tag_447\n        /* \"#utility.yul\":1292:1298   */\n      dup2\n        /* \"#utility.yul\":1285:1289   */\n      0x20\n        /* \"#utility.yul\":1280:1283   */\n      dup7\n        /* \"#utility.yul\":1276:1290   */\n      add\n        /* \"#utility.yul\":1269:1273   */\n      0x20\n        /* \"#utility.yul\":1262:1267   */\n      dup7\n        /* \"#utility.yul\":1258:1274   */\n      add\n        /* \"#utility.yul\":1223:1299   */\n      tag_424\n      jump\t// in\n    tag_447:\n        /* \"#utility.yul\":1353:1355   */\n      0x1f\n        /* \"#utility.yul\":1332:1347   */\n      add\n      not(0x1f)\n        /* \"#utility.yul\":1328:1357   */\n      and\n        /* \"#utility.yul\":1319:1358   */\n      swap3\n      swap1\n      swap3\n      add\n        /* \"#utility.yul\":1360:1364   */\n      0x20\n        /* \"#utility.yul\":1315:1365   */\n      add\n      swap3\n        /* \"#utility.yul\":1100:1371   */\n      swap2\n      pop\n      pop\n      jump\t// out\n        /* \"#utility.yul\":1376:1596   */\n    tag_43:\n        /* \"#utility.yul\":1525:1527   */\n      0x20\n        /* \"#utility.yul\":1514:1523   */\n      dup2\n        /* \"#utility.yul\":1507:1528   */\n      mstore\n        /* \"#utility.yul\":1488:1492   */\n      0x00\n        /* \"#utility.yul\":1545:1590   */\n      tag_276\n        /* \"#utility.yul\":1586:1588   */\n      0x20\n        /* \"#utility.yul\":1575:1584   */\n      dup4\n        /* \"#utility.yul\":1571:1589   */\n      add\n        /* \"#utility.yul\":1563:1569   */\n      dup5\n        /* \"#utility.yul\":1545:1590   */\n      tag_425\n      jump\t// in\n        /* \"#utility.yul\":1601:1781   */\n    tag_47:\n        /* \"#utility.yul\":1660:1666   */\n      0x00\n        /* \"#utility.yul\":1713:1715   */\n      0x20\n        /* \"#utility.yul\":1701:1710   */\n      dup3\n        /* \"#utility.yul\":1692:1699   */\n      dup5\n        /* \"#utility.yul\":1688:1711   */\n      sub\n        /* \"#utility.yul\":1684:1716   */\n      slt\n        /* \"#utility.yul\":1681:1733   */\n      iszero\n      tag_451\n      jumpi\n        /* \"#utility.yul\":1729:1730   */\n      0x00\n        /* \"#utility.yul\":1726:1727   */\n      dup1\n        /* \"#utility.yul\":1719:1731   */\n      revert\n        /* \"#utility.yul\":1681:1733   */\n    tag_451:\n      pop\n        /* \"#utility.yul\":1752:1775   */\n      calldataload\n      swap2\n        /* \"#utility.yul\":1601:1781   */\n      swap1\n      pop\n      jump\t// out\n        /* \"#utility.yul\":1994:2167   */\n    tag_426:\n        /* \"#utility.yul\":2062:2082   */\n      dup1\n      calldataload\n      sub(shl(0xa0, 0x01), 0x01)\n        /* \"#utility.yul\":2111:2142   */\n      dup2\n      and\n        /* \"#utility.yul\":2101:2143   */\n      dup2\n      eq\n        /* \"#utility.yul\":2091:2161   */\n      tag_454\n      jumpi\n        /* \"#utility.yul\":2157:2158   */\n      0x00\n        /* \"#utility.yul\":2154:2155   */\n      dup1\n        /* \"#utility.yul\":2147:2159   */\n      revert\n        /* \"#utility.yul\":2091:2161   */\n    tag_454:\n        /* \"#utility.yul\":1994:2167   */\n      swap2\n      swap1\n      pop\n      jump\t// out\n        /* \"#utility.yul\":2172:2426   */\n    tag_54:\n        /* \"#utility.yul\":2240:2246   */\n      0x00\n        /* \"#utility.yul\":2248:2254   */\n      dup1\n        /* \"#utility.yul\":2301:2303   */\n      0x40\n        /* \"#utility.yul\":2289:2298   */\n      dup4\n        /* \"#utility.yul\":2280:2287   */\n      dup6\n        /* \"#utility.yul\":2276:2299   */\n      sub\n        /* \"#utility.yul\":2272:2304   */\n      slt\n        /* \"#utility.yul\":2269:2321   */\n      iszero\n      tag_456\n      jumpi\n        /* \"#utility.yul\":2317:2318   */\n      0x00\n        /* \"#utility.yul\":2314:2315   */\n      dup1\n        /* \"#utility.yul\":2307:2319   */\n      revert\n        /* \"#utility.yul\":2269:2321   */\n    tag_456:\n        /* \"#utility.yul\":2340:2369   */\n      tag_457\n        /* \"#utility.yul\":2359:2368   */\n      dup4\n        /* \"#utility.yul\":2340:2369   */\n      tag_426\n      jump\t// in\n    tag_457:\n        /* \"#utility.yul\":2330:2369   */\n      swap5\n        /* \"#utility.yul\":2416:2418   */\n      0x20\n        /* \"#utility.yul\":2401:2419   */\n      swap4\n      swap1\n      swap4\n      add\n        /* \"#utility.yul\":2388:2420   */\n      calldataload\n      swap4\n      pop\n      pop\n      pop\n        /* \"#utility.yul\":2172:2426   */\n      jump\t// out\n        /* \"#utility.yul\":2431:3063   */\n    tag_61:\n        /* \"#utility.yul\":2602:2604   */\n      0x20\n        /* \"#utility.yul\":2654:2675   */\n      dup1\n      dup3\n      mstore\n        /* \"#utility.yul\":2724:2737   */\n      dup3\n      mload\n        /* \"#utility.yul\":2627:2645   */\n      dup3\n      dup3\n      add\n        /* \"#utility.yul\":2746:2768   */\n      dup2\n      swap1\n      mstore\n        /* \"#utility.yul\":2573:2577   */\n      0x00\n      swap2\n        /* \"#utility.yul\":2602:2604   */\n      swap1\n        /* \"#utility.yul\":2825:2840   */\n      dup5\n      dup3\n      add\n      swap1\n        /* \"#utility.yul\":2799:2801   */\n      0x40\n        /* \"#utility.yul\":2784:2802   */\n      dup6\n      add\n      swap1\n        /* \"#utility.yul\":2573:2577   */\n      dup5\n        /* \"#utility.yul\":2868:3037   */\n    tag_459:\n        /* \"#utility.yul\":2882:2888   */\n      dup2\n        /* \"#utility.yul\":2879:2880   */\n      dup2\n        /* \"#utility.yul\":2876:2889   */\n      lt\n        /* \"#utility.yul\":2868:3037   */\n      iszero\n      tag_461\n      jumpi\n        /* \"#utility.yul\":2943:2956   */\n      dup4\n      mload\n        /* \"#utility.yul\":2931:2957   */\n      dup4\n      mstore\n        /* \"#utility.yul\":3012:3027   */\n      swap3\n      dup5\n      add\n      swap3\n        /* \"#utility.yul\":2977:2989   */\n      swap2\n      dup5\n      add\n      swap2\n        /* \"#utility.yul\":2904:2905   */\n      0x01\n        /* \"#utility.yul\":2897:2906   */\n      add\n        /* \"#utility.yul\":2868:3037   */\n      jump(tag_459)\n    tag_461:\n      pop\n        /* \"#utility.yul\":3054:3057   */\n      swap1\n      swap7\n        /* \"#utility.yul\":2431:3063   */\n      swap6\n      pop\n      pop\n      pop\n      pop\n      pop\n      pop\n      jump\t// out\n        /* \"#utility.yul\":3068:3396   */\n    tag_65:\n        /* \"#utility.yul\":3145:3151   */\n      0x00\n        /* \"#utility.yul\":3153:3159   */\n      dup1\n        /* \"#utility.yul\":3161:3167   */\n      0x00\n        /* \"#utility.yul\":3214:3216   */\n      0x60\n        /* \"#utility.yul\":3202:3211   */\n      dup5\n        /* \"#utility.yul\":3193:3200   */\n      dup7\n        /* \"#utility.yul\":3189:3212   */\n      sub\n        /* \"#utility.yul\":3185:3217   */\n      slt\n        /* \"#utility.yul\":3182:3234   */\n      iszero\n      tag_463\n      jumpi\n        /* \"#utility.yul\":3230:3231   */\n      0x00\n        /* \"#utility.yul\":3227:3228   */\n      dup1\n        /* \"#utility.yul\":3220:3232   */\n      revert\n        /* \"#utility.yul\":3182:3234   */\n    tag_463:\n        /* \"#utility.yul\":3253:3282   */\n      tag_464\n        /* \"#utility.yul\":3272:3281   */\n      dup5\n        /* \"#utility.yul\":3253:3282   */\n      tag_426\n      jump\t// in\n    tag_464:\n        /* \"#utility.yul\":3243:3282   */\n      swap3\n      pop\n        /* \"#utility.yul\":3301:3339   */\n      tag_465\n        /* \"#utility.yul\":3335:3337   */\n      0x20\n        /* \"#utility.yul\":3324:3333   */\n      dup6\n        /* \"#utility.yul\":3320:3338   */\n      add\n        /* \"#utility.yul\":3301:3339   */\n      tag_426\n      jump\t// in\n    tag_465:\n        /* \"#utility.yul\":3291:3339   */\n      swap2\n      pop\n        /* \"#utility.yul\":3386:3388   */\n      0x40\n        /* \"#utility.yul\":3375:3384   */\n      dup5\n        /* \"#utility.yul\":3371:3389   */\n      add\n        /* \"#utility.yul\":3358:3390   */\n      calldataload\n        /* \"#utility.yul\":3348:3390   */\n      swap1\n      pop\n        /* \"#utility.yul\":3068:3396   */\n      swap3\n      pop\n      swap3\n      pop\n      swap3\n      jump\t// out\n        /* \"#utility.yul\":3401:3587   */\n    tag_79:\n        /* \"#utility.yul\":3460:3466   */\n      0x00\n        /* \"#utility.yul\":3513:3515   */\n      0x20\n        /* \"#utility.yul\":3501:3510   */\n      dup3\n        /* \"#utility.yul\":3492:3499   */\n      dup5\n        /* \"#utility.yul\":3488:3511   */\n      sub\n        /* \"#utility.yul\":3484:3516   */\n      slt\n        /* \"#utility.yul\":3481:3533   */\n      iszero\n      tag_467\n      jumpi\n        /* \"#utility.yul\":3529:3530   */\n      0x00\n        /* \"#utility.yul\":3526:3527   */\n      dup1\n        /* \"#utility.yul\":3519:3531   */\n      revert\n        /* \"#utility.yul\":3481:3533   */\n    tag_467:\n        /* \"#utility.yul\":3552:3581   */\n      tag_276\n        /* \"#utility.yul\":3571:3580   */\n      dup3\n        /* \"#utility.yul\":3552:3581   */\n      tag_426\n      jump\t// in\n        /* \"#utility.yul\":3774:4964   */\n    tag_91:\n        /* \"#utility.yul\":3955:3957   */\n      0x20\n        /* \"#utility.yul\":3944:3953   */\n      dup2\n        /* \"#utility.yul\":3937:3958   */\n      mstore\n        /* \"#utility.yul\":4000:4006   */\n      dup2\n        /* \"#utility.yul\":3994:4007   */\n      mload\n        /* \"#utility.yul\":3989:3991   */\n      0x20\n        /* \"#utility.yul\":3978:3987   */\n      dup3\n        /* \"#utility.yul\":3974:3992   */\n      add\n        /* \"#utility.yul\":3967:4008   */\n      mstore\n        /* \"#utility.yul\":3918:3922   */\n      0x00\n        /* \"#utility.yul\":4055:4057   */\n      0x20\n        /* \"#utility.yul\":4047:4053   */\n      dup4\n        /* \"#utility.yul\":4043:4058   */\n      add\n        /* \"#utility.yul\":4037:4059   */\n      mload\n        /* \"#utility.yul\":4078:4084   */\n      0x0100\n        /* \"#utility.yul\":4120:4122   */\n      dup1\n        /* \"#utility.yul\":4115:4117   */\n      0x40\n        /* \"#utility.yul\":4104:4113   */\n      dup6\n        /* \"#utility.yul\":4100:4118   */\n      add\n        /* \"#utility.yul\":4093:4123   */\n      mstore\n        /* \"#utility.yul\":4146:4198   */\n      tag_471\n        /* \"#utility.yul\":4193:4196   */\n      0x0120\n        /* \"#utility.yul\":4182:4191   */\n      dup6\n        /* \"#utility.yul\":4178:4197   */\n      add\n        /* \"#utility.yul\":4164:4176   */\n      dup4\n        /* \"#utility.yul\":4146:4198   */\n      tag_425\n      jump\t// in\n    tag_471:\n        /* \"#utility.yul\":4132:4198   */\n      swap2\n      pop\n        /* \"#utility.yul\":4252:4254   */\n      0x40\n        /* \"#utility.yul\":4244:4250   */\n      dup6\n        /* \"#utility.yul\":4240:4255   */\n      add\n        /* \"#utility.yul\":4234:4256   */\n      mload\n        /* \"#utility.yul\":4229:4231   */\n      0x60\n        /* \"#utility.yul\":4218:4227   */\n      dup6\n        /* \"#utility.yul\":4214:4232   */\n      add\n        /* \"#utility.yul\":4207:4257   */\n      mstore\n        /* \"#utility.yul\":4312:4314   */\n      0x60\n        /* \"#utility.yul\":4304:4310   */\n      dup6\n        /* \"#utility.yul\":4300:4315   */\n      add\n        /* \"#utility.yul\":4294:4316   */\n      mload\n        /* \"#utility.yul\":4288:4291   */\n      0x80\n        /* \"#utility.yul\":4277:4286   */\n      dup6\n        /* \"#utility.yul\":4273:4292   */\n      add\n        /* \"#utility.yul\":4266:4317   */\n      mstore\n        /* \"#utility.yul\":4372:4375   */\n      0x80\n        /* \"#utility.yul\":4364:4370   */\n      dup6\n        /* \"#utility.yul\":4360:4376   */\n      add\n        /* \"#utility.yul\":4354:4377   */\n      mload\n        /* \"#utility.yul\":4348:4351   */\n      0xa0\n        /* \"#utility.yul\":4337:4346   */\n      dup6\n        /* \"#utility.yul\":4333:4352   */\n      add\n        /* \"#utility.yul\":4326:4378   */\n      mstore\n        /* \"#utility.yul\":4427:4430   */\n      0xa0\n        /* \"#utility.yul\":4419:4425   */\n      dup6\n        /* \"#utility.yul\":4415:4431   */\n      add\n        /* \"#utility.yul\":4409:4432   */\n      mload\n        /* \"#utility.yul\":4455:4457   */\n      0x1f\n        /* \"#utility.yul\":4451:4458   */\n      not\n        /* \"#utility.yul\":4523:4525   */\n      dup1\n        /* \"#utility.yul\":4511:4520   */\n      dup7\n        /* \"#utility.yul\":4503:4509   */\n      dup6\n        /* \"#utility.yul\":4499:4521   */\n      sub\n        /* \"#utility.yul\":4495:4526   */\n      add\n        /* \"#utility.yul\":4489:4492   */\n      0xc0\n        /* \"#utility.yul\":4478:4487   */\n      dup8\n        /* \"#utility.yul\":4474:4493   */\n      add\n        /* \"#utility.yul\":4467:4527   */\n      mstore\n        /* \"#utility.yul\":4550:4591   */\n      tag_472\n        /* \"#utility.yul\":4584:4590   */\n      dup5\n        /* \"#utility.yul\":4568:4582   */\n      dup4\n        /* \"#utility.yul\":4550:4591   */\n      tag_425\n      jump\t// in\n    tag_472:\n        /* \"#utility.yul\":4536:4591   */\n      swap4\n      pop\n        /* \"#utility.yul\":4640:4643   */\n      0xc0\n        /* \"#utility.yul\":4632:4638   */\n      dup8\n        /* \"#utility.yul\":4628:4644   */\n      add\n        /* \"#utility.yul\":4622:4645   */\n      mload\n        /* \"#utility.yul\":4600:4645   */\n      swap2\n      pop\n        /* \"#utility.yul\":4710:4712   */\n      dup1\n        /* \"#utility.yul\":4698:4707   */\n      dup7\n        /* \"#utility.yul\":4690:4696   */\n      dup6\n        /* \"#utility.yul\":4686:4708   */\n      sub\n        /* \"#utility.yul\":4682:4713   */\n      add\n        /* \"#utility.yul\":4676:4679   */\n      0xe0\n        /* \"#utility.yul\":4665:4674   */\n      dup8\n        /* \"#utility.yul\":4661:4680   */\n      add\n        /* \"#utility.yul\":4654:4714   */\n      mstore\n        /* \"#utility.yul\":4737:4778   */\n      tag_473\n        /* \"#utility.yul\":4771:4777   */\n      dup5\n        /* \"#utility.yul\":4755:4769   */\n      dup4\n        /* \"#utility.yul\":4737:4778   */\n      tag_425\n      jump\t// in\n    tag_473:\n        /* \"#utility.yul\":4723:4778   */\n      swap4\n      pop\n        /* \"#utility.yul\":4827:4830   */\n      0xe0\n        /* \"#utility.yul\":4819:4825   */\n      dup8\n        /* \"#utility.yul\":4815:4831   */\n      add\n        /* \"#utility.yul\":4809:4832   */\n      mload\n        /* \"#utility.yul\":4787:4832   */\n      swap2\n      pop\n        /* \"#utility.yul\":4896:4898   */\n      dup1\n        /* \"#utility.yul\":4884:4893   */\n      dup7\n        /* \"#utility.yul\":4876:4882   */\n      dup6\n        /* \"#utility.yul\":4872:4894   */\n      sub\n        /* \"#utility.yul\":4868:4899   */\n      add\n        /* \"#utility.yul\":4863:4865   */\n      dup4\n        /* \"#utility.yul\":4852:4861   */\n      dup8\n        /* \"#utility.yul\":4848:4866   */\n      add\n        /* \"#utility.yul\":4841:4900   */\n      mstore\n      pop\n        /* \"#utility.yul\":4917:4958   */\n      tag_474\n        /* \"#utility.yul\":4951:4957   */\n      dup4\n        /* \"#utility.yul\":4935:4949   */\n      dup3\n        /* \"#utility.yul\":4917:4958   */\n      tag_425\n      jump\t// in\n    tag_474:\n        /* \"#utility.yul\":4909:4958   */\n      swap7\n        /* \"#utility.yul\":3774:4964   */\n      swap6\n      pop\n      pop\n      pop\n      pop\n      pop\n      pop\n      jump\t// out\n        /* \"#utility.yul\":4969:5096   */\n    tag_350:\n        /* \"#utility.yul\":5030:5040   */\n      0x4e487b71\n        /* \"#utility.yul\":5025:5028   */\n      0xe0\n        /* \"#utility.yul\":5021:5041   */\n      shl\n        /* \"#utility.yul\":5018:5019   */\n      0x00\n        /* \"#utility.yul\":5011:5042   */\n      mstore\n        /* \"#utility.yul\":5061:5065   */\n      0x41\n        /* \"#utility.yul\":5058:5059   */\n      0x04\n        /* \"#utility.yul\":5051:5066   */\n      mstore\n        /* \"#utility.yul\":5085:5089   */\n      0x24\n        /* \"#utility.yul\":5082:5083   */\n      0x00\n        /* \"#utility.yul\":5075:5090   */\n      revert\n        /* \"#utility.yul\":5101:5733   */\n    tag_427:\n        /* \"#utility.yul\":5166:5171   */\n      0x00\n        /* \"#utility.yul\":5196:5214   */\n      0xffffffffffffffff\n        /* \"#utility.yul\":5237:5239   */\n      dup1\n        /* \"#utility.yul\":5229:5235   */\n      dup5\n        /* \"#utility.yul\":5226:5240   */\n      gt\n        /* \"#utility.yul\":5223:5263   */\n      iszero\n      tag_478\n      jumpi\n        /* \"#utility.yul\":5243:5261   */\n      tag_478\n      tag_350\n      jump\t// in\n    tag_478:\n        /* \"#utility.yul\":5318:5320   */\n      0x40\n        /* \"#utility.yul\":5312:5321   */\n      mload\n        /* \"#utility.yul\":5286:5288   */\n      0x1f\n        /* \"#utility.yul\":5372:5387   */\n      dup6\n      add\n      not(0x1f)\n        /* \"#utility.yul\":5368:5392   */\n      swap1\n      dup2\n      and\n        /* \"#utility.yul\":5394:5396   */\n      0x3f\n        /* \"#utility.yul\":5364:5397   */\n      add\n        /* \"#utility.yul\":5360:5402   */\n      and\n        /* \"#utility.yul\":5348:5403   */\n      dup2\n      add\n      swap1\n        /* \"#utility.yul\":5418:5436   */\n      dup3\n      dup3\n      gt\n        /* \"#utility.yul\":5438:5460   */\n      dup2\n      dup4\n      lt\n        /* \"#utility.yul\":5415:5461   */\n      or\n        /* \"#utility.yul\":5412:5484   */\n      iszero\n      tag_480\n      jumpi\n        /* \"#utility.yul\":5464:5482   */\n      tag_480\n      tag_350\n      jump\t// in\n    tag_480:\n        /* \"#utility.yul\":5504:5514   */\n      dup2\n        /* \"#utility.yul\":5500:5502   */\n      0x40\n        /* \"#utility.yul\":5493:5515   */\n      mstore\n        /* \"#utility.yul\":5533:5539   */\n      dup1\n        /* \"#utility.yul\":5524:5539   */\n      swap4\n      pop\n        /* \"#utility.yul\":5563:5569   */\n      dup6\n        /* \"#utility.yul\":5555:5561   */\n      dup2\n        /* \"#utility.yul\":5548:5570   */\n      mstore\n        /* \"#utility.yul\":5603:5606   */\n      dup7\n        /* \"#utility.yul\":5594:5600   */\n      dup7\n        /* \"#utility.yul\":5589:5592   */\n      dup7\n        /* \"#utility.yul\":5585:5601   */\n      add\n        /* \"#utility.yul\":5582:5607   */\n      gt\n        /* \"#utility.yul\":5579:5624   */\n      iszero\n      tag_481\n      jumpi\n        /* \"#utility.yul\":5620:5621   */\n      0x00\n        /* \"#utility.yul\":5617:5618   */\n      dup1\n        /* \"#utility.yul\":5610:5622   */\n      revert\n        /* \"#utility.yul\":5579:5624   */\n    tag_481:\n        /* \"#utility.yul\":5670:5676   */\n      dup6\n        /* \"#utility.yul\":5665:5668   */\n      dup6\n        /* \"#utility.yul\":5658:5662   */\n      0x20\n        /* \"#utility.yul\":5650:5656   */\n      dup4\n        /* \"#utility.yul\":5646:5663   */\n      add\n        /* \"#utility.yul\":5633:5677   */\n      calldatacopy\n        /* \"#utility.yul\":5725:5726   */\n      0x00\n        /* \"#utility.yul\":5718:5722   */\n      0x20\n        /* \"#utility.yul\":5709:5715   */\n      dup8\n        /* \"#utility.yul\":5701:5707   */\n      dup4\n        /* \"#utility.yul\":5697:5716   */\n      add\n        /* \"#utility.yul\":5693:5723   */\n      add\n        /* \"#utility.yul\":5686:5727   */\n      mstore\n      pop\n      pop\n      pop\n        /* \"#utility.yul\":5101:5733   */\n      swap4\n      swap3\n      pop\n      pop\n      pop\n      jump\t// out\n        /* \"#utility.yul\":5738:5960   */\n    tag_428:\n        /* \"#utility.yul\":5781:5786   */\n      0x00\n        /* \"#utility.yul\":5834:5837   */\n      dup3\n        /* \"#utility.yul\":5827:5831   */\n      0x1f\n        /* \"#utility.yul\":5819:5825   */\n      dup4\n        /* \"#utility.yul\":5815:5832   */\n      add\n        /* \"#utility.yul\":5811:5838   */\n      slt\n        /* \"#utility.yul\":5801:5856   */\n      tag_483\n      jumpi\n        /* \"#utility.yul\":5852:5853   */\n      0x00\n        /* \"#utility.yul\":5849:5850   */\n      dup1\n        /* \"#utility.yul\":5842:5854   */\n      revert\n        /* \"#utility.yul\":5801:5856   */\n    tag_483:\n        /* \"#utility.yul\":5874:5954   */\n      tag_276\n        /* \"#utility.yul\":5950:5953   */\n      dup4\n        /* \"#utility.yul\":5941:5947   */\n      dup4\n        /* \"#utility.yul\":5928:5948   */\n      calldataload\n        /* \"#utility.yul\":5921:5925   */\n      0x20\n        /* \"#utility.yul\":5913:5919   */\n      dup6\n        /* \"#utility.yul\":5909:5926   */\n      add\n        /* \"#utility.yul\":5874:5954   */\n      tag_427\n      jump\t// in\n        /* \"#utility.yul\":5965:7047   */\n    tag_107:\n        /* \"#utility.yul\":6109:6115   */\n      0x00\n        /* \"#utility.yul\":6117:6123   */\n      dup1\n        /* \"#utility.yul\":6125:6131   */\n      0x00\n        /* \"#utility.yul\":6133:6139   */\n      dup1\n        /* \"#utility.yul\":6141:6147   */\n      0x00\n        /* \"#utility.yul\":6149:6155   */\n      dup1\n        /* \"#utility.yul\":6202:6205   */\n      0xc0\n        /* \"#utility.yul\":6190:6199   */\n      dup8\n        /* \"#utility.yul\":6181:6188   */\n      dup10\n        /* \"#utility.yul\":6177:6200   */\n      sub\n        /* \"#utility.yul\":6173:6206   */\n      slt\n        /* \"#utility.yul\":6170:6223   */\n      iszero\n      tag_486\n      jumpi\n        /* \"#utility.yul\":6219:6220   */\n      0x00\n        /* \"#utility.yul\":6216:6217   */\n      dup1\n        /* \"#utility.yul\":6209:6221   */\n      revert\n        /* \"#utility.yul\":6170:6223   */\n    tag_486:\n        /* \"#utility.yul\":6259:6268   */\n      dup7\n        /* \"#utility.yul\":6246:6269   */\n      calldataload\n        /* \"#utility.yul\":6288:6306   */\n      0xffffffffffffffff\n        /* \"#utility.yul\":6329:6331   */\n      dup1\n        /* \"#utility.yul\":6321:6327   */\n      dup3\n        /* \"#utility.yul\":6318:6332   */\n      gt\n        /* \"#utility.yul\":6315:6349   */\n      iszero\n      tag_487\n      jumpi\n        /* \"#utility.yul\":6345:6346   */\n      0x00\n        /* \"#utility.yul\":6342:6343   */\n      dup1\n        /* \"#utility.yul\":6335:6347   */\n      revert\n        /* \"#utility.yul\":6315:6349   */\n    tag_487:\n        /* \"#utility.yul\":6368:6418   */\n      tag_488\n        /* \"#utility.yul\":6410:6417   */\n      dup11\n        /* \"#utility.yul\":6401:6407   */\n      dup4\n        /* \"#utility.yul\":6390:6399   */\n      dup12\n        /* \"#utility.yul\":6386:6408   */\n      add\n        /* \"#utility.yul\":6368:6418   */\n      tag_428\n      jump\t// in\n    tag_488:\n        /* \"#utility.yul\":6358:6418   */\n      swap8\n      pop\n        /* \"#utility.yul\":6465:6467   */\n      0x20\n        /* \"#utility.yul\":6454:6463   */\n      dup10\n        /* \"#utility.yul\":6450:6468   */\n      add\n        /* \"#utility.yul\":6437:6469   */\n      calldataload\n        /* \"#utility.yul\":6427:6469   */\n      swap7\n      pop\n        /* \"#utility.yul\":6516:6518   */\n      0x40\n        /* \"#utility.yul\":6505:6514   */\n      dup10\n        /* \"#utility.yul\":6501:6519   */\n      add\n        /* \"#utility.yul\":6488:6520   */\n      calldataload\n        /* \"#utility.yul\":6478:6520   */\n      swap6\n      pop\n        /* \"#utility.yul\":6573:6575   */\n      0x60\n        /* \"#utility.yul\":6562:6571   */\n      dup10\n        /* \"#utility.yul\":6558:6576   */\n      add\n        /* \"#utility.yul\":6545:6577   */\n      calldataload\n        /* \"#utility.yul\":6529:6577   */\n      swap2\n      pop\n        /* \"#utility.yul\":6602:6604   */\n      dup1\n        /* \"#utility.yul\":6592:6600   */\n      dup3\n        /* \"#utility.yul\":6589:6605   */\n      gt\n        /* \"#utility.yul\":6586:6622   */\n      iszero\n      tag_489\n      jumpi\n        /* \"#utility.yul\":6618:6619   */\n      0x00\n        /* \"#utility.yul\":6615:6616   */\n      dup1\n        /* \"#utility.yul\":6608:6620   */\n      revert\n        /* \"#utility.yul\":6586:6622   */\n    tag_489:\n        /* \"#utility.yul\":6641:6693   */\n      tag_490\n        /* \"#utility.yul\":6685:6692   */\n      dup11\n        /* \"#utility.yul\":6674:6682   */\n      dup4\n        /* \"#utility.yul\":6663:6672   */\n      dup12\n        /* \"#utility.yul\":6659:6683   */\n      add\n        /* \"#utility.yul\":6641:6693   */\n      tag_428\n      jump\t// in\n    tag_490:\n        /* \"#utility.yul\":6631:6693   */\n      swap5\n      pop\n        /* \"#utility.yul\":6746:6749   */\n      0x80\n        /* \"#utility.yul\":6735:6744   */\n      dup10\n        /* \"#utility.yul\":6731:6750   */\n      add\n        /* \"#utility.yul\":6718:6751   */\n      calldataload\n        /* \"#utility.yul\":6702:6751   */\n      swap2\n      pop\n        /* \"#utility.yul\":6776:6778   */\n      dup1\n        /* \"#utility.yul\":6766:6774   */\n      dup3\n        /* \"#utility.yul\":6763:6779   */\n      gt\n        /* \"#utility.yul\":6760:6796   */\n      iszero\n      tag_491\n      jumpi\n        /* \"#utility.yul\":6792:6793   */\n      0x00\n        /* \"#utility.yul\":6789:6790   */\n      dup1\n        /* \"#utility.yul\":6782:6794   */\n      revert\n        /* \"#utility.yul\":6760:6796   */\n    tag_491:\n        /* \"#utility.yul\":6815:6867   */\n      tag_492\n        /* \"#utility.yul\":6859:6866   */\n      dup11\n        /* \"#utility.yul\":6848:6856   */\n      dup4\n        /* \"#utility.yul\":6837:6846   */\n      dup12\n        /* \"#utility.yul\":6833:6857   */\n      add\n        /* \"#utility.yul\":6815:6867   */\n      tag_428\n      jump\t// in\n    tag_492:\n        /* \"#utility.yul\":6805:6867   */\n      swap4\n      pop\n        /* \"#utility.yul\":6920:6923   */\n      0xa0\n        /* \"#utility.yul\":6909:6918   */\n      dup10\n        /* \"#utility.yul\":6905:6924   */\n      add\n        /* \"#utility.yul\":6892:6925   */\n      calldataload\n        /* \"#utility.yul\":6876:6925   */\n      swap2\n      pop\n        /* \"#utility.yul\":6950:6952   */\n      dup1\n        /* \"#utility.yul\":6940:6948   */\n      dup3\n        /* \"#utility.yul\":6937:6953   */\n      gt\n        /* \"#utility.yul\":6934:6970   */\n      iszero\n      tag_493\n      jumpi\n        /* \"#utility.yul\":6966:6967   */\n      0x00\n        /* \"#utility.yul\":6963:6964   */\n      dup1\n        /* \"#utility.yul\":6956:6968   */\n      revert\n        /* \"#utility.yul\":6934:6970   */\n    tag_493:\n      pop\n        /* \"#utility.yul\":6989:7041   */\n      tag_494\n        /* \"#utility.yul\":7033:7040   */\n      dup10\n        /* \"#utility.yul\":7022:7030   */\n      dup3\n        /* \"#utility.yul\":7011:7020   */\n      dup11\n        /* \"#utility.yul\":7007:7031   */\n      add\n        /* \"#utility.yul\":6989:7041   */\n      tag_428\n      jump\t// in\n    tag_494:\n        /* \"#utility.yul\":6979:7041   */\n      swap2\n      pop\n      pop\n        /* \"#utility.yul\":5965:7047   */\n      swap3\n      swap6\n      pop\n      swap3\n      swap6\n      pop\n      swap3\n      swap6\n      jump\t// out\n        /* \"#utility.yul\":7052:7306   */\n    tag_112:\n        /* \"#utility.yul\":7120:7126   */\n      0x00\n        /* \"#utility.yul\":7128:7134   */\n      dup1\n        /* \"#utility.yul\":7181:7183   */\n      0x40\n        /* \"#utility.yul\":7169:7178   */\n      dup4\n        /* \"#utility.yul\":7160:7167   */\n      dup6\n        /* \"#utility.yul\":7156:7179   */\n      sub\n        /* \"#utility.yul\":7152:7184   */\n      slt\n        /* \"#utility.yul\":7149:7201   */\n      iszero\n      tag_496\n      jumpi\n        /* \"#utility.yul\":7197:7198   */\n      0x00\n        /* \"#utility.yul\":7194:7195   */\n      dup1\n        /* \"#utility.yul\":7187:7199   */\n      revert\n        /* \"#utility.yul\":7149:7201   */\n    tag_496:\n        /* \"#utility.yul\":7233:7242   */\n      dup3\n        /* \"#utility.yul\":7220:7243   */\n      calldataload\n        /* \"#utility.yul\":7210:7243   */\n      swap2\n      pop\n        /* \"#utility.yul\":7262:7300   */\n      tag_497\n        /* \"#utility.yul\":7296:7298   */\n      0x20\n        /* \"#utility.yul\":7285:7294   */\n      dup5\n        /* \"#utility.yul\":7281:7299   */\n      add\n        /* \"#utility.yul\":7262:7300   */\n      tag_426\n      jump\t// in\n    tag_497:\n        /* \"#utility.yul\":7252:7300   */\n      swap1\n      pop\n        /* \"#utility.yul\":7052:7306   */\n      swap3\n      pop\n      swap3\n      swap1\n      pop\n      jump\t// out\n        /* \"#utility.yul\":7311:7658   */\n    tag_118:\n        /* \"#utility.yul\":7376:7382   */\n      0x00\n        /* \"#utility.yul\":7384:7390   */\n      dup1\n        /* \"#utility.yul\":7437:7439   */\n      0x40\n        /* \"#utility.yul\":7425:7434   */\n      dup4\n        /* \"#utility.yul\":7416:7423   */\n      dup6\n        /* \"#utility.yul\":7412:7435   */\n      sub\n        /* \"#utility.yul\":7408:7440   */\n      slt\n        /* \"#utility.yul\":7405:7457   */\n      iszero\n      tag_499\n      jumpi\n        /* \"#utility.yul\":7453:7454   */\n      0x00\n        /* \"#utility.yul\":7450:7451   */\n      dup1\n        /* \"#utility.yul\":7443:7455   */\n      revert\n        /* \"#utility.yul\":7405:7457   */\n    tag_499:\n        /* \"#utility.yul\":7476:7505   */\n      tag_500\n        /* \"#utility.yul\":7495:7504   */\n      dup4\n        /* \"#utility.yul\":7476:7505   */\n      tag_426\n      jump\t// in\n    tag_500:\n        /* \"#utility.yul\":7466:7505   */\n      swap2\n      pop\n        /* \"#utility.yul\":7555:7557   */\n      0x20\n        /* \"#utility.yul\":7544:7553   */\n      dup4\n        /* \"#utility.yul\":7540:7558   */\n      add\n        /* \"#utility.yul\":7527:7559   */\n      calldataload\n        /* \"#utility.yul\":7602:7607   */\n      dup1\n        /* \"#utility.yul\":7595:7608   */\n      iszero\n        /* \"#utility.yul\":7588:7609   */\n      iszero\n        /* \"#utility.yul\":7581:7586   */\n      dup2\n        /* \"#utility.yul\":7578:7610   */\n      eq\n        /* \"#utility.yul\":7568:7628   */\n      tag_501\n      jumpi\n        /* \"#utility.yul\":7624:7625   */\n      0x00\n        /* \"#utility.yul\":7621:7622   */\n      dup1\n        /* \"#utility.yul\":7614:7626   */\n      revert\n        /* \"#utility.yul\":7568:7628   */\n    tag_501:\n        /* \"#utility.yul\":7647:7652   */\n      dup1\n        /* \"#utility.yul\":7637:7652   */\n      swap2\n      pop\n      pop\n        /* \"#utility.yul\":7311:7658   */\n      swap3\n      pop\n      swap3\n      swap1\n      pop\n      jump\t// out\n        /* \"#utility.yul\":7663:8330   */\n    tag_128:\n        /* \"#utility.yul\":7758:7764   */\n      0x00\n        /* \"#utility.yul\":7766:7772   */\n      dup1\n        /* \"#utility.yul\":7774:7780   */\n      0x00\n        /* \"#utility.yul\":7782:7788   */\n      dup1\n        /* \"#utility.yul\":7835:7838   */\n      0x80\n        /* \"#utility.yul\":7823:7832   */\n      dup6\n        /* \"#utility.yul\":7814:7821   */\n      dup8\n        /* \"#utility.yul\":7810:7833   */\n      sub\n        /* \"#utility.yul\":7806:7839   */\n      slt\n        /* \"#utility.yul\":7803:7856   */\n      iszero\n      tag_503\n      jumpi\n        /* \"#utility.yul\":7852:7853   */\n      0x00\n        /* \"#utility.yul\":7849:7850   */\n      dup1\n        /* \"#utility.yul\":7842:7854   */\n      revert\n        /* \"#utility.yul\":7803:7856   */\n    tag_503:\n        /* \"#utility.yul\":7875:7904   */\n      tag_504\n        /* \"#utility.yul\":7894:7903   */\n      dup6\n        /* \"#utility.yul\":7875:7904   */\n      tag_426\n      jump\t// in\n    tag_504:\n        /* \"#utility.yul\":7865:7904   */\n      swap4\n      pop\n        /* \"#utility.yul\":7923:7961   */\n      tag_505\n        /* \"#utility.yul\":7957:7959   */\n      0x20\n        /* \"#utility.yul\":7946:7955   */\n      dup7\n        /* \"#utility.yul\":7942:7960   */\n      add\n        /* \"#utility.yul\":7923:7961   */\n      tag_426\n      jump\t// in\n    tag_505:\n        /* \"#utility.yul\":7913:7961   */\n      swap3\n      pop\n        /* \"#utility.yul\":8008:8010   */\n      0x40\n        /* \"#utility.yul\":7997:8006   */\n      dup6\n        /* \"#utility.yul\":7993:8011   */\n      add\n        /* \"#utility.yul\":7980:8012   */\n      calldataload\n        /* \"#utility.yul\":7970:8012   */\n      swap2\n      pop\n        /* \"#utility.yul\":8063:8065   */\n      0x60\n        /* \"#utility.yul\":8052:8061   */\n      dup6\n        /* \"#utility.yul\":8048:8066   */\n      add\n        /* \"#utility.yul\":8035:8067   */\n      calldataload\n        /* \"#utility.yul\":8090:8108   */\n      0xffffffffffffffff\n        /* \"#utility.yul\":8082:8088   */\n      dup2\n        /* \"#utility.yul\":8079:8109   */\n      gt\n        /* \"#utility.yul\":8076:8126   */\n      iszero\n      tag_506\n      jumpi\n        /* \"#utility.yul\":8122:8123   */\n      0x00\n        /* \"#utility.yul\":8119:8120   */\n      dup1\n        /* \"#utility.yul\":8112:8124   */\n      revert\n        /* \"#utility.yul\":8076:8126   */\n    tag_506:\n        /* \"#utility.yul\":8145:8167   */\n      dup6\n      add\n        /* \"#utility.yul\":8198:8202   */\n      0x1f\n        /* \"#utility.yul\":8190:8203   */\n      dup2\n      add\n        /* \"#utility.yul\":8186:8213   */\n      dup8\n      sgt\n        /* \"#utility.yul\":8176:8231   */\n      tag_507\n      jumpi\n        /* \"#utility.yul\":8227:8228   */\n      0x00\n        /* \"#utility.yul\":8224:8225   */\n      dup1\n        /* \"#utility.yul\":8217:8229   */\n      revert\n        /* \"#utility.yul\":8176:8231   */\n    tag_507:\n        /* \"#utility.yul\":8250:8324   */\n      tag_508\n        /* \"#utility.yul\":8316:8323   */\n      dup8\n        /* \"#utility.yul\":8311:8313   */\n      dup3\n        /* \"#utility.yul\":8298:8314   */\n      calldataload\n        /* \"#utility.yul\":8293:8295   */\n      0x20\n        /* \"#utility.yul\":8289:8291   */\n      dup5\n        /* \"#utility.yul\":8285:8296   */\n      add\n        /* \"#utility.yul\":8250:8324   */\n      tag_427\n      jump\t// in\n    tag_508:\n        /* \"#utility.yul\":8240:8324   */\n      swap2\n      pop\n      pop\n        /* \"#utility.yul\":7663:8330   */\n      swap3\n      swap6\n      swap2\n      swap5\n      pop\n      swap3\n      pop\n      jump\t// out\n        /* \"#utility.yul\":8335:8595   */\n    tag_138:\n        /* \"#utility.yul\":8403:8409   */\n      0x00\n        /* \"#utility.yul\":8411:8417   */\n      dup1\n        /* \"#utility.yul\":8464:8466   */\n      0x40\n        /* \"#utility.yul\":8452:8461   */\n      dup4\n        /* \"#utility.yul\":8443:8450   */\n      dup6\n        /* \"#utility.yul\":8439:8462   */\n      sub\n        /* \"#utility.yul\":8435:8467   */\n      slt\n        /* \"#utility.yul\":8432:8484   */\n      iszero\n      tag_510\n      jumpi\n        /* \"#utility.yul\":8480:8481   */\n      0x00\n        /* \"#utility.yul\":8477:8478   */\n      dup1\n        /* \"#utility.yul\":8470:8482   */\n      revert\n        /* \"#utility.yul\":8432:8484   */\n    tag_510:\n        /* \"#utility.yul\":8503:8532   */\n      tag_511\n        /* \"#utility.yul\":8522:8531   */\n      dup4\n        /* \"#utility.yul\":8503:8532   */\n      tag_426\n      jump\t// in\n    tag_511:\n        /* \"#utility.yul\":8493:8532   */\n      swap2\n      pop\n        /* \"#utility.yul\":8551:8589   */\n      tag_497\n        /* \"#utility.yul\":8585:8587   */\n      0x20\n        /* \"#utility.yul\":8574:8583   */\n      dup5\n        /* \"#utility.yul\":8570:8588   */\n      add\n        /* \"#utility.yul\":8551:8589   */\n      tag_426\n      jump\t// in\n        /* \"#utility.yul\":8600:8727   */\n    tag_429:\n        /* \"#utility.yul\":8661:8671   */\n      0x4e487b71\n        /* \"#utility.yul\":8656:8659   */\n      0xe0\n        /* \"#utility.yul\":8652:8672   */\n      shl\n        /* \"#utility.yul\":8649:8650   */\n      0x00\n        /* \"#utility.yul\":8642:8673   */\n      mstore\n        /* \"#utility.yul\":8692:8696   */\n      0x11\n        /* \"#utility.yul\":8689:8690   */\n      0x04\n        /* \"#utility.yul\":8682:8697   */\n      mstore\n        /* \"#utility.yul\":8716:8720   */\n      0x24\n        /* \"#utility.yul\":8713:8714   */\n      0x00\n        /* \"#utility.yul\":8706:8721   */\n      revert\n        /* \"#utility.yul\":8732:8860   */\n    tag_157:\n        /* \"#utility.yul\":8799:8808   */\n      dup2\n      dup2\n      sub\n        /* \"#utility.yul\":8820:8831   */\n      dup2\n      dup2\n      gt\n        /* \"#utility.yul\":8817:8854   */\n      iszero\n      tag_148\n      jumpi\n        /* \"#utility.yul\":8834:8852   */\n      tag_148\n      tag_429\n      jump\t// in\n        /* \"#utility.yul\":8865:9245   */\n    tag_167:\n        /* \"#utility.yul\":8944:8945   */\n      0x01\n        /* \"#utility.yul\":8940:8952   */\n      dup2\n      dup2\n      shr\n      swap1\n        /* \"#utility.yul\":8987:8999   */\n      dup3\n      and\n      dup1\n        /* \"#utility.yul\":9008:9069   */\n      tag_518\n      jumpi\n        /* \"#utility.yul\":9062:9066   */\n      0x7f\n        /* \"#utility.yul\":9054:9060   */\n      dup3\n        /* \"#utility.yul\":9050:9067   */\n      and\n        /* \"#utility.yul\":9040:9067   */\n      swap2\n      pop\n        /* \"#utility.yul\":9008:9069   */\n    tag_518:\n        /* \"#utility.yul\":9115:9117   */\n      0x20\n        /* \"#utility.yul\":9107:9113   */\n      dup3\n        /* \"#utility.yul\":9104:9118   */\n      lt\n        /* \"#utility.yul\":9084:9102   */\n      dup2\n        /* \"#utility.yul\":9081:9119   */\n      sub\n        /* \"#utility.yul\":9078:9239   */\n      tag_519\n      jumpi\n        /* \"#utility.yul\":9161:9171   */\n      0x4e487b71\n        /* \"#utility.yul\":9156:9159   */\n      0xe0\n        /* \"#utility.yul\":9152:9172   */\n      shl\n        /* \"#utility.yul\":9149:9150   */\n      0x00\n        /* \"#utility.yul\":9142:9173   */\n      mstore\n        /* \"#utility.yul\":9196:9200   */\n      0x22\n        /* \"#utility.yul\":9193:9194   */\n      0x04\n        /* \"#utility.yul\":9186:9201   */\n      mstore\n        /* \"#utility.yul\":9224:9228   */\n      0x24\n        /* \"#utility.yul\":9221:9222   */\n      0x00\n        /* \"#utility.yul\":9214:9229   */\n      revert\n        /* \"#utility.yul\":9078:9239   */\n    tag_519:\n      pop\n        /* \"#utility.yul\":8865:9245   */\n      swap2\n      swap1\n      pop\n      jump\t// out\n        /* \"#utility.yul\":10082:10491   */\n    tag_199:\n        /* \"#utility.yul\":10284:10286   */\n      0x20\n        /* \"#utility.yul\":10266:10287   */\n      dup1\n      dup3\n      mstore\n        /* \"#utility.yul\":10323:10325   */\n      0x2d\n        /* \"#utility.yul\":10303:10321   */\n      swap1\n      dup3\n      add\n        /* \"#utility.yul\":10296:10326   */\n      mstore\n        /* \"#utility.yul\":10362:10396   */\n      0x4552433732313a2063616c6c6572206973206e6f7420746f6b656e206f776e65\n        /* \"#utility.yul\":10357:10359   */\n      0x40\n        /* \"#utility.yul\":10342:10360   */\n      dup3\n      add\n        /* \"#utility.yul\":10335:10397   */\n      mstore\n      shl(0x9a, 0x1c881bdc88185c1c1c9bdd9959)\n        /* \"#utility.yul\":10428:10430   */\n      0x60\n        /* \"#utility.yul\":10413:10431   */\n      dup3\n      add\n        /* \"#utility.yul\":10406:10449   */\n      mstore\n        /* \"#utility.yul\":10481:10484   */\n      0x80\n        /* \"#utility.yul\":10466:10485   */\n      add\n      swap1\n        /* \"#utility.yul\":10082:10491   */\n      jump\t// out\n        /* \"#utility.yul\":11259:11394   */\n    tag_254:\n        /* \"#utility.yul\":11298:11301   */\n      0x00\n        /* \"#utility.yul\":11319:11336   */\n      0x01\n      dup3\n      add\n        /* \"#utility.yul\":11316:11359   */\n      tag_527\n      jumpi\n        /* \"#utility.yul\":11339:11357   */\n      tag_527\n      tag_429\n      jump\t// in\n    tag_527:\n      pop\n        /* \"#utility.yul\":11386:11387   */\n      0x01\n        /* \"#utility.yul\":11375:11388   */\n      add\n      swap1\n        /* \"#utility.yul\":11259:11394   */\n      jump\t// out\n        /* \"#utility.yul\":11525:12070   */\n    tag_431:\n        /* \"#utility.yul\":11627:11629   */\n      0x1f\n        /* \"#utility.yul\":11622:11625   */\n      dup3\n        /* \"#utility.yul\":11619:11630   */\n      gt\n        /* \"#utility.yul\":11616:12064   */\n      iszero\n      tag_163\n      jumpi\n        /* \"#utility.yul\":11663:11664   */\n      0x00\n        /* \"#utility.yul\":11688:11693   */\n      dup2\n        /* \"#utility.yul\":11684:11686   */\n      dup2\n        /* \"#utility.yul\":11677:11694   */\n      mstore\n        /* \"#utility.yul\":11733:11737   */\n      0x20\n        /* \"#utility.yul\":11729:11731   */\n      dup2\n        /* \"#utility.yul\":11719:11738   */\n      keccak256\n        /* \"#utility.yul\":11803:11805   */\n      0x1f\n        /* \"#utility.yul\":11791:11801   */\n      dup6\n        /* \"#utility.yul\":11787:11806   */\n      add\n        /* \"#utility.yul\":11784:11785   */\n      0x05\n        /* \"#utility.yul\":11780:11807   */\n      shr\n        /* \"#utility.yul\":11774:11778   */\n      dup2\n        /* \"#utility.yul\":11770:11808   */\n      add\n        /* \"#utility.yul\":11839:11843   */\n      0x20\n        /* \"#utility.yul\":11827:11837   */\n      dup7\n        /* \"#utility.yul\":11824:11844   */\n      lt\n        /* \"#utility.yul\":11821:11868   */\n      iszero\n      tag_531\n      jumpi\n      pop\n        /* \"#utility.yul\":11862:11866   */\n      dup1\n        /* \"#utility.yul\":11821:11868   */\n    tag_531:\n        /* \"#utility.yul\":11917:11919   */\n      0x1f\n        /* \"#utility.yul\":11912:11915   */\n      dup6\n        /* \"#utility.yul\":11908:11920   */\n      add\n        /* \"#utility.yul\":11905:11906   */\n      0x05\n        /* \"#utility.yul\":11901:11921   */\n      shr\n        /* \"#utility.yul\":11895:11899   */\n      dup3\n        /* \"#utility.yul\":11891:11922   */\n      add\n        /* \"#utility.yul\":11881:11922   */\n      swap2\n      pop\n        /* \"#utility.yul\":11972:12054   */\n    tag_532:\n        /* \"#utility.yul\":11990:11992   */\n      dup2\n        /* \"#utility.yul\":11983:11988   */\n      dup2\n        /* \"#utility.yul\":11980:11993   */\n      lt\n        /* \"#utility.yul\":11972:12054   */\n      iszero\n      tag_534\n      jumpi\n        /* \"#utility.yul\":12035:12052   */\n      dup3\n      dup2\n      sstore\n        /* \"#utility.yul\":12016:12017   */\n      0x01\n        /* \"#utility.yul\":12005:12018   */\n      add\n        /* \"#utility.yul\":11972:12054   */\n      jump(tag_532)\n    tag_534:\n        /* \"#utility.yul\":11976:11979   */\n      pop\n      pop\n      pop\n        /* \"#utility.yul\":11525:12070   */\n      pop\n      pop\n      pop\n      jump\t// out\n        /* \"#utility.yul\":12246:13598   */\n    tag_256:\n        /* \"#utility.yul\":12372:12375   */\n      dup2\n        /* \"#utility.yul\":12366:12376   */\n      mload\n        /* \"#utility.yul\":12399:12417   */\n      0xffffffffffffffff\n        /* \"#utility.yul\":12391:12397   */\n      dup2\n        /* \"#utility.yul\":12388:12418   */\n      gt\n        /* \"#utility.yul\":12385:12441   */\n      iszero\n      tag_538\n      jumpi\n        /* \"#utility.yul\":12421:12439   */\n      tag_538\n      tag_350\n      jump\t// in\n    tag_538:\n        /* \"#utility.yul\":12450:12547   */\n      tag_539\n        /* \"#utility.yul\":12540:12546   */\n      dup2\n        /* \"#utility.yul\":12500:12538   */\n      tag_540\n        /* \"#utility.yul\":12532:12536   */\n      dup5\n        /* \"#utility.yul\":12526:12537   */\n      sload\n        /* \"#utility.yul\":12500:12538   */\n      tag_167\n      jump\t// in\n    tag_540:\n        /* \"#utility.yul\":12494:12498   */\n      dup5\n        /* \"#utility.yul\":12450:12547   */\n      tag_431\n      jump\t// in\n    tag_539:\n        /* \"#utility.yul\":12602:12606   */\n      0x20\n      dup1\n        /* \"#utility.yul\":12666:12668   */\n      0x1f\n        /* \"#utility.yul\":12655:12669   */\n      dup4\n      gt\n        /* \"#utility.yul\":12683:12684   */\n      0x01\n        /* \"#utility.yul\":12678:13341   */\n      dup2\n      eq\n      tag_542\n      jumpi\n        /* \"#utility.yul\":13385:13386   */\n      0x00\n        /* \"#utility.yul\":13402:13408   */\n      dup5\n        /* \"#utility.yul\":13399:13488   */\n      iszero\n      tag_543\n      jumpi\n      pop\n        /* \"#utility.yul\":13454:13473   */\n      dup6\n      dup4\n      add\n        /* \"#utility.yul\":13448:13474   */\n      mload\n        /* \"#utility.yul\":13399:13488   */\n    tag_543:\n      not(0x00)\n        /* \"#utility.yul\":12203:12204   */\n      0x03\n        /* \"#utility.yul\":12199:12210   */\n      dup7\n      swap1\n      shl\n        /* \"#utility.yul\":12195:12219   */\n      shr\n        /* \"#utility.yul\":12191:12220   */\n      not\n        /* \"#utility.yul\":12181:12221   */\n      and\n        /* \"#utility.yul\":12227:12228   */\n      0x01\n        /* \"#utility.yul\":12223:12234   */\n      dup6\n      swap1\n      shl\n        /* \"#utility.yul\":12178:12235   */\n      or\n        /* \"#utility.yul\":13501:13582   */\n      dup6\n      sstore\n        /* \"#utility.yul\":12648:13592   */\n      jump(tag_534)\n        /* \"#utility.yul\":12678:13341   */\n    tag_542:\n        /* \"#utility.yul\":11472:11473   */\n      0x00\n        /* \"#utility.yul\":11465:11479   */\n      dup6\n      dup2\n      mstore\n        /* \"#utility.yul\":11509:11513   */\n      0x20\n        /* \"#utility.yul\":11496:11514   */\n      dup2\n      keccak256\n      not(0x1f)\n        /* \"#utility.yul\":12714:12734   */\n      dup7\n      and\n      swap2\n        /* \"#utility.yul\":12832:13068   */\n    tag_546:\n        /* \"#utility.yul\":12846:12853   */\n      dup3\n        /* \"#utility.yul\":12843:12844   */\n      dup2\n        /* \"#utility.yul\":12840:12854   */\n      lt\n        /* \"#utility.yul\":12832:13068   */\n      iszero\n      tag_548\n      jumpi\n        /* \"#utility.yul\":12935:12954   */\n      dup9\n      dup7\n      add\n        /* \"#utility.yul\":12929:12955   */\n      mload\n        /* \"#utility.yul\":12914:12956   */\n      dup3\n      sstore\n        /* \"#utility.yul\":13027:13054   */\n      swap5\n      dup5\n      add\n      swap5\n        /* \"#utility.yul\":12995:12996   */\n      0x01\n        /* \"#utility.yul\":12983:12997   */\n      swap1\n      swap2\n      add\n      swap1\n        /* \"#utility.yul\":12862:12881   */\n      dup5\n      add\n        /* \"#utility.yul\":12832:13068   */\n      jump(tag_546)\n    tag_548:\n        /* \"#utility.yul\":12836:12839   */\n      pop\n        /* \"#utility.yul\":13096:13102   */\n      dup6\n        /* \"#utility.yul\":13087:13094   */\n      dup3\n        /* \"#utility.yul\":13084:13103   */\n      lt\n        /* \"#utility.yul\":13081:13282   */\n      iszero\n      tag_549\n      jumpi\n        /* \"#utility.yul\":13157:13176   */\n      dup8\n      dup6\n      add\n        /* \"#utility.yul\":13151:13177   */\n      mload\n      not(0x00)\n        /* \"#utility.yul\":13240:13241   */\n      0x03\n        /* \"#utility.yul\":13236:13250   */\n      dup9\n      swap1\n      shl\n        /* \"#utility.yul\":13252:13255   */\n      0xf8\n        /* \"#utility.yul\":13232:13256   */\n      and\n        /* \"#utility.yul\":13228:13265   */\n      shr\n        /* \"#utility.yul\":13224:13266   */\n      not\n        /* \"#utility.yul\":13209:13267   */\n      and\n        /* \"#utility.yul\":13194:13268   */\n      dup2\n      sstore\n        /* \"#utility.yul\":13081:13282   */\n    tag_549:\n      pop\n      pop\n      pop\n      pop\n      pop\n        /* \"#utility.yul\":13328:13329   */\n      0x01\n        /* \"#utility.yul\":13312:13326   */\n      swap1\n      dup2\n      shl\n        /* \"#utility.yul\":13308:13330   */\n      add\n        /* \"#utility.yul\":13295:13331   */\n      swap1\n      sstore\n      pop\n        /* \"#utility.yul\":12246:13598   */\n      jump\t// out\n        /* \"#utility.yul\":13603:14099   */\n    tag_280:\n        /* \"#utility.yul\":13782:13785   */\n      0x00\n        /* \"#utility.yul\":13820:13826   */\n      dup4\n        /* \"#utility.yul\":13814:13827   */\n      mload\n        /* \"#utility.yul\":13836:13902   */\n      tag_551\n        /* \"#utility.yul\":13895:13901   */\n      dup2\n        /* \"#utility.yul\":13890:13893   */\n      dup5\n        /* \"#utility.yul\":13883:13887   */\n      0x20\n        /* \"#utility.yul\":13875:13881   */\n      dup9\n        /* \"#utility.yul\":13871:13888   */\n      add\n        /* \"#utility.yul\":13836:13902   */\n      tag_424\n      jump\t// in\n    tag_551:\n        /* \"#utility.yul\":13965:13978   */\n      dup4\n      mload\n        /* \"#utility.yul\":13924:13940   */\n      swap1\n      dup4\n      add\n      swap1\n        /* \"#utility.yul\":13987:14057   */\n      tag_552\n        /* \"#utility.yul\":13965:13978   */\n      dup2\n        /* \"#utility.yul\":13924:13940   */\n      dup4\n        /* \"#utility.yul\":14034:14038   */\n      0x20\n        /* \"#utility.yul\":14022:14039   */\n      dup9\n      add\n        /* \"#utility.yul\":13987:14057   */\n      tag_424\n      jump\t// in\n    tag_552:\n        /* \"#utility.yul\":14073:14093   */\n      add\n      swap5\n        /* \"#utility.yul\":13603:14099   */\n      swap4\n      pop\n      pop\n      pop\n      pop\n      jump\t// out\n        /* \"#utility.yul\":14511:14912   */\n    tag_313:\n        /* \"#utility.yul\":14713:14715   */\n      0x20\n        /* \"#utility.yul\":14695:14716   */\n      dup1\n      dup3\n      mstore\n        /* \"#utility.yul\":14752:14754   */\n      0x25\n        /* \"#utility.yul\":14732:14750   */\n      swap1\n      dup3\n      add\n        /* \"#utility.yul\":14725:14755   */\n      mstore\n        /* \"#utility.yul\":14791:14825   */\n      0x4552433732313a207472616e736665722066726f6d20696e636f727265637420\n        /* \"#utility.yul\":14786:14788   */\n      0x40\n        /* \"#utility.yul\":14771:14789   */\n      dup3\n      add\n        /* \"#utility.yul\":14764:14826   */\n      mstore\n      shl(0xd9, 0x37bbb732b9)\n        /* \"#utility.yul\":14857:14859   */\n      0x60\n        /* \"#utility.yul\":14842:14860   */\n      dup3\n      add\n        /* \"#utility.yul\":14835:14870   */\n      mstore\n        /* \"#utility.yul\":14902:14905   */\n      0x80\n        /* \"#utility.yul\":14887:14906   */\n      add\n      swap1\n        /* \"#utility.yul\":14511:14912   */\n      jump\t// out\n        /* \"#utility.yul\":16037:16451   */\n    tag_343:\n        /* \"#utility.yul\":16239:16241   */\n      0x20\n        /* \"#utility.yul\":16221:16242   */\n      dup1\n      dup3\n      mstore\n        /* \"#utility.yul\":16278:16280   */\n      0x32\n        /* \"#utility.yul\":16258:16276   */\n      swap1\n      dup3\n      add\n        /* \"#utility.yul\":16251:16281   */\n      mstore\n        /* \"#utility.yul\":16317:16351   */\n      0x4552433732313a207472616e7366657220746f206e6f6e204552433732315265\n        /* \"#utility.yul\":16312:16314   */\n      0x40\n        /* \"#utility.yul\":16297:16315   */\n      dup3\n      add\n        /* \"#utility.yul\":16290:16352   */\n      mstore\n      shl(0x71, 0x31b2b4bb32b91034b6b83632b6b2b73a32b9)\n        /* \"#utility.yul\":16383:16385   */\n      0x60\n        /* \"#utility.yul\":16368:16386   */\n      dup3\n      add\n        /* \"#utility.yul\":16361:16409   */\n      mstore\n        /* \"#utility.yul\":16441:16444   */\n      0x80\n        /* \"#utility.yul\":16426:16445   */\n      add\n      swap1\n        /* \"#utility.yul\":16037:16451   */\n      jump\t// out\n        /* \"#utility.yul\":16588:17077   */\n    tag_374:\n      sub(shl(0xa0, 0x01), 0x01)\n        /* \"#utility.yul\":16857:16872   */\n      dup6\n      dup2\n      and\n        /* \"#utility.yul\":16839:16873   */\n      dup3\n      mstore\n        /* \"#utility.yul\":16909:16924   */\n      dup5\n      and\n        /* \"#utility.yul\":16904:16906   */\n      0x20\n        /* \"#utility.yul\":16889:16907   */\n      dup3\n      add\n        /* \"#utility.yul\":16882:16925   */\n      mstore\n        /* \"#utility.yul\":16956:16958   */\n      0x40\n        /* \"#utility.yul\":16941:16959   */\n      dup2\n      add\n        /* \"#utility.yul\":16934:16968   */\n      dup4\n      swap1\n      mstore\n        /* \"#utility.yul\":17004:17007   */\n      0x80\n        /* \"#utility.yul\":16999:17001   */\n      0x60\n        /* \"#utility.yul\":16984:17002   */\n      dup3\n      add\n        /* \"#utility.yul\":16977:17008   */\n      dup2\n      swap1\n      mstore\n        /* \"#utility.yul\":16782:16786   */\n      0x00\n      swap1\n        /* \"#utility.yul\":17025:17071   */\n      tag_474\n      swap1\n        /* \"#utility.yul\":17051:17070   */\n      dup4\n      add\n        /* \"#utility.yul\":17043:17049   */\n      dup5\n        /* \"#utility.yul\":17025:17071   */\n      tag_425\n      jump\t// in\n        /* \"#utility.yul\":17082:17331   */\n    tag_377:\n        /* \"#utility.yul\":17151:17157   */\n      0x00\n        /* \"#utility.yul\":17204:17206   */\n      0x20\n        /* \"#utility.yul\":17192:17201   */\n      dup3\n        /* \"#utility.yul\":17183:17190   */\n      dup5\n        /* \"#utility.yul\":17179:17202   */\n      sub\n        /* \"#utility.yul\":17175:17207   */\n      slt\n        /* \"#utility.yul\":17172:17224   */\n      iszero\n      tag_563\n      jumpi\n        /* \"#utility.yul\":17220:17221   */\n      0x00\n        /* \"#utility.yul\":17217:17218   */\n      dup1\n        /* \"#utility.yul\":17210:17222   */\n      revert\n        /* \"#utility.yul\":17172:17224   */\n    tag_563:\n        /* \"#utility.yul\":17252:17261   */\n      dup2\n        /* \"#utility.yul\":17246:17262   */\n      mload\n        /* \"#utility.yul\":17271:17301   */\n      tag_276\n        /* \"#utility.yul\":17295:17300   */\n      dup2\n        /* \"#utility.yul\":17271:17301   */\n      tag_423\n      jump\t// in\n\n    auxdata: 0xa2646970667358221220e77df0c3d87e4c9d5f576c733876ba259bbd2126eaa7da056abfc555ce52125d64736f6c63430008120033\n}\n",
				"bytecode": {
					"linkReferences": {},
					"object": "60806040523480156200001157600080fd5b506040518060400160405280600b81526020016a2a37b5b2b726b0b9ba32b960a91b81525060405180604001604052806002815260200161544d60f01b81525081600090816200006291906200018f565b5060016200007182826200018f565b5050506200008e620000886200009460201b60201c565b62000098565b6200025b565b3390565b600680546001600160a01b038381166001600160a01b0319831681179093556040519116919082907f8be0079c531659141344cd1fd0a4f28419497f9722a3daafe3b4186f6b6457e090600090a35050565b634e487b7160e01b600052604160045260246000fd5b600181811c908216806200011557607f821691505b6020821081036200013657634e487b7160e01b600052602260045260246000fd5b50919050565b601f8211156200018a57600081815260208120601f850160051c81016020861015620001655750805b601f850160051c820191505b81811015620001865782815560010162000171565b5050505b505050565b81516001600160401b03811115620001ab57620001ab620000ea565b620001c381620001bc845462000100565b846200013c565b602080601f831160018114620001fb5760008415620001e25750858301515b600019600386901b1c1916600185901b17855562000186565b600085815260208120601f198616915b828110156200022c578886015182559484019460019091019084016200020b565b50858210156200024b5787850151600019600388901b60f8161c191681555b5050505050600190811b01905550565b611f4a806200026b6000396000f3fe6080604052600436106101405760003560e01c806374bc8656116100b6578063a22cb4651161006f578063a22cb465146103aa578063af296da1146103ca578063b88d4fde1461040b578063c87b56dd1461042b578063e985e9c51461044b578063f2fde38b1461046b57600080fd5b806374bc8656146102d95780638da5cb5b14610306578063953865c11461032457806395d89b411461033a5780639a382f0f1461034f5780639cb04aef1461036f57600080fd5b80630ef7ec74116101085780630ef7ec741461020957806323b872dd1461023657806342842e0e146102565780636352211e1461027657806370a0823114610296578063715018a6146102c457600080fd5b806301ffc9a7146101455780630414ab2b1461017a57806306fdde031461018f578063081812fc146101b1578063095ea7b3146101e9575b600080fd5b34801561015157600080fd5b50610165610160366004611769565b61048b565b60405190151581526020015b60405180910390f35b61018d610188366004611786565b6104dd565b005b34801561019b57600080fd5b506101a4610618565b60405161017191906117f8565b3480156101bd57600080fd5b506101d16101cc36600461180b565b6106aa565b6040516001600160a01b039091168152602001610171565b3480156101f557600080fd5b5061018d610204366004611840565b6106d1565b34801561021557600080fd5b5061022961022436600461180b565b6107e6565b604051610171919061186a565b34801561024257600080fd5b5061018d6102513660046118ae565b610848565b34801561026257600080fd5b5061018d6102713660046118ae565b610879565b34801561028257600080fd5b506101d161029136600461180b565b610894565b3480156102a257600080fd5b506102b66102b13660046118ea565b6108f4565b604051908152602001610171565b3480156102d057600080fd5b5061018d61097a565b3480156102e557600080fd5b506102f96102f436600461180b565b61098e565b6040516101719190611905565b34801561031257600080fd5b506006546001600160a01b03166101d1565b34801561033057600080fd5b506102b660085481565b34801561034657600080fd5b506101a4610c6c565b34801561035b57600080fd5b5061018d61036a366004611a5a565b610c7b565b34801561037b57600080fd5b5061016561038a366004611b19565b600a60209081526000928352604080842090915290825290205460ff1681565b3480156103b657600080fd5b5061018d6103c5366004611b45565b610d70565b3480156103d657600080fd5b506101d16103e5366004611786565b600b6020908152600092835260408084209091529082529020546001600160a01b031681565b34801561041757600080fd5b5061018d610426366004611b81565b610d7f565b34801561043757600080fd5b506101a461044636600461180b565b610db7565b34801561045757600080fd5b50610165610466366004611bfd565b610e2b565b34801561047757600080fd5b5061018d6104863660046118ea565b610e59565b60006001600160e01b031982166380ac58cd60e01b14806104bc57506001600160e01b03198216635b5e139f60e01b145b806104d757506301ffc9a760e01b6001600160e01b03198316145b92915050565b816000036104ea57600080fd5b6008548211156104f957600080fd5b60008281526009602052604090206002015434101561051757600080fd5b6000828152600b602090815260408083208484529091529020546001600160a01b03161561054457600080fd5b60008281526009602052604090206004015481111561056257600080fd5b6000828152600960205260408120600301805460019290610584908490611c3d565b90915550506000828152600a6020908152604080832033808552908352818420805460ff19166001908117909155868552600b8452828520868652845282852080546001600160a01b031916909217909155858452600c8352908320805491820181558352908220018290556105f960075490565b9050610609600780546001019055565b6106133382610ed2565b505050565b60606000805461062790611c50565b80601f016020809104026020016040519081016040528092919081815260200182805461065390611c50565b80156106a05780601f10610675576101008083540402835291602001916106a0565b820191906000526020600020905b81548152906001019060200180831161068357829003601f168201915b5050505050905090565b60006106b582610eec565b506000908152600460205260409020546001600160a01b031690565b60006106dc82610894565b9050806001600160a01b0316836001600160a01b03160361074e5760405162461bcd60e51b815260206004820152602160248201527f4552433732313a20617070726f76616c20746f2063757272656e74206f776e656044820152603960f91b60648201526084015b60405180910390fd5b336001600160a01b038216148061076a575061076a8133610e2b565b6107dc5760405162461bcd60e51b815260206004820152603d60248201527f4552433732313a20617070726f76652063616c6c6572206973206e6f7420746f60448201527f6b656e206f776e6572206f7220617070726f76656420666f7220616c6c0000006064820152608401610745565b6106138383610f4b565b6000818152600c602090815260409182902080548351818402810184019094528084526060939283018282801561083c57602002820191906000526020600020905b815481526020019060010190808311610828575b50505050509050919050565b6108523382610fb9565b61086e5760405162461bcd60e51b815260040161074590611c8a565b610613838383611018565b61061383838360405180602001604052806000815250610d7f565b6000818152600260205260408120546001600160a01b0316806104d75760405162461bcd60e51b8152602060048201526018602482015277115490cdcc8c4e881a5b9d985b1a59081d1bdad95b88125160421b6044820152606401610745565b60006001600160a01b03821661095e5760405162461bcd60e51b815260206004820152602960248201527f4552433732313a2061646472657373207a65726f206973206e6f7420612076616044820152683634b21037bbb732b960b91b6064820152608401610745565b506001600160a01b031660009081526003602052604090205490565b61098261117c565b61098c60006111d6565b565b6109d660405180610100016040528060008152602001606081526020016000815260200160008152602001600081526020016060815260200160608152602001606081525090565b600960008381526020019081526020016000206040518061010001604052908160008201548152602001600182018054610a0f90611c50565b80601f0160208091040260200160405190810160405280929190818152602001828054610a3b90611c50565b8015610a885780601f10610a5d57610100808354040283529160200191610a88565b820191906000526020600020905b815481529060010190602001808311610a6b57829003601f168201915b50505050508152602001600282015481526020016003820154815260200160048201548152602001600582018054610abf90611c50565b80601f0160208091040260200160405190810160405280929190818152602001828054610aeb90611c50565b8015610b385780601f10610b0d57610100808354040283529160200191610b38565b820191906000526020600020905b815481529060010190602001808311610b1b57829003601f168201915b50505050508152602001600682018054610b5190611c50565b80601f0160208091040260200160405190810160405280929190818152602001828054610b7d90611c50565b8015610bca5780601f10610b9f57610100808354040283529160200191610bca565b820191906000526020600020905b815481529060010190602001808311610bad57829003601f168201915b50505050508152602001600782018054610be390611c50565b80601f0160208091040260200160405190810160405280929190818152602001828054610c0f90611c50565b8015610c5c5780601f10610c3157610100808354040283529160200191610c5c565b820191906000526020600020905b815481529060010190602001808311610c3f57829003601f168201915b5050505050815250509050919050565b60606001805461062790611c50565b610c8361117c565b60088054906000610c9383611cd7565b9190505550604051806101000160405280600854815260200187815260200186815260200185815260200185815260200184815260200183815260200182815250600960006008548152602001908152602001600020600082015181600001556020820151816001019081610d089190611d3e565b5060408201516002820155606082015160038201556080820151600482015560a08201516005820190610d3b9082611d3e565b5060c08201516006820190610d509082611d3e565b5060e08201516007820190610d659082611d3e565b505050505050505050565b610d7b338383611228565b5050565b610d893383610fb9565b610da55760405162461bcd60e51b815260040161074590611c8a565b610db1848484846112f6565b50505050565b6060610dc282610eec565b6000610dd960408051602081019091526000815290565b90506000815111610df95760405180602001604052806000815250610e24565b80610e0384611329565b604051602001610e14929190611dfe565b6040516020818303038152906040525b9392505050565b6001600160a01b03918216600090815260056020908152604080832093909416825291909152205460ff1690565b610e6161117c565b6001600160a01b038116610ec65760405162461bcd60e51b815260206004820152602660248201527f4f776e61626c653a206e6577206f776e657220697320746865207a65726f206160448201526564647265737360d01b6064820152608401610745565b610ecf816111d6565b50565b610d7b8282604051806020016040528060008152506113bc565b6000818152600260205260409020546001600160a01b0316610ecf5760405162461bcd60e51b8152602060048201526018602482015277115490cdcc8c4e881a5b9d985b1a59081d1bdad95b88125160421b6044820152606401610745565b600081815260046020526040902080546001600160a01b0319166001600160a01b0384169081179091558190610f8082610894565b6001600160a01b03167f8c5be1e5ebec7d5bd14f71427d1e84f3dd0314c0f7b2291e5b200ac8c7c3b92560405160405180910390a45050565b600080610fc583610894565b9050806001600160a01b0316846001600160a01b03161480610fec5750610fec8185610e2b565b806110105750836001600160a01b0316611005846106aa565b6001600160a01b0316145b949350505050565b826001600160a01b031661102b82610894565b6001600160a01b0316146110515760405162461bcd60e51b815260040161074590611e2d565b6001600160a01b0382166110b35760405162461bcd60e51b8152602060048201526024808201527f4552433732313a207472616e7366657220746f20746865207a65726f206164646044820152637265737360e01b6064820152608401610745565b826001600160a01b03166110c682610894565b6001600160a01b0316146110ec5760405162461bcd60e51b815260040161074590611e2d565b600081815260046020908152604080832080546001600160a01b03199081169091556001600160a01b0387811680865260038552838620805460001901905590871680865283862080546001019055868652600290945282852080549092168417909155905184937fddf252ad1be2c89b69c2b068fc378daa952ba7f163c4a11628f55a4df523b3ef91a4505050565b6006546001600160a01b0316331461098c5760405162461bcd60e51b815260206004820181905260248201527f4f776e61626c653a2063616c6c6572206973206e6f7420746865206f776e65726044820152606401610745565b600680546001600160a01b038381166001600160a01b0319831681179093556040519116919082907f8be0079c531659141344cd1fd0a4f28419497f9722a3daafe3b4186f6b6457e090600090a35050565b816001600160a01b0316836001600160a01b0316036112895760405162461bcd60e51b815260206004820152601960248201527f4552433732313a20617070726f766520746f2063616c6c6572000000000000006044820152606401610745565b6001600160a01b03838116600081815260056020908152604080832094871680845294825291829020805460ff191686151590811790915591519182527f17307eab39ab6107e8899845ad3d59bd9653f200f220920489ca2b5937696c31910160405180910390a3505050565b611301848484611018565b61130d848484846113ef565b610db15760405162461bcd60e51b815260040161074590611e72565b60606000611336836114f0565b600101905060008167ffffffffffffffff811115611356576113566119ae565b6040519080825280601f01601f191660200182016040528015611380576020820181803683370190505b5090508181016020015b600019016f181899199a1a9b1b9c1cb0b131b232b360811b600a86061a8153600a850494508461138a57509392505050565b6113c683836115c8565b6113d360008484846113ef565b6106135760405162461bcd60e51b815260040161074590611e72565b60006001600160a01b0384163b156114e557604051630a85bd0160e11b81526001600160a01b0385169063150b7a0290611433903390899088908890600401611ec4565b6020604051808303816000875af192505050801561146e575060408051601f3d908101601f1916820190925261146b91810190611ef7565b60015b6114cb573d80801561149c576040519150601f19603f3d011682016040523d82523d6000602084013e6114a1565b606091505b5080516000036114c35760405162461bcd60e51b815260040161074590611e72565b805181602001fd5b6001600160e01b031916630a85bd0160e11b149050611010565b506001949350505050565b60008072184f03e93ff9f4daa797ed6e38ed64bf6a1f0160401b831061152f5772184f03e93ff9f4daa797ed6e38ed64bf6a1f0160401b830492506040015b6d04ee2d6d415b85acef8100000000831061155b576d04ee2d6d415b85acef8100000000830492506020015b662386f26fc10000831061157957662386f26fc10000830492506010015b6305f5e1008310611591576305f5e100830492506008015b61271083106115a557612710830492506004015b606483106115b7576064830492506002015b600a83106104d75760010192915050565b6001600160a01b03821661161e5760405162461bcd60e51b815260206004820181905260248201527f4552433732313a206d696e7420746f20746865207a65726f20616464726573736044820152606401610745565b6000818152600260205260409020546001600160a01b0316156116835760405162461bcd60e51b815260206004820152601c60248201527f4552433732313a20746f6b656e20616c7265616479206d696e746564000000006044820152606401610745565b6000818152600260205260409020546001600160a01b0316156116e85760405162461bcd60e51b815260206004820152601c60248201527f4552433732313a20746f6b656e20616c7265616479206d696e746564000000006044820152606401610745565b6001600160a01b038216600081815260036020908152604080832080546001019055848352600290915280822080546001600160a01b0319168417905551839291907fddf252ad1be2c89b69c2b068fc378daa952ba7f163c4a11628f55a4df523b3ef908290a45050565b6001600160e01b031981168114610ecf57600080fd5b60006020828403121561177b57600080fd5b8135610e2481611753565b6000806040838503121561179957600080fd5b50508035926020909101359150565b60005b838110156117c35781810151838201526020016117ab565b50506000910152565b600081518084526117e48160208601602086016117a8565b601f01601f19169290920160200192915050565b602081526000610e2460208301846117cc565b60006020828403121561181d57600080fd5b5035919050565b80356001600160a01b038116811461183b57600080fd5b919050565b6000806040838503121561185357600080fd5b61185c83611824565b946020939093013593505050565b6020808252825182820181905260009190848201906040850190845b818110156118a257835183529284019291840191600101611886565b50909695505050505050565b6000806000606084860312156118c357600080fd5b6118cc84611824565b92506118da60208501611824565b9150604084013590509250925092565b6000602082840312156118fc57600080fd5b610e2482611824565b60208152815160208201526000602083015161010080604085015261192e6101208501836117cc565b91506040850151606085015260608501516080850152608085015160a085015260a0850151601f19808685030160c087015261196a84836117cc565b935060c08701519150808685030160e087015261198784836117cc565b935060e08701519150808685030183870152506119a483826117cc565b9695505050505050565b634e487b7160e01b600052604160045260246000fd5b600067ffffffffffffffff808411156119df576119df6119ae565b604051601f8501601f19908116603f01168101908282118183101715611a0757611a076119ae565b81604052809350858152868686011115611a2057600080fd5b858560208301376000602087830101525050509392505050565b600082601f830112611a4b57600080fd5b610e24838335602085016119c4565b60008060008060008060c08789031215611a7357600080fd5b863567ffffffffffffffff80821115611a8b57600080fd5b611a978a838b01611a3a565b975060208901359650604089013595506060890135915080821115611abb57600080fd5b611ac78a838b01611a3a565b94506080890135915080821115611add57600080fd5b611ae98a838b01611a3a565b935060a0890135915080821115611aff57600080fd5b50611b0c89828a01611a3a565b9150509295509295509295565b60008060408385031215611b2c57600080fd5b82359150611b3c60208401611824565b90509250929050565b60008060408385031215611b5857600080fd5b611b6183611824565b915060208301358015158114611b7657600080fd5b809150509250929050565b60008060008060808587031215611b9757600080fd5b611ba085611824565b9350611bae60208601611824565b925060408501359150606085013567ffffffffffffffff811115611bd157600080fd5b8501601f81018713611be257600080fd5b611bf1878235602084016119c4565b91505092959194509250565b60008060408385031215611c1057600080fd5b611c1983611824565b9150611b3c60208401611824565b634e487b7160e01b600052601160045260246000fd5b818103818111156104d7576104d7611c27565b600181811c90821680611c6457607f821691505b602082108103611c8457634e487b7160e01b600052602260045260246000fd5b50919050565b6020808252602d908201527f4552433732313a2063616c6c6572206973206e6f7420746f6b656e206f776e6560408201526c1c881bdc88185c1c1c9bdd9959609a1b606082015260800190565b600060018201611ce957611ce9611c27565b5060010190565b601f82111561061357600081815260208120601f850160051c81016020861015611d175750805b601f850160051c820191505b81811015611d3657828155600101611d23565b505050505050565b815167ffffffffffffffff811115611d5857611d586119ae565b611d6c81611d668454611c50565b84611cf0565b602080601f831160018114611da15760008415611d895750858301515b600019600386901b1c1916600185901b178555611d36565b600085815260208120601f198616915b82811015611dd057888601518255948401946001909101908401611db1565b5085821015611dee5787850151600019600388901b60f8161c191681555b5050505050600190811b01905550565b60008351611e108184602088016117a8565b835190830190611e248183602088016117a8565b01949350505050565b60208082526025908201527f4552433732313a207472616e736665722066726f6d20696e636f72726563742060408201526437bbb732b960d91b606082015260800190565b60208082526032908201527f4552433732313a207472616e7366657220746f206e6f6e20455243373231526560408201527131b2b4bb32b91034b6b83632b6b2b73a32b960711b606082015260800190565b6001600160a01b03858116825284166020820152604081018390526080606082018190526000906119a4908301846117cc565b600060208284031215611f0957600080fd5b8151610e248161175356fea2646970667358221220e77df0c3d87e4c9d5f576c733876ba259bbd2126eaa7da056abfc555ce52125d64736f6c63430008120033",
					"opcodes": "PUSH1 0x80 PUSH1 0x40 MSTORE CALLVALUE DUP1 ISZERO PUSH3 0x11 JUMPI PUSH1 0x0 DUP1 REVERT JUMPDEST POP PUSH1 0x40 MLOAD DUP1 PUSH1 0x40 ADD PUSH1 0x40 MSTORE DUP1 PUSH1 0xB DUP2 MSTORE PUSH1 0x20 ADD PUSH11 0x2A37B5B2B726B0B9BA32B9 PUSH1 0xA9 SHL DUP2 MSTORE POP PUSH1 0x40 MLOAD DUP1 PUSH1 0x40 ADD PUSH1 0x40 MSTORE DUP1 PUSH1 0x2 DUP2 MSTORE PUSH1 0x20 ADD PUSH2 0x544D PUSH1 0xF0 SHL DUP2 MSTORE POP DUP2 PUSH1 0x0 SWAP1 DUP2 PUSH3 0x62 SWAP2 SWAP1 PUSH3 0x18F JUMP JUMPDEST POP PUSH1 0x1 PUSH3 0x71 DUP3 DUP3 PUSH3 0x18F JUMP JUMPDEST POP POP POP PUSH3 0x8E PUSH3 0x88 PUSH3 0x94 PUSH1 0x20 SHL PUSH1 0x20 SHR JUMP JUMPDEST PUSH3 0x98 JUMP JUMPDEST PUSH3 0x25B JUMP JUMPDEST CALLER SWAP1 JUMP JUMPDEST PUSH1 0x6 DUP1 SLOAD PUSH1 0x1 PUSH1 0x1 PUSH1 0xA0 SHL SUB DUP4 DUP2 AND PUSH1 0x1 PUSH1 0x1 PUSH1 0xA0 SHL SUB NOT DUP4 AND DUP2 OR SWAP1 SWAP4 SSTORE PUSH1 0x40 MLOAD SWAP2 AND SWAP2 SWAP1 DUP3 SWAP1 PUSH32 0x8BE0079C531659141344CD1FD0A4F28419497F9722A3DAAFE3B4186F6B6457E0 SWAP1 PUSH1 0x0 SWAP1 LOG3 POP POP JUMP JUMPDEST PUSH4 0x4E487B71 PUSH1 0xE0 SHL PUSH1 0x0 MSTORE PUSH1 0x41 PUSH1 0x4 MSTORE PUSH1 0x24 PUSH1 0x0 REVERT JUMPDEST PUSH1 0x1 DUP2 DUP2 SHR SWAP1 DUP3 AND DUP1 PUSH3 0x115 JUMPI PUSH1 0x7F DUP3 AND SWAP2 POP JUMPDEST PUSH1 0x20 DUP3 LT DUP2 SUB PUSH3 0x136 JUMPI PUSH4 0x4E487B71 PUSH1 0xE0 SHL PUSH1 0x0 MSTORE PUSH1 0x22 PUSH1 0x4 MSTORE PUSH1 0x24 PUSH1 0x0 REVERT JUMPDEST POP SWAP2 SWAP1 POP JUMP JUMPDEST PUSH1 0x1F DUP3 GT ISZERO PUSH3 0x18A JUMPI PUSH1 0x0 DUP2 DUP2 MSTORE PUSH1 0x20 DUP2 KECCAK256 PUSH1 0x1F DUP6 ADD PUSH1 0x5 SHR DUP2 ADD PUSH1 0x20 DUP7 LT ISZERO PUSH3 0x165 JUMPI POP DUP1 JUMPDEST PUSH1 0x1F DUP6 ADD PUSH1 0x5 SHR DUP3 ADD SWAP2 POP JUMPDEST DUP2 DUP2 LT ISZERO PUSH3 0x186 JUMPI DUP3 DUP2 SSTORE PUSH1 0x1 ADD PUSH3 0x171 JUMP JUMPDEST POP POP POP JUMPDEST POP POP POP JUMP JUMPDEST DUP2 MLOAD PUSH1 0x1 PUSH1 0x1 PUSH1 0x40 SHL SUB DUP2 GT ISZERO PUSH3 0x1AB JUMPI PUSH3 0x1AB PUSH3 0xEA JUMP JUMPDEST PUSH3 0x1C3 DUP2 PUSH3 0x1BC DUP5 SLOAD PUSH3 0x100 JUMP JUMPDEST DUP5 PUSH3 0x13C JUMP JUMPDEST PUSH1 0x20 DUP1 PUSH1 0x1F DUP4 GT PUSH1 0x1 DUP2 EQ PUSH3 0x1FB JUMPI PUSH1 0x0 DUP5 ISZERO PUSH3 0x1E2 JUMPI POP DUP6 DUP4 ADD MLOAD JUMPDEST PUSH1 0x0 NOT PUSH1 0x3 DUP7 SWAP1 SHL SHR NOT AND PUSH1 0x1 DUP6 SWAP1 SHL OR DUP6 SSTORE PUSH3 0x186 JUMP JUMPDEST PUSH1 0x0 DUP6 DUP2 MSTORE PUSH1 0x20 DUP2 KECCAK256 PUSH1 0x1F NOT DUP7 AND SWAP2 JUMPDEST DUP3 DUP2 LT ISZERO PUSH3 0x22C JUMPI DUP9 DUP7 ADD MLOAD DUP3 SSTORE SWAP5 DUP5 ADD SWAP5 PUSH1 0x1 SWAP1 SWAP2 ADD SWAP1 DUP5 ADD PUSH3 0x20B JUMP JUMPDEST POP DUP6 DUP3 LT ISZERO PUSH3 0x24B JUMPI DUP8 DUP6 ADD MLOAD PUSH1 0x0 NOT PUSH1 0x3 DUP9 SWAP1 SHL PUSH1 0xF8 AND SHR NOT AND DUP2 SSTORE JUMPDEST POP POP POP POP POP PUSH1 0x1 SWAP1 DUP2 SHL ADD SWAP1 SSTORE POP JUMP JUMPDEST PUSH2 0x1F4A DUP1 PUSH3 0x26B PUSH1 0x0 CODECOPY PUSH1 0x0 RETURN INVALID PUSH1 0x80 PUSH1 0x40 MSTORE PUSH1 0x4 CALLDATASIZE LT PUSH2 0x140 JUMPI PUSH1 0x0 CALLDATALOAD PUSH1 0xE0 SHR DUP1 PUSH4 0x74BC8656 GT PUSH2 0xB6 JUMPI DUP1 PUSH4 0xA22CB465 GT PUSH2 0x6F JUMPI DUP1 PUSH4 0xA22CB465 EQ PUSH2 0x3AA JUMPI DUP1 PUSH4 0xAF296DA1 EQ PUSH2 0x3CA JUMPI DUP1 PUSH4 0xB88D4FDE EQ PUSH2 0x40B JUMPI DUP1 PUSH4 0xC87B56DD EQ PUSH2 0x42B JUMPI DUP1 PUSH4 0xE985E9C5 EQ PUSH2 0x44B JUMPI DUP1 PUSH4 0xF2FDE38B EQ PUSH2 0x46B JUMPI PUSH1 0x0 DUP1 REVERT JUMPDEST DUP1 PUSH4 0x74BC8656 EQ PUSH2 0x2D9 JUMPI DUP1 PUSH4 0x8DA5CB5B EQ PUSH2 0x306 JUMPI DUP1 PUSH4 0x953865C1 EQ PUSH2 0x324 JUMPI DUP1 PUSH4 0x95D89B41 EQ PUSH2 0x33A JUMPI DUP1 PUSH4 0x9A382F0F EQ PUSH2 0x34F JUMPI DUP1 PUSH4 0x9CB04AEF EQ PUSH2 0x36F JUMPI PUSH1 0x0 DUP1 REVERT JUMPDEST DUP1 PUSH4 0xEF7EC74 GT PUSH2 0x108 JUMPI DUP1 PUSH4 0xEF7EC74 EQ PUSH2 0x209 JUMPI DUP1 PUSH4 0x23B872DD EQ PUSH2 0x236 JUMPI DUP1 PUSH4 0x42842E0E EQ PUSH2 0x256 JUMPI DUP1 PUSH4 0x6352211E EQ PUSH2 0x276 JUMPI DUP1 PUSH4 0x70A08231 EQ PUSH2 0x296 JUMPI DUP1 PUSH4 0x715018A6 EQ PUSH2 0x2C4 JUMPI PUSH1 0x0 DUP1 REVERT JUMPDEST DUP1 PUSH4 0x1FFC9A7 EQ PUSH2 0x145 JUMPI DUP1 PUSH4 0x414AB2B EQ PUSH2 0x17A JUMPI DUP1 PUSH4 0x6FDDE03 EQ PUSH2 0x18F JUMPI DUP1 PUSH4 0x81812FC EQ PUSH2 0x1B1 JUMPI DUP1 PUSH4 0x95EA7B3 EQ PUSH2 0x1E9 JUMPI JUMPDEST PUSH1 0x0 DUP1 REVERT JUMPDEST CALLVALUE DUP1 ISZERO PUSH2 0x151 JUMPI PUSH1 0x0 DUP1 REVERT JUMPDEST POP PUSH2 0x165 PUSH2 0x160 CALLDATASIZE PUSH1 0x4 PUSH2 0x1769 JUMP JUMPDEST PUSH2 0x48B JUMP JUMPDEST PUSH1 0x40 MLOAD SWAP1 ISZERO ISZERO DUP2 MSTORE PUSH1 0x20 ADD JUMPDEST PUSH1 0x40 MLOAD DUP1 SWAP2 SUB SWAP1 RETURN JUMPDEST PUSH2 0x18D PUSH2 0x188 CALLDATASIZE PUSH1 0x4 PUSH2 0x1786 JUMP JUMPDEST PUSH2 0x4DD JUMP JUMPDEST STOP JUMPDEST CALLVALUE DUP1 ISZERO PUSH2 0x19B JUMPI PUSH1 0x0 DUP1 REVERT JUMPDEST POP PUSH2 0x1A4 PUSH2 0x618 JUMP JUMPDEST PUSH1 0x40 MLOAD PUSH2 0x171 SWAP2 SWAP1 PUSH2 0x17F8 JUMP JUMPDEST CALLVALUE DUP1 ISZERO PUSH2 0x1BD JUMPI PUSH1 0x0 DUP1 REVERT JUMPDEST POP PUSH2 0x1D1 PUSH2 0x1CC CALLDATASIZE PUSH1 0x4 PUSH2 0x180B JUMP JUMPDEST PUSH2 0x6AA JUMP JUMPDEST PUSH1 0x40 MLOAD PUSH1 0x1 PUSH1 0x1 PUSH1 0xA0 SHL SUB SWAP1 SWAP2 AND DUP2 MSTORE PUSH1 0x20 ADD PUSH2 0x171 JUMP JUMPDEST CALLVALUE DUP1 ISZERO PUSH2 0x1F5 JUMPI PUSH1 0x0 DUP1 REVERT JUMPDEST POP PUSH2 0x18D PUSH2 0x204 CALLDATASIZE PUSH1 0x4 PUSH2 0x1840 JUMP JUMPDEST PUSH2 0x6D1 JUMP JUMPDEST CALLVALUE DUP1 ISZERO PUSH2 0x215 JUMPI PUSH1 0x0 DUP1 REVERT JUMPDEST POP PUSH2 0x229 PUSH2 0x224 CALLDATASIZE PUSH1 0x4 PUSH2 0x180B JUMP JUMPDEST PUSH2 0x7E6 JUMP JUMPDEST PUSH1 0x40 MLOAD PUSH2 0x171 SWAP2 SWAP1 PUSH2 0x186A JUMP JUMPDEST CALLVALUE DUP1 ISZERO PUSH2 0x242 JUMPI PUSH1 0x0 DUP1 REVERT JUMPDEST POP PUSH2 0x18D PUSH2 0x251 CALLDATASIZE PUSH1 0x4 PUSH2 0x18AE JUMP JUMPDEST PUSH2 0x848 JUMP JUMPDEST CALLVALUE DUP1 ISZERO PUSH2 0x262 JUMPI PUSH1 0x0 DUP1 REVERT JUMPDEST POP PUSH2 0x18D PUSH2 0x271 CALLDATASIZE PUSH1 0x4 PUSH2 0x18AE JUMP JUMPDEST PUSH2 0x879 JUMP JUMPDEST CALLVALUE DUP1 ISZERO PUSH2 0x282 JUMPI PUSH1 0x0 DUP1 REVERT JUMPDEST POP PUSH2 0x1D1 PUSH2 0x291 CALLDATASIZE PUSH1 0x4 PUSH2 0x180B JUMP JUMPDEST PUSH2 0x894 JUMP JUMPDEST CALLVALUE DUP1 ISZERO PUSH2 0x2A2 JUMPI PUSH1 0x0 DUP1 REVERT JUMPDEST POP PUSH2 0x2B6 PUSH2 0x2B1 CALLDATASIZE PUSH1 0x4 PUSH2 0x18EA JUMP JUMPDEST PUSH2 0x8F4 JUMP JUMPDEST PUSH1 0x40 MLOAD SWAP1 DUP2 MSTORE PUSH1 0x20 ADD PUSH2 0x171 JUMP JUMPDEST CALLVALUE DUP1 ISZERO PUSH2 0x2D0 JUMPI PUSH1 0x0 DUP1 REVERT JUMPDEST POP PUSH2 0x18D PUSH2 0x97A JUMP JUMPDEST CALLVALUE DUP1 ISZERO PUSH2 0x2E5 JUMPI PUSH1 0x0 DUP1 REVERT JUMPDEST POP PUSH2 0x2F9 PUSH2 0x2F4 CALLDATASIZE PUSH1 0x4 PUSH2 0x180B JUMP JUMPDEST PUSH2 0x98E JUMP JUMPDEST PUSH1 0x40 MLOAD PUSH2 0x171 SWAP2 SWAP1 PUSH2 0x1905 JUMP JUMPDEST CALLVALUE DUP1 ISZERO PUSH2 0x312 JUMPI PUSH1 0x0 DUP1 REVERT JUMPDEST POP PUSH1 0x6 SLOAD PUSH1 0x1 PUSH1 0x1 PUSH1 0xA0 SHL SUB AND PUSH2 0x1D1 JUMP JUMPDEST CALLVALUE DUP1 ISZERO PUSH2 0x330 JUMPI PUSH1 0x0 DUP1 REVERT JUMPDEST POP PUSH2 0x2B6 PUSH1 0x8 SLOAD DUP2 JUMP JUMPDEST CALLVALUE DUP1 ISZERO PUSH2 0x346 JUMPI PUSH1 0x0 DUP1 REVERT JUMPDEST POP PUSH2 0x1A4 PUSH2 0xC6C JUMP JUMPDEST CALLVALUE DUP1 ISZERO PUSH2 0x35B JUMPI PUSH1 0x0 DUP1 REVERT JUMPDEST POP PUSH2 0x18D PUSH2 0x36A CALLDATASIZE PUSH1 0x4 PUSH2 0x1A5A JUMP JUMPDEST PUSH2 0xC7B JUMP JUMPDEST CALLVALUE DUP1 ISZERO PUSH2 0x37B JUMPI PUSH1 0x0 DUP1 REVERT JUMPDEST POP PUSH2 0x165 PUSH2 0x38A CALLDATASIZE PUSH1 0x4 PUSH2 0x1B19 JUMP JUMPDEST PUSH1 0xA PUSH1 0x20 SWAP1 DUP2 MSTORE PUSH1 0x0 SWAP3 DUP4 MSTORE PUSH1 0x40 DUP1 DUP5 KECCAK256 SWAP1 SWAP2 MSTORE SWAP1 DUP3 MSTORE SWAP1 KECCAK256 SLOAD PUSH1 0xFF AND DUP2 JUMP JUMPDEST CALLVALUE DUP1 ISZERO PUSH2 0x3B6 JUMPI PUSH1 0x0 DUP1 REVERT JUMPDEST POP PUSH2 0x18D PUSH2 0x3C5 CALLDATASIZE PUSH1 0x4 PUSH2 0x1B45 JUMP JUMPDEST PUSH2 0xD70 JUMP JUMPDEST CALLVALUE DUP1 ISZERO PUSH2 0x3D6 JUMPI PUSH1 0x0 DUP1 REVERT JUMPDEST POP PUSH2 0x1D1 PUSH2 0x3E5 CALLDATASIZE PUSH1 0x4 PUSH2 0x1786 JUMP JUMPDEST PUSH1 0xB PUSH1 0x20 SWAP1 DUP2 MSTORE PUSH1 0x0 SWAP3 DUP4 MSTORE PUSH1 0x40 DUP1 DUP5 KECCAK256 SWAP1 SWAP2 MSTORE SWAP1 DUP3 MSTORE SWAP1 KECCAK256 SLOAD PUSH1 0x1 PUSH1 0x1 PUSH1 0xA0 SHL SUB AND DUP2 JUMP JUMPDEST CALLVALUE DUP1 ISZERO PUSH2 0x417 JUMPI PUSH1 0x0 DUP1 REVERT JUMPDEST POP PUSH2 0x18D PUSH2 0x426 CALLDATASIZE PUSH1 0x4 PUSH2 0x1B81 JUMP JUMPDEST PUSH2 0xD7F JUMP JUMPDEST CALLVALUE DUP1 ISZERO PUSH2 0x437 JUMPI PUSH1 0x0 DUP1 REVERT JUMPDEST POP PUSH2 0x1A4 PUSH2 0x446 CALLDATASIZE PUSH1 0x4 PUSH2 0x180B JUMP JUMPDEST PUSH2 0xDB7 JUMP JUMPDEST CALLVALUE DUP1 ISZERO PUSH2 0x457 JUMPI PUSH1 0x0 DUP1 REVERT JUMPDEST POP PUSH2 0x165 PUSH2 0x466 CALLDATASIZE PUSH1 0x4 PUSH2 0x1BFD JUMP JUMPDEST PUSH2 0xE2B JUMP JUMPDEST CALLVALUE DUP1 ISZERO PUSH2 0x477 JUMPI PUSH1 0x0 DUP1 REVERT JUMPDEST POP PUSH2 0x18D PUSH2 0x486 CALLDATASIZE PUSH1 0x4 PUSH2 0x18EA JUMP JUMPDEST PUSH2 0xE59 JUMP JUMPDEST PUSH1 0x0 PUSH1 0x1 PUSH1 0x1 PUSH1 0xE0 SHL SUB NOT DUP3 AND PUSH4 0x80AC58CD PUSH1 0xE0 SHL EQ DUP1 PUSH2 0x4BC JUMPI POP PUSH1 0x1 PUSH1 0x1 PUSH1 0xE0 SHL SUB NOT DUP3 AND PUSH4 0x5B5E139F PUSH1 0xE0 SHL EQ JUMPDEST DUP1 PUSH2 0x4D7 JUMPI POP PUSH4 0x1FFC9A7 PUSH1 0xE0 SHL PUSH1 0x1 PUSH1 0x1 PUSH1 0xE0 SHL SUB NOT DUP4 AND EQ JUMPDEST SWAP3 SWAP2 POP POP JUMP JUMPDEST DUP2 PUSH1 0x0 SUB PUSH2 0x4EA JUMPI PUSH1 0x0 DUP1 REVERT JUMPDEST PUSH1 0x8 SLOAD DUP3 GT ISZERO PUSH2 0x4F9 JUMPI PUSH1 0x0 DUP1 REVERT JUMPDEST PUSH1 0x0 DUP3 DUP2 MSTORE PUSH1 0x9 PUSH1 0x20 MSTORE PUSH1 0x40 SWAP1 KECCAK256 PUSH1 0x2 ADD SLOAD CALLVALUE LT ISZERO PUSH2 0x517 JUMPI PUSH1 0x0 DUP1 REVERT JUMPDEST PUSH1 0x0 DUP3 DUP2 MSTORE PUSH1 0xB PUSH1 0x20 SWAP1 DUP2 MSTORE PUSH1 0x40 DUP1 DUP4 KECCAK256 DUP5 DUP5 MSTORE SWAP1 SWAP2 MSTORE SWAP1 KECCAK256 SLOAD PUSH1 0x1 PUSH1 0x1 PUSH1 0xA0 SHL SUB AND ISZERO PUSH2 0x544 JUMPI PUSH1 0x0 DUP1 REVERT JUMPDEST PUSH1 0x0 DUP3 DUP2 MSTORE PUSH1 0x9 PUSH1 0x20 MSTORE PUSH1 0x40 SWAP1 KECCAK256 PUSH1 0x4 ADD SLOAD DUP2 GT ISZERO PUSH2 0x562 JUMPI PUSH1 0x0 DUP1 REVERT JUMPDEST PUSH1 0x0 DUP3 DUP2 MSTORE PUSH1 0x9 PUSH1 0x20 MSTORE PUSH1 0x40 DUP2 KECCAK256 PUSH1 0x3 ADD DUP1 SLOAD PUSH1 0x1 SWAP3 SWAP1 PUSH2 0x584 SWAP1 DUP5 SWAP1 PUSH2 0x1C3D JUMP JUMPDEST SWAP1 SWAP2 SSTORE POP POP PUSH1 0x0 DUP3 DUP2 MSTORE PUSH1 0xA PUSH1 0x20 SWAP1 DUP2 MSTORE PUSH1 0x40 DUP1 DUP4 KECCAK256 CALLER DUP1 DUP6 MSTORE SWAP1 DUP4 MSTORE DUP2 DUP5 KECCAK256 DUP1 SLOAD PUSH1 0xFF NOT AND PUSH1 0x1 SWAP1 DUP2 OR SWAP1 SWAP2 SSTORE DUP7 DUP6 MSTORE PUSH1 0xB DUP5 MSTORE DUP3 DUP6 KECCAK256 DUP7 DUP7 MSTORE DUP5 MSTORE DUP3 DUP6 KECCAK256 DUP1 SLOAD PUSH1 0x1 PUSH1 0x1 PUSH1 0xA0 SHL SUB NOT AND SWAP1 SWAP3 OR SWAP1 SWAP2 SSTORE DUP6 DUP5 MSTORE PUSH1 0xC DUP4 MSTORE SWAP1 DUP4 KECCAK256 DUP1 SLOAD SWAP2 DUP3 ADD DUP2 SSTORE DUP4 MSTORE SWAP1 DUP3 KECCAK256 ADD DUP3 SWAP1 SSTORE PUSH2 0x5F9 PUSH1 0x7 SLOAD SWAP1 JUMP JUMPDEST SWAP1 POP PUSH2 0x609 PUSH1 0x7 DUP1 SLOAD PUSH1 0x1 ADD SWAP1 SSTORE JUMP JUMPDEST PUSH2 0x613 CALLER DUP3 PUSH2 0xED2 JUMP JUMPDEST POP POP POP JUMP JUMPDEST PUSH1 0x60 PUSH1 0x0 DUP1 SLOAD PUSH2 0x627 SWAP1 PUSH2 0x1C50 JUMP JUMPDEST DUP1 PUSH1 0x1F ADD PUSH1 0x20 DUP1 SWAP2 DIV MUL PUSH1 0x20 ADD PUSH1 0x40 MLOAD SWAP1 DUP2 ADD PUSH1 0x40 MSTORE DUP1 SWAP3 SWAP2 SWAP1 DUP2 DUP2 MSTORE PUSH1 0x20 ADD DUP3 DUP1 SLOAD PUSH2 0x653 SWAP1 PUSH2 0x1C50 JUMP JUMPDEST DUP1 ISZERO PUSH2 0x6A0 JUMPI DUP1 PUSH1 0x1F LT PUSH2 0x675 JUMPI PUSH2 0x100 DUP1 DUP4 SLOAD DIV MUL DUP4 MSTORE SWAP2 PUSH1 0x20 ADD SWAP2 PUSH2 0x6A0 JUMP JUMPDEST DUP3 ADD SWAP2 SWAP1 PUSH1 0x0 MSTORE PUSH1 0x20 PUSH1 0x0 KECCAK256 SWAP1 JUMPDEST DUP2 SLOAD DUP2 MSTORE SWAP1 PUSH1 0x1 ADD SWAP1 PUSH1 0x20 ADD DUP1 DUP4 GT PUSH2 0x683 JUMPI DUP3 SWAP1 SUB PUSH1 0x1F AND DUP3 ADD SWAP2 JUMPDEST POP POP POP POP POP SWAP1 POP SWAP1 JUMP JUMPDEST PUSH1 0x0 PUSH2 0x6B5 DUP3 PUSH2 0xEEC JUMP JUMPDEST POP PUSH1 0x0 SWAP1 DUP2 MSTORE PUSH1 0x4 PUSH1 0x20 MSTORE PUSH1 0x40 SWAP1 KECCAK256 SLOAD PUSH1 0x1 PUSH1 0x1 PUSH1 0xA0 SHL SUB AND SWAP1 JUMP JUMPDEST PUSH1 0x0 PUSH2 0x6DC DUP3 PUSH2 0x894 JUMP JUMPDEST SWAP1 POP DUP1 PUSH1 0x1 PUSH1 0x1 PUSH1 0xA0 SHL SUB AND DUP4 PUSH1 0x1 PUSH1 0x1 PUSH1 0xA0 SHL SUB AND SUB PUSH2 0x74E JUMPI PUSH1 0x40 MLOAD PUSH3 0x461BCD PUSH1 0xE5 SHL DUP2 MSTORE PUSH1 0x20 PUSH1 0x4 DUP3 ADD MSTORE PUSH1 0x21 PUSH1 0x24 DUP3 ADD MSTORE PUSH32 0x4552433732313A20617070726F76616C20746F2063757272656E74206F776E65 PUSH1 0x44 DUP3 ADD MSTORE PUSH1 0x39 PUSH1 0xF9 SHL PUSH1 0x64 DUP3 ADD MSTORE PUSH1 0x84 ADD JUMPDEST PUSH1 0x40 MLOAD DUP1 SWAP2 SUB SWAP1 REVERT JUMPDEST CALLER PUSH1 0x1 PUSH1 0x1 PUSH1 0xA0 SHL SUB DUP3 AND EQ DUP1 PUSH2 0x76A JUMPI POP PUSH2 0x76A DUP2 CALLER PUSH2 0xE2B JUMP JUMPDEST PUSH2 0x7DC JUMPI PUSH1 0x40 MLOAD PUSH3 0x461BCD PUSH1 0xE5 SHL DUP2 MSTORE PUSH1 0x20 PUSH1 0x4 DUP3 ADD MSTORE PUSH1 0x3D PUSH1 0x24 DUP3 ADD MSTORE PUSH32 0x4552433732313A20617070726F76652063616C6C6572206973206E6F7420746F PUSH1 0x44 DUP3 ADD MSTORE PUSH32 0x6B656E206F776E6572206F7220617070726F76656420666F7220616C6C000000 PUSH1 0x64 DUP3 ADD MSTORE PUSH1 0x84 ADD PUSH2 0x745 JUMP JUMPDEST PUSH2 0x613 DUP4 DUP4 PUSH2 0xF4B JUMP JUMPDEST PUSH1 0x0 DUP2 DUP2 MSTORE PUSH1 0xC PUSH1 0x20 SWAP1 DUP2 MSTORE PUSH1 0x40 SWAP2 DUP3 SWAP1 KECCAK256 DUP1 SLOAD DUP4 MLOAD DUP2 DUP5 MUL DUP2 ADD DUP5 ADD SWAP1 SWAP5 MSTORE DUP1 DUP5 MSTORE PUSH1 0x60 SWAP4 SWAP3 DUP4 ADD DUP3 DUP3 DUP1 ISZERO PUSH2 0x83C JUMPI PUSH1 0x20 MUL DUP3 ADD SWAP2 SWAP1 PUSH1 0x0 MSTORE PUSH1 0x20 PUSH1 0x0 KECCAK256 SWAP1 JUMPDEST DUP2 SLOAD DUP2 MSTORE PUSH1 0x20 ADD SWAP1 PUSH1 0x1 ADD SWAP1 DUP1 DUP4 GT PUSH2 0x828 JUMPI JUMPDEST POP POP POP POP POP SWAP1 POP SWAP2 SWAP1 POP JUMP JUMPDEST PUSH2 0x852 CALLER DUP3 PUSH2 0xFB9 JUMP JUMPDEST PUSH2 0x86E JUMPI PUSH1 0x40 MLOAD PUSH3 0x461BCD PUSH1 0xE5 SHL DUP2 MSTORE PUSH1 0x4 ADD PUSH2 0x745 SWAP1 PUSH2 0x1C8A JUMP JUMPDEST PUSH2 0x613 DUP4 DUP4 DUP4 PUSH2 0x1018 JUMP JUMPDEST PUSH2 0x613 DUP4 DUP4 DUP4 PUSH1 0x40 MLOAD DUP1 PUSH1 0x20 ADD PUSH1 0x40 MSTORE DUP1 PUSH1 0x0 DUP2 MSTORE POP PUSH2 0xD7F JUMP JUMPDEST PUSH1 0x0 DUP2 DUP2 MSTORE PUSH1 0x2 PUSH1 0x20 MSTORE PUSH1 0x40 DUP2 KECCAK256 SLOAD PUSH1 0x1 PUSH1 0x1 PUSH1 0xA0 SHL SUB AND DUP1 PUSH2 0x4D7 JUMPI PUSH1 0x40 MLOAD PUSH3 0x461BCD PUSH1 0xE5 SHL DUP2 MSTORE PUSH1 0x20 PUSH1 0x4 DUP3 ADD MSTORE PUSH1 0x18 PUSH1 0x24 DUP3 ADD MSTORE PUSH24 0x115490CDCC8C4E881A5B9D985B1A59081D1BDAD95B881251 PUSH1 0x42 SHL PUSH1 0x44 DUP3 ADD MSTORE PUSH1 0x64 ADD PUSH2 0x745 JUMP JUMPDEST PUSH1 0x0 PUSH1 0x1 PUSH1 0x1 PUSH1 0xA0 SHL SUB DUP3 AND PUSH2 0x95E JUMPI PUSH1 0x40 MLOAD PUSH3 0x461BCD PUSH1 0xE5 SHL DUP2 MSTORE PUSH1 0x20 PUSH1 0x4 DUP3 ADD MSTORE PUSH1 0x29 PUSH1 0x24 DUP3 ADD MSTORE PUSH32 0x4552433732313A2061646472657373207A65726F206973206E6F742061207661 PUSH1 0x44 DUP3 ADD MSTORE PUSH9 0x3634B21037BBB732B9 PUSH1 0xB9 SHL PUSH1 0x64 DUP3 ADD MSTORE PUSH1 0x84 ADD PUSH2 0x745 JUMP JUMPDEST POP PUSH1 0x1 PUSH1 0x1 PUSH1 0xA0 SHL SUB AND PUSH1 0x0 SWAP1 DUP2 MSTORE PUSH1 0x3 PUSH1 0x20 MSTORE PUSH1 0x40 SWAP1 KECCAK256 SLOAD SWAP1 JUMP JUMPDEST PUSH2 0x982 PUSH2 0x117C JUMP JUMPDEST PUSH2 0x98C PUSH1 0x0 PUSH2 0x11D6 JUMP JUMPDEST JUMP JUMPDEST PUSH2 0x9D6 PUSH1 0x40 MLOAD DUP1 PUSH2 0x100 ADD PUSH1 0x40 MSTORE DUP1 PUSH1 0x0 DUP2 MSTORE PUSH1 0x20 ADD PUSH1 0x60 DUP2 MSTORE PUSH1 0x20 ADD PUSH1 0x0 DUP2 MSTORE PUSH1 0x20 ADD PUSH1 0x0 DUP2 MSTORE PUSH1 0x20 ADD PUSH1 0x0 DUP2 MSTORE PUSH1 0x20 ADD PUSH1 0x60 DUP2 MSTORE PUSH1 0x20 ADD PUSH1 0x60 DUP2 MSTORE PUSH1 0x20 ADD PUSH1 0x60 DUP2 MSTORE POP SWAP1 JUMP JUMPDEST PUSH1 0x9 PUSH1 0x0 DUP4 DUP2 MSTORE PUSH1 0x20 ADD SWAP1 DUP2 MSTORE PUSH1 0x20 ADD PUSH1 0x0 KECCAK256 PUSH1 0x40 MLOAD DUP1 PUSH2 0x100 ADD PUSH1 0x40 MSTORE SWAP1 DUP2 PUSH1 0x0 DUP3 ADD SLOAD DUP2 MSTORE PUSH1 0x20 ADD PUSH1 0x1 DUP3 ADD DUP1 SLOAD PUSH2 0xA0F SWAP1 PUSH2 0x1C50 JUMP JUMPDEST DUP1 PUSH1 0x1F ADD PUSH1 0x20 DUP1 SWAP2 DIV MUL PUSH1 0x20 ADD PUSH1 0x40 MLOAD SWAP1 DUP2 ADD PUSH1 0x40 MSTORE DUP1 SWAP3 SWAP2 SWAP1 DUP2 DUP2 MSTORE PUSH1 0x20 ADD DUP3 DUP1 SLOAD PUSH2 0xA3B SWAP1 PUSH2 0x1C50 JUMP JUMPDEST DUP1 ISZERO PUSH2 0xA88 JUMPI DUP1 PUSH1 0x1F LT PUSH2 0xA5D JUMPI PUSH2 0x100 DUP1 DUP4 SLOAD DIV MUL DUP4 MSTORE SWAP2 PUSH1 0x20 ADD SWAP2 PUSH2 0xA88 JUMP JUMPDEST DUP3 ADD SWAP2 SWAP1 PUSH1 0x0 MSTORE PUSH1 0x20 PUSH1 0x0 KECCAK256 SWAP1 JUMPDEST DUP2 SLOAD DUP2 MSTORE SWAP1 PUSH1 0x1 ADD SWAP1 PUSH1 0x20 ADD DUP1 DUP4 GT PUSH2 0xA6B JUMPI DUP3 SWAP1 SUB PUSH1 0x1F AND DUP3 ADD SWAP2 JUMPDEST POP POP POP POP POP DUP2 MSTORE PUSH1 0x20 ADD PUSH1 0x2 DUP3 ADD SLOAD DUP2 MSTORE PUSH1 0x20 ADD PUSH1 0x3 DUP3 ADD SLOAD DUP2 MSTORE PUSH1 0x20 ADD PUSH1 0x4 DUP3 ADD SLOAD DUP2 MSTORE PUSH1 0x20 ADD PUSH1 0x5 DUP3 ADD DUP1 SLOAD PUSH2 0xABF SWAP1 PUSH2 0x1C50 JUMP JUMPDEST DUP1 PUSH1 0x1F ADD PUSH1 0x20 DUP1 SWAP2 DIV MUL PUSH1 0x20 ADD PUSH1 0x40 MLOAD SWAP1 DUP2 ADD PUSH1 0x40 MSTORE DUP1 SWAP3 SWAP2 SWAP1 DUP2 DUP2 MSTORE PUSH1 0x20 ADD DUP3 DUP1 SLOAD PUSH2 0xAEB SWAP1 PUSH2 0x1C50 JUMP JUMPDEST DUP1 ISZERO PUSH2 0xB38 JUMPI DUP1 PUSH1 0x1F LT PUSH2 0xB0D JUMPI PUSH2 0x100 DUP1 DUP4 SLOAD DIV MUL DUP4 MSTORE SWAP2 PUSH1 0x20 ADD SWAP2 PUSH2 0xB38 JUMP JUMPDEST DUP3 ADD SWAP2 SWAP1 PUSH1 0x0 MSTORE PUSH1 0x20 PUSH1 0x0 KECCAK256 SWAP1 JUMPDEST DUP2 SLOAD DUP2 MSTORE SWAP1 PUSH1 0x1 ADD SWAP1 PUSH1 0x20 ADD DUP1 DUP4 GT PUSH2 0xB1B JUMPI DUP3 SWAP1 SUB PUSH1 0x1F AND DUP3 ADD SWAP2 JUMPDEST POP POP POP POP POP DUP2 MSTORE PUSH1 0x20 ADD PUSH1 0x6 DUP3 ADD DUP1 SLOAD PUSH2 0xB51 SWAP1 PUSH2 0x1C50 JUMP JUMPDEST DUP1 PUSH1 0x1F ADD PUSH1 0x20 DUP1 SWAP2 DIV MUL PUSH1 0x20 ADD PUSH1 0x40 MLOAD SWAP1 DUP2 ADD PUSH1 0x40 MSTORE DUP1 SWAP3 SWAP2 SWAP1 DUP2 DUP2 MSTORE PUSH1 0x20 ADD DUP3 DUP1 SLOAD PUSH2 0xB7D SWAP1 PUSH2 0x1C50 JUMP JUMPDEST DUP1 ISZERO PUSH2 0xBCA JUMPI DUP1 PUSH1 0x1F LT PUSH2 0xB9F JUMPI PUSH2 0x100 DUP1 DUP4 SLOAD DIV MUL DUP4 MSTORE SWAP2 PUSH1 0x20 ADD SWAP2 PUSH2 0xBCA JUMP JUMPDEST DUP3 ADD SWAP2 SWAP1 PUSH1 0x0 MSTORE PUSH1 0x20 PUSH1 0x0 KECCAK256 SWAP1 JUMPDEST DUP2 SLOAD DUP2 MSTORE SWAP1 PUSH1 0x1 ADD SWAP1 PUSH1 0x20 ADD DUP1 DUP4 GT PUSH2 0xBAD JUMPI DUP3 SWAP1 SUB PUSH1 0x1F AND DUP3 ADD SWAP2 JUMPDEST POP POP POP POP POP DUP2 MSTORE PUSH1 0x20 ADD PUSH1 0x7 DUP3 ADD DUP1 SLOAD PUSH2 0xBE3 SWAP1 PUSH2 0x1C50 JUMP JUMPDEST DUP1 PUSH1 0x1F ADD PUSH1 0x20 DUP1 SWAP2 DIV MUL PUSH1 0x20 ADD PUSH1 0x40 MLOAD SWAP1 DUP2 ADD PUSH1 0x40 MSTORE DUP1 SWAP3 SWAP2 SWAP1 DUP2 DUP2 MSTORE PUSH1 0x20 ADD DUP3 DUP1 SLOAD PUSH2 0xC0F SWAP1 PUSH2 0x1C50 JUMP JUMPDEST DUP1 ISZERO PUSH2 0xC5C JUMPI DUP1 PUSH1 0x1F LT PUSH2 0xC31 JUMPI PUSH2 0x100 DUP1 DUP4 SLOAD DIV MUL DUP4 MSTORE SWAP2 PUSH1 0x20 ADD SWAP2 PUSH2 0xC5C JUMP JUMPDEST DUP3 ADD SWAP2 SWAP1 PUSH1 0x0 MSTORE PUSH1 0x20 PUSH1 0x0 KECCAK256 SWAP1 JUMPDEST DUP2 SLOAD DUP2 MSTORE SWAP1 PUSH1 0x1 ADD SWAP1 PUSH1 0x20 ADD DUP1 DUP4 GT PUSH2 0xC3F JUMPI DUP3 SWAP1 SUB PUSH1 0x1F AND DUP3 ADD SWAP2 JUMPDEST POP POP POP POP POP DUP2 MSTORE POP POP SWAP1 POP SWAP2 SWAP1 POP JUMP JUMPDEST PUSH1 0x60 PUSH1 0x1 DUP1 SLOAD PUSH2 0x627 SWAP1 PUSH2 0x1C50 JUMP JUMPDEST PUSH2 0xC83 PUSH2 0x117C JUMP JUMPDEST PUSH1 0x8 DUP1 SLOAD SWAP1 PUSH1 0x0 PUSH2 0xC93 DUP4 PUSH2 0x1CD7 JUMP JUMPDEST SWAP2 SWAP1 POP SSTORE POP PUSH1 0x40 MLOAD DUP1 PUSH2 0x100 ADD PUSH1 0x40 MSTORE DUP1 PUSH1 0x8 SLOAD DUP2 MSTORE PUSH1 0x20 ADD DUP8 DUP2 MSTORE PUSH1 0x20 ADD DUP7 DUP2 MSTORE PUSH1 0x20 ADD DUP6 DUP2 MSTORE PUSH1 0x20 ADD DUP6 DUP2 MSTORE PUSH1 0x20 ADD DUP5 DUP2 MSTORE PUSH1 0x20 ADD DUP4 DUP2 MSTORE PUSH1 0x20 ADD DUP3 DUP2 MSTORE POP PUSH1 0x9 PUSH1 0x0 PUSH1 0x8 SLOAD DUP2 MSTORE PUSH1 0x20 ADD SWAP1 DUP2 MSTORE PUSH1 0x20 ADD PUSH1 0x0 KECCAK256 PUSH1 0x0 DUP3 ADD MLOAD DUP2 PUSH1 0x0 ADD SSTORE PUSH1 0x20 DUP3 ADD MLOAD DUP2 PUSH1 0x1 ADD SWAP1 DUP2 PUSH2 0xD08 SWAP2 SWAP1 PUSH2 0x1D3E JUMP JUMPDEST POP PUSH1 0x40 DUP3 ADD MLOAD PUSH1 0x2 DUP3 ADD SSTORE PUSH1 0x60 DUP3 ADD MLOAD PUSH1 0x3 DUP3 ADD SSTORE PUSH1 0x80 DUP3 ADD MLOAD PUSH1 0x4 DUP3 ADD SSTORE PUSH1 0xA0 DUP3 ADD MLOAD PUSH1 0x5 DUP3 ADD SWAP1 PUSH2 0xD3B SWAP1 DUP3 PUSH2 0x1D3E JUMP JUMPDEST POP PUSH1 0xC0 DUP3 ADD MLOAD PUSH1 0x6 DUP3 ADD SWAP1 PUSH2 0xD50 SWAP1 DUP3 PUSH2 0x1D3E JUMP JUMPDEST POP PUSH1 0xE0 DUP3 ADD MLOAD PUSH1 0x7 DUP3 ADD SWAP1 PUSH2 0xD65 SWAP1 DUP3 PUSH2 0x1D3E JUMP JUMPDEST POP POP POP POP POP POP POP POP POP JUMP JUMPDEST PUSH2 0xD7B CALLER DUP4 DUP4 PUSH2 0x1228 JUMP JUMPDEST POP POP JUMP JUMPDEST PUSH2 0xD89 CALLER DUP4 PUSH2 0xFB9 JUMP JUMPDEST PUSH2 0xDA5 JUMPI PUSH1 0x40 MLOAD PUSH3 0x461BCD PUSH1 0xE5 SHL DUP2 MSTORE PUSH1 0x4 ADD PUSH2 0x745 SWAP1 PUSH2 0x1C8A JUMP JUMPDEST PUSH2 0xDB1 DUP5 DUP5 DUP5 DUP5 PUSH2 0x12F6 JUMP JUMPDEST POP POP POP POP JUMP JUMPDEST PUSH1 0x60 PUSH2 0xDC2 DUP3 PUSH2 0xEEC JUMP JUMPDEST PUSH1 0x0 PUSH2 0xDD9 PUSH1 0x40 DUP1 MLOAD PUSH1 0x20 DUP2 ADD SWAP1 SWAP2 MSTORE PUSH1 0x0 DUP2 MSTORE SWAP1 JUMP JUMPDEST SWAP1 POP PUSH1 0x0 DUP2 MLOAD GT PUSH2 0xDF9 JUMPI PUSH1 0x40 MLOAD DUP1 PUSH1 0x20 ADD PUSH1 0x40 MSTORE DUP1 PUSH1 0x0 DUP2 MSTORE POP PUSH2 0xE24 JUMP JUMPDEST DUP1 PUSH2 0xE03 DUP5 PUSH2 0x1329 JUMP JUMPDEST PUSH1 0x40 MLOAD PUSH1 0x20 ADD PUSH2 0xE14 SWAP3 SWAP2 SWAP1 PUSH2 0x1DFE JUMP JUMPDEST PUSH1 0x40 MLOAD PUSH1 0x20 DUP2 DUP4 SUB SUB DUP2 MSTORE SWAP1 PUSH1 0x40 MSTORE JUMPDEST SWAP4 SWAP3 POP POP POP JUMP JUMPDEST PUSH1 0x1 PUSH1 0x1 PUSH1 0xA0 SHL SUB SWAP2 DUP3 AND PUSH1 0x0 SWAP1 DUP2 MSTORE PUSH1 0x5 PUSH1 0x20 SWAP1 DUP2 MSTORE PUSH1 0x40 DUP1 DUP4 KECCAK256 SWAP4 SWAP1 SWAP5 AND DUP3 MSTORE SWAP2 SWAP1 SWAP2 MSTORE KECCAK256 SLOAD PUSH1 0xFF AND SWAP1 JUMP JUMPDEST PUSH2 0xE61 PUSH2 0x117C JUMP JUMPDEST PUSH1 0x1 PUSH1 0x1 PUSH1 0xA0 SHL SUB DUP2 AND PUSH2 0xEC6 JUMPI PUSH1 0x40 MLOAD PUSH3 0x461BCD PUSH1 0xE5 SHL DUP2 MSTORE PUSH1 0x20 PUSH1 0x4 DUP3 ADD MSTORE PUSH1 0x26 PUSH1 0x24 DUP3 ADD MSTORE PUSH32 0x4F776E61626C653A206E6577206F776E657220697320746865207A65726F2061 PUSH1 0x44 DUP3 ADD MSTORE PUSH6 0x646472657373 PUSH1 0xD0 SHL PUSH1 0x64 DUP3 ADD MSTORE PUSH1 0x84 ADD PUSH2 0x745 JUMP JUMPDEST PUSH2 0xECF DUP2 PUSH2 0x11D6 JUMP JUMPDEST POP JUMP JUMPDEST PUSH2 0xD7B DUP3 DUP3 PUSH1 0x40 MLOAD DUP1 PUSH1 0x20 ADD PUSH1 0x40 MSTORE DUP1 PUSH1 0x0 DUP2 MSTORE POP PUSH2 0x13BC JUMP JUMPDEST PUSH1 0x0 DUP2 DUP2 MSTORE PUSH1 0x2 PUSH1 0x20 MSTORE PUSH1 0x40 SWAP1 KECCAK256 SLOAD PUSH1 0x1 PUSH1 0x1 PUSH1 0xA0 SHL SUB AND PUSH2 0xECF JUMPI PUSH1 0x40 MLOAD PUSH3 0x461BCD PUSH1 0xE5 SHL DUP2 MSTORE PUSH1 0x20 PUSH1 0x4 DUP3 ADD MSTORE PUSH1 0x18 PUSH1 0x24 DUP3 ADD MSTORE PUSH24 0x115490CDCC8C4E881A5B9D985B1A59081D1BDAD95B881251 PUSH1 0x42 SHL PUSH1 0x44 DUP3 ADD MSTORE PUSH1 0x64 ADD PUSH2 0x745 JUMP JUMPDEST PUSH1 0x0 DUP2 DUP2 MSTORE PUSH1 0x4 PUSH1 0x20 MSTORE PUSH1 0x40 SWAP1 KECCAK256 DUP1 SLOAD PUSH1 0x1 PUSH1 0x1 PUSH1 0xA0 SHL SUB NOT AND PUSH1 0x1 PUSH1 0x1 PUSH1 0xA0 SHL SUB DUP5 AND SWAP1 DUP2 OR SWAP1 SWAP2 SSTORE DUP2 SWAP1 PUSH2 0xF80 DUP3 PUSH2 0x894 JUMP JUMPDEST PUSH1 0x1 PUSH1 0x1 PUSH1 0xA0 SHL SUB AND PUSH32 0x8C5BE1E5EBEC7D5BD14F71427D1E84F3DD0314C0F7B2291E5B200AC8C7C3B925 PUSH1 0x40 MLOAD PUSH1 0x40 MLOAD DUP1 SWAP2 SUB SWAP1 LOG4 POP POP JUMP JUMPDEST PUSH1 0x0 DUP1 PUSH2 0xFC5 DUP4 PUSH2 0x894 JUMP JUMPDEST SWAP1 POP DUP1 PUSH1 0x1 PUSH1 0x1 PUSH1 0xA0 SHL SUB AND DUP5 PUSH1 0x1 PUSH1 0x1 PUSH1 0xA0 SHL SUB AND EQ DUP1 PUSH2 0xFEC JUMPI POP PUSH2 0xFEC DUP2 DUP6 PUSH2 0xE2B JUMP JUMPDEST DUP1 PUSH2 0x1010 JUMPI POP DUP4 PUSH1 0x1 PUSH1 0x1 PUSH1 0xA0 SHL SUB AND PUSH2 0x1005 DUP5 PUSH2 0x6AA JUMP JUMPDEST PUSH1 0x1 PUSH1 0x1 PUSH1 0xA0 SHL SUB AND EQ JUMPDEST SWAP5 SWAP4 POP POP POP POP JUMP JUMPDEST DUP3 PUSH1 0x1 PUSH1 0x1 PUSH1 0xA0 SHL SUB AND PUSH2 0x102B DUP3 PUSH2 0x894 JUMP JUMPDEST PUSH1 0x1 PUSH1 0x1 PUSH1 0xA0 SHL SUB AND EQ PUSH2 0x1051 JUMPI PUSH1 0x40 MLOAD PUSH3 0x461BCD PUSH1 0xE5 SHL DUP2 MSTORE PUSH1 0x4 ADD PUSH2 0x745 SWAP1 PUSH2 0x1E2D JUMP JUMPDEST PUSH1 0x1 PUSH1 0x1 PUSH1 0xA0 SHL SUB DUP3 AND PUSH2 0x10B3 JUMPI PUSH1 0x40 MLOAD PUSH3 0x461BCD PUSH1 0xE5 SHL DUP2 MSTORE PUSH1 0x20 PUSH1 0x4 DUP3 ADD MSTORE PUSH1 0x24 DUP1 DUP3 ADD MSTORE PUSH32 0x4552433732313A207472616E7366657220746F20746865207A65726F20616464 PUSH1 0x44 DUP3 ADD MSTORE PUSH4 0x72657373 PUSH1 0xE0 SHL PUSH1 0x64 DUP3 ADD MSTORE PUSH1 0x84 ADD PUSH2 0x745 JUMP JUMPDEST DUP3 PUSH1 0x1 PUSH1 0x1 PUSH1 0xA0 SHL SUB AND PUSH2 0x10C6 DUP3 PUSH2 0x894 JUMP JUMPDEST PUSH1 0x1 PUSH1 0x1 PUSH1 0xA0 SHL SUB AND EQ PUSH2 0x10EC JUMPI PUSH1 0x40 MLOAD PUSH3 0x461BCD PUSH1 0xE5 SHL DUP2 MSTORE PUSH1 0x4 ADD PUSH2 0x745 SWAP1 PUSH2 0x1E2D JUMP JUMPDEST PUSH1 0x0 DUP2 DUP2 MSTORE PUSH1 0x4 PUSH1 0x20 SWAP1 DUP2 MSTORE PUSH1 0x40 DUP1 DUP4 KECCAK256 DUP1 SLOAD PUSH1 0x1 PUSH1 0x1 PUSH1 0xA0 SHL SUB NOT SWAP1 DUP2 AND SWAP1 SWAP2 SSTORE PUSH1 0x1 PUSH1 0x1 PUSH1 0xA0 SHL SUB DUP8 DUP2 AND DUP1 DUP7 MSTORE PUSH1 0x3 DUP6 MSTORE DUP4 DUP7 KECCAK256 DUP1 SLOAD PUSH1 0x0 NOT ADD SWAP1 SSTORE SWAP1 DUP8 AND DUP1 DUP7 MSTORE DUP4 DUP7 KECCAK256 DUP1 SLOAD PUSH1 0x1 ADD SWAP1 SSTORE DUP7 DUP7 MSTORE PUSH1 0x2 SWAP1 SWAP5 MSTORE DUP3 DUP6 KECCAK256 DUP1 SLOAD SWAP1 SWAP3 AND DUP5 OR SWAP1 SWAP2 SSTORE SWAP1 MLOAD DUP5 SWAP4 PUSH32 0xDDF252AD1BE2C89B69C2B068FC378DAA952BA7F163C4A11628F55A4DF523B3EF SWAP2 LOG4 POP POP POP JUMP JUMPDEST PUSH1 0x6 SLOAD PUSH1 0x1 PUSH1 0x1 PUSH1 0xA0 SHL SUB AND CALLER EQ PUSH2 0x98C JUMPI PUSH1 0x40 MLOAD PUSH3 0x461BCD PUSH1 0xE5 SHL DUP2 MSTORE PUSH1 0x20 PUSH1 0x4 DUP3 ADD DUP2 SWAP1 MSTORE PUSH1 0x24 DUP3 ADD MSTORE PUSH32 0x4F776E61626C653A2063616C6C6572206973206E6F7420746865206F776E6572 PUSH1 0x44 DUP3 ADD MSTORE PUSH1 0x64 ADD PUSH2 0x745 JUMP JUMPDEST PUSH1 0x6 DUP1 SLOAD PUSH1 0x1 PUSH1 0x1 PUSH1 0xA0 SHL SUB DUP4 DUP2 AND PUSH1 0x1 PUSH1 0x1 PUSH1 0xA0 SHL SUB NOT DUP4 AND DUP2 OR SWAP1 SWAP4 SSTORE PUSH1 0x40 MLOAD SWAP2 AND SWAP2 SWAP1 DUP3 SWAP1 PUSH32 0x8BE0079C531659141344CD1FD0A4F28419497F9722A3DAAFE3B4186F6B6457E0 SWAP1 PUSH1 0x0 SWAP1 LOG3 POP POP JUMP JUMPDEST DUP2 PUSH1 0x1 PUSH1 0x1 PUSH1 0xA0 SHL SUB AND DUP4 PUSH1 0x1 PUSH1 0x1 PUSH1 0xA0 SHL SUB AND SUB PUSH2 0x1289 JUMPI PUSH1 0x40 MLOAD PUSH3 0x461BCD PUSH1 0xE5 SHL DUP2 MSTORE PUSH1 0x20 PUSH1 0x4 DUP3 ADD MSTORE PUSH1 0x19 PUSH1 0x24 DUP3 ADD MSTORE PUSH32 0x4552433732313A20617070726F766520746F2063616C6C657200000000000000 PUSH1 0x44 DUP3 ADD MSTORE PUSH1 0x64 ADD PUSH2 0x745 JUMP JUMPDEST PUSH1 0x1 PUSH1 0x1 PUSH1 0xA0 SHL SUB DUP4 DUP2 AND PUSH1 0x0 DUP2 DUP2 MSTORE PUSH1 0x5 PUSH1 0x20 SWAP1 DUP2 MSTORE PUSH1 0x40 DUP1 DUP4 KECCAK256 SWAP5 DUP8 AND DUP1 DUP5 MSTORE SWAP5 DUP3 MSTORE SWAP2 DUP3 SWAP1 KECCAK256 DUP1 SLOAD PUSH1 0xFF NOT AND DUP7 ISZERO ISZERO SWAP1 DUP2 OR SWAP1 SWAP2 SSTORE SWAP2 MLOAD SWAP2 DUP3 MSTORE PUSH32 0x17307EAB39AB6107E8899845AD3D59BD9653F200F220920489CA2B5937696C31 SWAP2 ADD PUSH1 0x40 MLOAD DUP1 SWAP2 SUB SWAP1 LOG3 POP POP POP JUMP JUMPDEST PUSH2 0x1301 DUP5 DUP5 DUP5 PUSH2 0x1018 JUMP JUMPDEST PUSH2 0x130D DUP5 DUP5 DUP5 DUP5 PUSH2 0x13EF JUMP JUMPDEST PUSH2 0xDB1 JUMPI PUSH1 0x40 MLOAD PUSH3 0x461BCD PUSH1 0xE5 SHL DUP2 MSTORE PUSH1 0x4 ADD PUSH2 0x745 SWAP1 PUSH2 0x1E72 JUMP JUMPDEST PUSH1 0x60 PUSH1 0x0 PUSH2 0x1336 DUP4 PUSH2 0x14F0 JUMP JUMPDEST PUSH1 0x1 ADD SWAP1 POP PUSH1 0x0 DUP2 PUSH8 0xFFFFFFFFFFFFFFFF DUP2 GT ISZERO PUSH2 0x1356 JUMPI PUSH2 0x1356 PUSH2 0x19AE JUMP JUMPDEST PUSH1 0x40 MLOAD SWAP1 DUP1 DUP3 MSTORE DUP1 PUSH1 0x1F ADD PUSH1 0x1F NOT AND PUSH1 0x20 ADD DUP3 ADD PUSH1 0x40 MSTORE DUP1 ISZERO PUSH2 0x1380 JUMPI PUSH1 0x20 DUP3 ADD DUP2 DUP1 CALLDATASIZE DUP4 CALLDATACOPY ADD SWAP1 POP JUMPDEST POP SWAP1 POP DUP2 DUP2 ADD PUSH1 0x20 ADD JUMPDEST PUSH1 0x0 NOT ADD PUSH16 0x181899199A1A9B1B9C1CB0B131B232B3 PUSH1 0x81 SHL PUSH1 0xA DUP7 MOD BYTE DUP2 MSTORE8 PUSH1 0xA DUP6 DIV SWAP5 POP DUP5 PUSH2 0x138A JUMPI POP SWAP4 SWAP3 POP POP POP JUMP JUMPDEST PUSH2 0x13C6 DUP4 DUP4 PUSH2 0x15C8 JUMP JUMPDEST PUSH2 0x13D3 PUSH1 0x0 DUP5 DUP5 DUP5 PUSH2 0x13EF JUMP JUMPDEST PUSH2 0x613 JUMPI PUSH1 0x40 MLOAD PUSH3 0x461BCD PUSH1 0xE5 SHL DUP2 MSTORE PUSH1 0x4 ADD PUSH2 0x745 SWAP1 PUSH2 0x1E72 JUMP JUMPDEST PUSH1 0x0 PUSH1 0x1 PUSH1 0x1 PUSH1 0xA0 SHL SUB DUP5 AND EXTCODESIZE ISZERO PUSH2 0x14E5 JUMPI PUSH1 0x40 MLOAD PUSH4 0xA85BD01 PUSH1 0xE1 SHL DUP2 MSTORE PUSH1 0x1 PUSH1 0x1 PUSH1 0xA0 SHL SUB DUP6 AND SWAP1 PUSH4 0x150B7A02 SWAP1 PUSH2 0x1433 SWAP1 CALLER SWAP1 DUP10 SWAP1 DUP9 SWAP1 DUP9 SWAP1 PUSH1 0x4 ADD PUSH2 0x1EC4 JUMP JUMPDEST PUSH1 0x20 PUSH1 0x40 MLOAD DUP1 DUP4 SUB DUP2 PUSH1 0x0 DUP8 GAS CALL SWAP3 POP POP POP DUP1 ISZERO PUSH2 0x146E JUMPI POP PUSH1 0x40 DUP1 MLOAD PUSH1 0x1F RETURNDATASIZE SWAP1 DUP2 ADD PUSH1 0x1F NOT AND DUP3 ADD SWAP1 SWAP3 MSTORE PUSH2 0x146B SWAP2 DUP2 ADD SWAP1 PUSH2 0x1EF7 JUMP JUMPDEST PUSH1 0x1 JUMPDEST PUSH2 0x14CB JUMPI RETURNDATASIZE DUP1 DUP1 ISZERO PUSH2 0x149C JUMPI PUSH1 0x40 MLOAD SWAP2 POP PUSH1 0x1F NOT PUSH1 0x3F RETURNDATASIZE ADD AND DUP3 ADD PUSH1 0x40 MSTORE RETURNDATASIZE DUP3 MSTORE RETURNDATASIZE PUSH1 0x0 PUSH1 0x20 DUP5 ADD RETURNDATACOPY PUSH2 0x14A1 JUMP JUMPDEST PUSH1 0x60 SWAP2 POP JUMPDEST POP DUP1 MLOAD PUSH1 0x0 SUB PUSH2 0x14C3 JUMPI PUSH1 0x40 MLOAD PUSH3 0x461BCD PUSH1 0xE5 SHL DUP2 MSTORE PUSH1 0x4 ADD PUSH2 0x745 SWAP1 PUSH2 0x1E72 JUMP JUMPDEST DUP1 MLOAD DUP2 PUSH1 0x20 ADD REVERT JUMPDEST PUSH1 0x1 PUSH1 0x1 PUSH1 0xE0 SHL SUB NOT AND PUSH4 0xA85BD01 PUSH1 0xE1 SHL EQ SWAP1 POP PUSH2 0x1010 JUMP JUMPDEST POP PUSH1 0x1 SWAP5 SWAP4 POP POP POP POP JUMP JUMPDEST PUSH1 0x0 DUP1 PUSH19 0x184F03E93FF9F4DAA797ED6E38ED64BF6A1F01 PUSH1 0x40 SHL DUP4 LT PUSH2 0x152F JUMPI PUSH19 0x184F03E93FF9F4DAA797ED6E38ED64BF6A1F01 PUSH1 0x40 SHL DUP4 DIV SWAP3 POP PUSH1 0x40 ADD JUMPDEST PUSH14 0x4EE2D6D415B85ACEF8100000000 DUP4 LT PUSH2 0x155B JUMPI PUSH14 0x4EE2D6D415B85ACEF8100000000 DUP4 DIV SWAP3 POP PUSH1 0x20 ADD JUMPDEST PUSH7 0x2386F26FC10000 DUP4 LT PUSH2 0x1579 JUMPI PUSH7 0x2386F26FC10000 DUP4 DIV SWAP3 POP PUSH1 0x10 ADD JUMPDEST PUSH4 0x5F5E100 DUP4 LT PUSH2 0x1591 JUMPI PUSH4 0x5F5E100 DUP4 DIV SWAP3 POP PUSH1 0x8 ADD JUMPDEST PUSH2 0x2710 DUP4 LT PUSH2 0x15A5 JUMPI PUSH2 0x2710 DUP4 DIV SWAP3 POP PUSH1 0x4 ADD JUMPDEST PUSH1 0x64 DUP4 LT PUSH2 0x15B7 JUMPI PUSH1 0x64 DUP4 DIV SWAP3 POP PUSH1 0x2 ADD JUMPDEST PUSH1 0xA DUP4 LT PUSH2 0x4D7 JUMPI PUSH1 0x1 ADD SWAP3 SWAP2 POP POP JUMP JUMPDEST PUSH1 0x1 PUSH1 0x1 PUSH1 0xA0 SHL SUB DUP3 AND PUSH2 0x161E JUMPI PUSH1 0x40 MLOAD PUSH3 0x461BCD PUSH1 0xE5 SHL DUP2 MSTORE PUSH1 0x20 PUSH1 0x4 DUP3 ADD DUP2 SWAP1 MSTORE PUSH1 0x24 DUP3 ADD MSTORE PUSH32 0x4552433732313A206D696E7420746F20746865207A65726F2061646472657373 PUSH1 0x44 DUP3 ADD MSTORE PUSH1 0x64 ADD PUSH2 0x745 JUMP JUMPDEST PUSH1 0x0 DUP2 DUP2 MSTORE PUSH1 0x2 PUSH1 0x20 MSTORE PUSH1 0x40 SWAP1 KECCAK256 SLOAD PUSH1 0x1 PUSH1 0x1 PUSH1 0xA0 SHL SUB AND ISZERO PUSH2 0x1683 JUMPI PUSH1 0x40 MLOAD PUSH3 0x461BCD PUSH1 0xE5 SHL DUP2 MSTORE PUSH1 0x20 PUSH1 0x4 DUP3 ADD MSTORE PUSH1 0x1C PUSH1 0x24 DUP3 ADD MSTORE PUSH32 0x4552433732313A20746F6B656E20616C7265616479206D696E74656400000000 PUSH1 0x44 DUP3 ADD MSTORE PUSH1 0x64 ADD PUSH2 0x745 JUMP JUMPDEST PUSH1 0x0 DUP2 DUP2 MSTORE PUSH1 0x2 PUSH1 0x20 MSTORE PUSH1 0x40 SWAP1 KECCAK256 SLOAD PUSH1 0x1 PUSH1 0x1 PUSH1 0xA0 SHL SUB AND ISZERO PUSH2 0x16E8 JUMPI PUSH1 0x40 MLOAD PUSH3 0x461BCD PUSH1 0xE5 SHL DUP2 MSTORE PUSH1 0x20 PUSH1 0x4 DUP3 ADD MSTORE PUSH1 0x1C PUSH1 0x24 DUP3 ADD MSTORE PUSH32 0x4552433732313A20746F6B656E20616C7265616479206D696E74656400000000 PUSH1 0x44 DUP3 ADD MSTORE PUSH1 0x64 ADD PUSH2 0x745 JUMP JUMPDEST PUSH1 0x1 PUSH1 0x1 PUSH1 0xA0 SHL SUB DUP3 AND PUSH1 0x0 DUP2 DUP2 MSTORE PUSH1 0x3 PUSH1 0x20 SWAP1 DUP2 MSTORE PUSH1 0x40 DUP1 DUP4 KECCAK256 DUP1 SLOAD PUSH1 0x1 ADD SWAP1 SSTORE DUP5 DUP4 MSTORE PUSH1 0x2 SWAP1 SWAP2 MSTORE DUP1 DUP3 KECCAK256 DUP1 SLOAD PUSH1 0x1 PUSH1 0x1 PUSH1 0xA0 SHL SUB NOT AND DUP5 OR SWAP1 SSTORE MLOAD DUP4 SWAP3 SWAP2 SWAP1 PUSH32 0xDDF252AD1BE2C89B69C2B068FC378DAA952BA7F163C4A11628F55A4DF523B3EF SWAP1 DUP3 SWAP1 LOG4 POP POP JUMP JUMPDEST PUSH1 0x1 PUSH1 0x1 PUSH1 0xE0 SHL SUB NOT DUP2 AND DUP2 EQ PUSH2 0xECF JUMPI PUSH1 0x0 DUP1 REVERT JUMPDEST PUSH1 0x0 PUSH1 0x20 DUP3 DUP5 SUB SLT ISZERO PUSH2 0x177B JUMPI PUSH1 0x0 DUP1 REVERT JUMPDEST DUP2 CALLDATALOAD PUSH2 0xE24 DUP2 PUSH2 0x1753 JUMP JUMPDEST PUSH1 0x0 DUP1 PUSH1 0x40 DUP4 DUP6 SUB SLT ISZERO PUSH2 0x1799 JUMPI PUSH1 0x0 DUP1 REVERT JUMPDEST POP POP DUP1 CALLDATALOAD SWAP3 PUSH1 0x20 SWAP1 SWAP2 ADD CALLDATALOAD SWAP2 POP JUMP JUMPDEST PUSH1 0x0 JUMPDEST DUP4 DUP2 LT ISZERO PUSH2 0x17C3 JUMPI DUP2 DUP2 ADD MLOAD DUP4 DUP3 ADD MSTORE PUSH1 0x20 ADD PUSH2 0x17AB JUMP JUMPDEST POP POP PUSH1 0x0 SWAP2 ADD MSTORE JUMP JUMPDEST PUSH1 0x0 DUP2 MLOAD DUP1 DUP5 MSTORE PUSH2 0x17E4 DUP2 PUSH1 0x20 DUP7 ADD PUSH1 0x20 DUP7 ADD PUSH2 0x17A8 JUMP JUMPDEST PUSH1 0x1F ADD PUSH1 0x1F NOT AND SWAP3 SWAP1 SWAP3 ADD PUSH1 0x20 ADD SWAP3 SWAP2 POP POP JUMP JUMPDEST PUSH1 0x20 DUP2 MSTORE PUSH1 0x0 PUSH2 0xE24 PUSH1 0x20 DUP4 ADD DUP5 PUSH2 0x17CC JUMP JUMPDEST PUSH1 0x0 PUSH1 0x20 DUP3 DUP5 SUB SLT ISZERO PUSH2 0x181D JUMPI PUSH1 0x0 DUP1 REVERT JUMPDEST POP CALLDATALOAD SWAP2 SWAP1 POP JUMP JUMPDEST DUP1 CALLDATALOAD PUSH1 0x1 PUSH1 0x1 PUSH1 0xA0 SHL SUB DUP2 AND DUP2 EQ PUSH2 0x183B JUMPI PUSH1 0x0 DUP1 REVERT JUMPDEST SWAP2 SWAP1 POP JUMP JUMPDEST PUSH1 0x0 DUP1 PUSH1 0x40 DUP4 DUP6 SUB SLT ISZERO PUSH2 0x1853 JUMPI PUSH1 0x0 DUP1 REVERT JUMPDEST PUSH2 0x185C DUP4 PUSH2 0x1824 JUMP JUMPDEST SWAP5 PUSH1 0x20 SWAP4 SWAP1 SWAP4 ADD CALLDATALOAD SWAP4 POP POP POP JUMP JUMPDEST PUSH1 0x20 DUP1 DUP3 MSTORE DUP3 MLOAD DUP3 DUP3 ADD DUP2 SWAP1 MSTORE PUSH1 0x0 SWAP2 SWAP1 DUP5 DUP3 ADD SWAP1 PUSH1 0x40 DUP6 ADD SWAP1 DUP5 JUMPDEST DUP2 DUP2 LT ISZERO PUSH2 0x18A2 JUMPI DUP4 MLOAD DUP4 MSTORE SWAP3 DUP5 ADD SWAP3 SWAP2 DUP5 ADD SWAP2 PUSH1 0x1 ADD PUSH2 0x1886 JUMP JUMPDEST POP SWAP1 SWAP7 SWAP6 POP POP POP POP POP POP JUMP JUMPDEST PUSH1 0x0 DUP1 PUSH1 0x0 PUSH1 0x60 DUP5 DUP7 SUB SLT ISZERO PUSH2 0x18C3 JUMPI PUSH1 0x0 DUP1 REVERT JUMPDEST PUSH2 0x18CC DUP5 PUSH2 0x1824 JUMP JUMPDEST SWAP3 POP PUSH2 0x18DA PUSH1 0x20 DUP6 ADD PUSH2 0x1824 JUMP JUMPDEST SWAP2 POP PUSH1 0x40 DUP5 ADD CALLDATALOAD SWAP1 POP SWAP3 POP SWAP3 POP SWAP3 JUMP JUMPDEST PUSH1 0x0 PUSH1 0x20 DUP3 DUP5 SUB SLT ISZERO PUSH2 0x18FC JUMPI PUSH1 0x0 DUP1 REVERT JUMPDEST PUSH2 0xE24 DUP3 PUSH2 0x1824 JUMP JUMPDEST PUSH1 0x20 DUP2 MSTORE DUP2 MLOAD PUSH1 0x20 DUP3 ADD MSTORE PUSH1 0x0 PUSH1 0x20 DUP4 ADD MLOAD PUSH2 0x100 DUP1 PUSH1 0x40 DUP6 ADD MSTORE PUSH2 0x192E PUSH2 0x120 DUP6 ADD DUP4 PUSH2 0x17CC JUMP JUMPDEST SWAP2 POP PUSH1 0x40 DUP6 ADD MLOAD PUSH1 0x60 DUP6 ADD MSTORE PUSH1 0x60 DUP6 ADD MLOAD PUSH1 0x80 DUP6 ADD MSTORE PUSH1 0x80 DUP6 ADD MLOAD PUSH1 0xA0 DUP6 ADD MSTORE PUSH1 0xA0 DUP6 ADD MLOAD PUSH1 0x1F NOT DUP1 DUP7 DUP6 SUB ADD PUSH1 0xC0 DUP8 ADD MSTORE PUSH2 0x196A DUP5 DUP4 PUSH2 0x17CC JUMP JUMPDEST SWAP4 POP PUSH1 0xC0 DUP8 ADD MLOAD SWAP2 POP DUP1 DUP7 DUP6 SUB ADD PUSH1 0xE0 DUP8 ADD MSTORE PUSH2 0x1987 DUP5 DUP4 PUSH2 0x17CC JUMP JUMPDEST SWAP4 POP PUSH1 0xE0 DUP8 ADD MLOAD SWAP2 POP DUP1 DUP7 DUP6 SUB ADD DUP4 DUP8 ADD MSTORE POP PUSH2 0x19A4 DUP4 DUP3 PUSH2 0x17CC JUMP JUMPDEST SWAP7 SWAP6 POP POP POP POP POP POP JUMP JUMPDEST PUSH4 0x4E487B71 PUSH1 0xE0 SHL PUSH1 0x0 MSTORE PUSH1 0x41 PUSH1 0x4 MSTORE PUSH1 0x24 PUSH1 0x0 REVERT JUMPDEST PUSH1 0x0 PUSH8 0xFFFFFFFFFFFFFFFF DUP1 DUP5 GT ISZERO PUSH2 0x19DF JUMPI PUSH2 0x19DF PUSH2 0x19AE JUMP JUMPDEST PUSH1 0x40 MLOAD PUSH1 0x1F DUP6 ADD PUSH1 0x1F NOT SWAP1 DUP2 AND PUSH1 0x3F ADD AND DUP2 ADD SWAP1 DUP3 DUP3 GT DUP2 DUP4 LT OR ISZERO PUSH2 0x1A07 JUMPI PUSH2 0x1A07 PUSH2 0x19AE JUMP JUMPDEST DUP2 PUSH1 0x40 MSTORE DUP1 SWAP4 POP DUP6 DUP2 MSTORE DUP7 DUP7 DUP7 ADD GT ISZERO PUSH2 0x1A20 JUMPI PUSH1 0x0 DUP1 REVERT JUMPDEST DUP6 DUP6 PUSH1 0x20 DUP4 ADD CALLDATACOPY PUSH1 0x0 PUSH1 0x20 DUP8 DUP4 ADD ADD MSTORE POP POP POP SWAP4 SWAP3 POP POP POP JUMP JUMPDEST PUSH1 0x0 DUP3 PUSH1 0x1F DUP4 ADD SLT PUSH2 0x1A4B JUMPI PUSH1 0x0 DUP1 REVERT JUMPDEST PUSH2 0xE24 DUP4 DUP4 CALLDATALOAD PUSH1 0x20 DUP6 ADD PUSH2 0x19C4 JUMP JUMPDEST PUSH1 0x0 DUP1 PUSH1 0x0 DUP1 PUSH1 0x0 DUP1 PUSH1 0xC0 DUP8 DUP10 SUB SLT ISZERO PUSH2 0x1A73 JUMPI PUSH1 0x0 DUP1 REVERT JUMPDEST DUP7 CALLDATALOAD PUSH8 0xFFFFFFFFFFFFFFFF DUP1 DUP3 GT ISZERO PUSH2 0x1A8B JUMPI PUSH1 0x0 DUP1 REVERT JUMPDEST PUSH2 0x1A97 DUP11 DUP4 DUP12 ADD PUSH2 0x1A3A JUMP JUMPDEST SWAP8 POP PUSH1 0x20 DUP10 ADD CALLDATALOAD SWAP7 POP PUSH1 0x40 DUP10 ADD CALLDATALOAD SWAP6 POP PUSH1 0x60 DUP10 ADD CALLDATALOAD SWAP2 POP DUP1 DUP3 GT ISZERO PUSH2 0x1ABB JUMPI PUSH1 0x0 DUP1 REVERT JUMPDEST PUSH2 0x1AC7 DUP11 DUP4 DUP12 ADD PUSH2 0x1A3A JUMP JUMPDEST SWAP5 POP PUSH1 0x80 DUP10 ADD CALLDATALOAD SWAP2 POP DUP1 DUP3 GT ISZERO PUSH2 0x1ADD JUMPI PUSH1 0x0 DUP1 REVERT JUMPDEST PUSH2 0x1AE9 DUP11 DUP4 DUP12 ADD PUSH2 0x1A3A JUMP JUMPDEST SWAP4 POP PUSH1 0xA0 DUP10 ADD CALLDATALOAD SWAP2 POP DUP1 DUP3 GT ISZERO PUSH2 0x1AFF JUMPI PUSH1 0x0 DUP1 REVERT JUMPDEST POP PUSH2 0x1B0C DUP10 DUP3 DUP11 ADD PUSH2 0x1A3A JUMP JUMPDEST SWAP2 POP POP SWAP3 SWAP6 POP SWAP3 SWAP6 POP SWAP3 SWAP6 JUMP JUMPDEST PUSH1 0x0 DUP1 PUSH1 0x40 DUP4 DUP6 SUB SLT ISZERO PUSH2 0x1B2C JUMPI PUSH1 0x0 DUP1 REVERT JUMPDEST DUP3 CALLDATALOAD SWAP2 POP PUSH2 0x1B3C PUSH1 0x20 DUP5 ADD PUSH2 0x1824 JUMP JUMPDEST SWAP1 POP SWAP3 POP SWAP3 SWAP1 POP JUMP JUMPDEST PUSH1 0x0 DUP1 PUSH1 0x40 DUP4 DUP6 SUB SLT ISZERO PUSH2 0x1B58 JUMPI PUSH1 0x0 DUP1 REVERT JUMPDEST PUSH2 0x1B61 DUP4 PUSH2 0x1824 JUMP JUMPDEST SWAP2 POP PUSH1 0x20 DUP4 ADD CALLDATALOAD DUP1 ISZERO ISZERO DUP2 EQ PUSH2 0x1B76 JUMPI PUSH1 0x0 DUP1 REVERT JUMPDEST DUP1 SWAP2 POP POP SWAP3 POP SWAP3 SWAP1 POP JUMP JUMPDEST PUSH1 0x0 DUP1 PUSH1 0x0 DUP1 PUSH1 0x80 DUP6 DUP8 SUB SLT ISZERO PUSH2 0x1B97 JUMPI PUSH1 0x0 DUP1 REVERT JUMPDEST PUSH2 0x1BA0 DUP6 PUSH2 0x1824 JUMP JUMPDEST SWAP4 POP PUSH2 0x1BAE PUSH1 0x20 DUP7 ADD PUSH2 0x1824 JUMP JUMPDEST SWAP3 POP PUSH1 0x40 DUP6 ADD CALLDATALOAD SWAP2 POP PUSH1 0x60 DUP6 ADD CALLDATALOAD PUSH8 0xFFFFFFFFFFFFFFFF DUP2 GT ISZERO PUSH2 0x1BD1 JUMPI PUSH1 0x0 DUP1 REVERT JUMPDEST DUP6 ADD PUSH1 0x1F DUP2 ADD DUP8 SGT PUSH2 0x1BE2 JUMPI PUSH1 0x0 DUP1 REVERT JUMPDEST PUSH2 0x1BF1 DUP8 DUP3 CALLDATALOAD PUSH1 0x20 DUP5 ADD PUSH2 0x19C4 JUMP JUMPDEST SWAP2 POP POP SWAP3 SWAP6 SWAP2 SWAP5 POP SWAP3 POP JUMP JUMPDEST PUSH1 0x0 DUP1 PUSH1 0x40 DUP4 DUP6 SUB SLT ISZERO PUSH2 0x1C10 JUMPI PUSH1 0x0 DUP1 REVERT JUMPDEST PUSH2 0x1C19 DUP4 PUSH2 0x1824 JUMP JUMPDEST SWAP2 POP PUSH2 0x1B3C PUSH1 0x20 DUP5 ADD PUSH2 0x1824 JUMP JUMPDEST PUSH4 0x4E487B71 PUSH1 0xE0 SHL PUSH1 0x0 MSTORE PUSH1 0x11 PUSH1 0x4 MSTORE PUSH1 0x24 PUSH1 0x0 REVERT JUMPDEST DUP2 DUP2 SUB DUP2 DUP2 GT ISZERO PUSH2 0x4D7 JUMPI PUSH2 0x4D7 PUSH2 0x1C27 JUMP JUMPDEST PUSH1 0x1 DUP2 DUP2 SHR SWAP1 DUP3 AND DUP1 PUSH2 0x1C64 JUMPI PUSH1 0x7F DUP3 AND SWAP2 POP JUMPDEST PUSH1 0x20 DUP3 LT DUP2 SUB PUSH2 0x1C84 JUMPI PUSH4 0x4E487B71 PUSH1 0xE0 SHL PUSH1 0x0 MSTORE PUSH1 0x22 PUSH1 0x4 MSTORE PUSH1 0x24 PUSH1 0x0 REVERT JUMPDEST POP SWAP2 SWAP1 POP JUMP JUMPDEST PUSH1 0x20 DUP1 DUP3 MSTORE PUSH1 0x2D SWAP1 DUP3 ADD MSTORE PUSH32 0x4552433732313A2063616C6C6572206973206E6F7420746F6B656E206F776E65 PUSH1 0x40 DUP3 ADD MSTORE PUSH13 0x1C881BDC88185C1C1C9BDD9959 PUSH1 0x9A SHL PUSH1 0x60 DUP3 ADD MSTORE PUSH1 0x80 ADD SWAP1 JUMP JUMPDEST PUSH1 0x0 PUSH1 0x1 DUP3 ADD PUSH2 0x1CE9 JUMPI PUSH2 0x1CE9 PUSH2 0x1C27 JUMP JUMPDEST POP PUSH1 0x1 ADD SWAP1 JUMP JUMPDEST PUSH1 0x1F DUP3 GT ISZERO PUSH2 0x613 JUMPI PUSH1 0x0 DUP2 DUP2 MSTORE PUSH1 0x20 DUP2 KECCAK256 PUSH1 0x1F DUP6 ADD PUSH1 0x5 SHR DUP2 ADD PUSH1 0x20 DUP7 LT ISZERO PUSH2 0x1D17 JUMPI POP DUP1 JUMPDEST PUSH1 0x1F DUP6 ADD PUSH1 0x5 SHR DUP3 ADD SWAP2 POP JUMPDEST DUP2 DUP2 LT ISZERO PUSH2 0x1D36 JUMPI DUP3 DUP2 SSTORE PUSH1 0x1 ADD PUSH2 0x1D23 JUMP JUMPDEST POP POP POP POP POP POP JUMP JUMPDEST DUP2 MLOAD PUSH8 0xFFFFFFFFFFFFFFFF DUP2 GT ISZERO PUSH2 0x1D58 JUMPI PUSH2 0x1D58 PUSH2 0x19AE JUMP JUMPDEST PUSH2 0x1D6C DUP2 PUSH2 0x1D66 DUP5 SLOAD PUSH2 0x1C50 JUMP JUMPDEST DUP5 PUSH2 0x1CF0 JUMP JUMPDEST PUSH1 0x20 DUP1 PUSH1 0x1F DUP4 GT PUSH1 0x1 DUP2 EQ PUSH2 0x1DA1 JUMPI PUSH1 0x0 DUP5 ISZERO PUSH2 0x1D89 JUMPI POP DUP6 DUP4 ADD MLOAD JUMPDEST PUSH1 0x0 NOT PUSH1 0x3 DUP7 SWAP1 SHL SHR NOT AND PUSH1 0x1 DUP6 SWAP1 SHL OR DUP6 SSTORE PUSH2 0x1D36 JUMP JUMPDEST PUSH1 0x0 DUP6 DUP2 MSTORE PUSH1 0x20 DUP2 KECCAK256 PUSH1 0x1F NOT DUP7 AND SWAP2 JUMPDEST DUP3 DUP2 LT ISZERO PUSH2 0x1DD0 JUMPI DUP9 DUP7 ADD MLOAD DUP3 SSTORE SWAP5 DUP5 ADD SWAP5 PUSH1 0x1 SWAP1 SWAP2 ADD SWAP1 DUP5 ADD PUSH2 0x1DB1 JUMP JUMPDEST POP DUP6 DUP3 LT ISZERO PUSH2 0x1DEE JUMPI DUP8 DUP6 ADD MLOAD PUSH1 0x0 NOT PUSH1 0x3 DUP9 SWAP1 SHL PUSH1 0xF8 AND SHR NOT AND DUP2 SSTORE JUMPDEST POP POP POP POP POP PUSH1 0x1 SWAP1 DUP2 SHL ADD SWAP1 SSTORE POP JUMP JUMPDEST PUSH1 0x0 DUP4 MLOAD PUSH2 0x1E10 DUP2 DUP5 PUSH1 0x20 DUP9 ADD PUSH2 0x17A8 JUMP JUMPDEST DUP4 MLOAD SWAP1 DUP4 ADD SWAP1 PUSH2 0x1E24 DUP2 DUP4 PUSH1 0x20 DUP9 ADD PUSH2 0x17A8 JUMP JUMPDEST ADD SWAP5 SWAP4 POP POP POP POP JUMP JUMPDEST PUSH1 0x20 DUP1 DUP3 MSTORE PUSH1 0x25 SWAP1 DUP3 ADD MSTORE PUSH32 0x4552433732313A207472616E736665722066726F6D20696E636F727265637420 PUSH1 0x40 DUP3 ADD MSTORE PUSH5 0x37BBB732B9 PUSH1 0xD9 SHL PUSH1 0x60 DUP3 ADD MSTORE PUSH1 0x80 ADD SWAP1 JUMP JUMPDEST PUSH1 0x20 DUP1 DUP3 MSTORE PUSH1 0x32 SWAP1 DUP3 ADD MSTORE PUSH32 0x4552433732313A207472616E7366657220746F206E6F6E204552433732315265 PUSH1 0x40 DUP3 ADD MSTORE PUSH18 0x31B2B4BB32B91034B6B83632B6B2B73A32B9 PUSH1 0x71 SHL PUSH1 0x60 DUP3 ADD MSTORE PUSH1 0x80 ADD SWAP1 JUMP JUMPDEST PUSH1 0x1 PUSH1 0x1 PUSH1 0xA0 SHL SUB DUP6 DUP2 AND DUP3 MSTORE DUP5 AND PUSH1 0x20 DUP3 ADD MSTORE PUSH1 0x40 DUP2 ADD DUP4 SWAP1 MSTORE PUSH1 0x80 PUSH1 0x60 DUP3 ADD DUP2 SWAP1 MSTORE PUSH1 0x0 SWAP1 PUSH2 0x19A4 SWAP1 DUP4 ADD DUP5 PUSH2 0x17CC JUMP JUMPDEST PUSH1 0x0 PUSH1 0x20 DUP3 DUP5 SUB SLT ISZERO PUSH2 0x1F09 JUMPI PUSH1 0x0 DUP1 REVERT JUMPDEST DUP2 MLOAD PUSH2 0xE24 DUP2 PUSH2 0x1753 JUMP INVALID LOG2 PUSH5 0x6970667358 0x22 SLT KECCAK256 0xE7 PUSH30 0xF0C3D87E4C9D5F576C733876BA259BBD2126EAA7DA056ABFC555CE52125D PUSH5 0x736F6C6343 STOP ADDMOD SLT STOP CALLER "
				},
				"gasEstimates": {
					"creation": {
						"codeDepositCost": "1602000",
						"executionCost": "infinite",
						"totalCost": "infinite"
					},
					"external": {
						"approve(address,uint256)": "infinite",
						"balanceOf(address)": "2700",
						"getApproved(uint256)": "4814",
						"getOccasion(uint256)": "infinite",
						"getSeatsTaken(uint256)": "infinite",
						"hasBought(uint256,address)": "2751",
						"isApprovedForAll(address,address)": "infinite",
						"list(string,uint256,uint256,string,string,string)": "infinite",
						"name()": "infinite",
						"owner()": "2376",
						"ownerOf(uint256)": "2627",
						"renounceOwnership()": "infinite",
						"safeMint(uint256,uint256)": "infinite",
						"safeTransferFrom(address,address,uint256)": "infinite",
						"safeTransferFrom(address,address,uint256,bytes)": "infinite",
						"seatTaken(uint256,uint256)": "2616",
						"setApprovalForAll(address,bool)": "26705",
						"supportsInterface(bytes4)": "534",
						"symbol()": "infinite",
						"tokenURI(uint256)": "infinite",
						"totalOccasions()": "2362",
						"transferFrom(address,address,uint256)": "infinite",
						"transferOwnership(address)": "28468"
					}
				},
				"methodIdentifiers": {
					"approve(address,uint256)": "095ea7b3",
					"balanceOf(address)": "70a08231",
					"getApproved(uint256)": "081812fc",
					"getOccasion(uint256)": "74bc8656",
					"getSeatsTaken(uint256)": "0ef7ec74",
					"hasBought(uint256,address)": "9cb04aef",
					"isApprovedForAll(address,address)": "e985e9c5",
					"list(string,uint256,uint256,string,string,string)": "9a382f0f",
					"name()": "06fdde03",
					"owner()": "8da5cb5b",
					"ownerOf(uint256)": "6352211e",
					"renounceOwnership()": "715018a6",
					"safeMint(uint256,uint256)": "0414ab2b",
					"safeTransferFrom(address,address,uint256)": "42842e0e",
					"safeTransferFrom(address,address,uint256,bytes)": "b88d4fde",
					"seatTaken(uint256,uint256)": "af296da1",
					"setApprovalForAll(address,bool)": "a22cb465",
					"supportsInterface(bytes4)": "01ffc9a7",
					"symbol()": "95d89b41",
					"tokenURI(uint256)": "c87b56dd",
					"totalOccasions()": "953865c1",
					"transferFrom(address,address,uint256)": "23b872dd",
					"transferOwnership(address)": "f2fde38b"
				}
			},
			"storageLayout": {
				"storage": [
					{
						"astId": 138,
						"contract": "test2/TokenMaster.sol:TokenMaster",
						"label": "_name",
						"offset": 0,
						"slot": "0",
						"type": "t_string_storage"
					},
					{
						"astId": 140,
						"contract": "test2/TokenMaster.sol:TokenMaster",
						"label": "_symbol",
						"offset": 0,
						"slot": "1",
						"type": "t_string_storage"
					},
					{
						"astId": 144,
						"contract": "test2/TokenMaster.sol:TokenMaster",
						"label": "_owners",
						"offset": 0,
						"slot": "2",
						"type": "t_mapping(t_uint256,t_address)"
					},
					{
						"astId": 148,
						"contract": "test2/TokenMaster.sol:TokenMaster",
						"label": "_balances",
						"offset": 0,
						"slot": "3",
						"type": "t_mapping(t_address,t_uint256)"
					},
					{
						"astId": 152,
						"contract": "test2/TokenMaster.sol:TokenMaster",
						"label": "_tokenApprovals",
						"offset": 0,
						"slot": "4",
						"type": "t_mapping(t_uint256,t_address)"
					},
					{
						"astId": 158,
						"contract": "test2/TokenMaster.sol:TokenMaster",
						"label": "_operatorApprovals",
						"offset": 0,
						"slot": "5",
						"type": "t_mapping(t_address,t_mapping(t_address,t_bool))"
					},
					{
						"astId": 7,
						"contract": "test2/TokenMaster.sol:TokenMaster",
						"label": "_owner",
						"offset": 0,
						"slot": "6",
						"type": "t_address"
					},
					{
						"astId": 2719,
						"contract": "test2/TokenMaster.sol:TokenMaster",
						"label": "_tokenIdCounter",
						"offset": 0,
						"slot": "7",
						"type": "t_struct(Counter)1558_storage"
					},
					{
						"astId": 2721,
						"contract": "test2/TokenMaster.sol:TokenMaster",
						"label": "totalOccasions",
						"offset": 0,
						"slot": "8",
						"type": "t_uint256"
					},
					{
						"astId": 2743,
						"contract": "test2/TokenMaster.sol:TokenMaster",
						"label": "occasions",
						"offset": 0,
						"slot": "9",
						"type": "t_mapping(t_uint256,t_struct(Occasion)2738_storage)"
					},
					{
						"astId": 2749,
						"contract": "test2/TokenMaster.sol:TokenMaster",
						"label": "hasBought",
						"offset": 0,
						"slot": "10",
						"type": "t_mapping(t_uint256,t_mapping(t_address,t_bool))"
					},
					{
						"astId": 2755,
						"contract": "test2/TokenMaster.sol:TokenMaster",
						"label": "seatTaken",
						"offset": 0,
						"slot": "11",
						"type": "t_mapping(t_uint256,t_mapping(t_uint256,t_address))"
					},
					{
						"astId": 2760,
						"contract": "test2/TokenMaster.sol:TokenMaster",
						"label": "seatsTaken",
						"offset": 0,
						"slot": "12",
						"type": "t_mapping(t_uint256,t_array(t_uint256)dyn_storage)"
					}
				],
				"types": {
					"t_address": {
						"encoding": "inplace",
						"label": "address",
						"numberOfBytes": "20"
					},
					"t_array(t_uint256)dyn_storage": {
						"base": "t_uint256",
						"encoding": "dynamic_array",
						"label": "uint256[]",
						"numberOfBytes": "32"
					},
					"t_bool": {
						"encoding": "inplace",
						"label": "bool",
						"numberOfBytes": "1"
					},
					"t_mapping(t_address,t_bool)": {
						"encoding": "mapping",
						"key": "t_address",
						"label": "mapping(address => bool)",
						"numberOfBytes": "32",
						"value": "t_bool"
					},
					"t_mapping(t_address,t_mapping(t_address,t_bool))": {
						"encoding": "mapping",
						"key": "t_address",
						"label": "mapping(address => mapping(address => bool))",
						"numberOfBytes": "32",
						"value": "t_mapping(t_address,t_bool)"
					},
					"t_mapping(t_address,t_uint256)": {
						"encoding": "mapping",
						"key": "t_address",
						"label": "mapping(address => uint256)",
						"numberOfBytes": "32",
						"value": "t_uint256"
					},
					"t_mapping(t_uint256,t_address)": {
						"encoding": "mapping",
						"key": "t_uint256",
						"label": "mapping(uint256 => address)",
						"numberOfBytes": "32",
						"value": "t_address"
					},
					"t_mapping(t_uint256,t_array(t_uint256)dyn_storage)": {
						"encoding": "mapping",
						"key": "t_uint256",
						"label": "mapping(uint256 => uint256[])",
						"numberOfBytes": "32",
						"value": "t_array(t_uint256)dyn_storage"
					},
					"t_mapping(t_uint256,t_mapping(t_address,t_bool))": {
						"encoding": "mapping",
						"key": "t_uint256",
						"label": "mapping(uint256 => mapping(address => bool))",
						"numberOfBytes": "32",
						"value": "t_mapping(t_address,t_bool)"
					},
					"t_mapping(t_uint256,t_mapping(t_uint256,t_address))": {
						"encoding": "mapping",
						"key": "t_uint256",
						"label": "mapping(uint256 => mapping(uint256 => address))",
						"numberOfBytes": "32",
						"value": "t_mapping(t_uint256,t_address)"
					},
					"t_mapping(t_uint256,t_struct(Occasion)2738_storage)": {
						"encoding": "mapping",
						"key": "t_uint256",
						"label": "mapping(uint256 => struct TokenMaster.Occasion)",
						"numberOfBytes": "32",
						"value": "t_struct(Occasion)2738_storage"
					},
					"t_string_storage": {
						"encoding": "bytes",
						"label": "string",
						"numberOfBytes": "32"
					},
					"t_struct(Counter)1558_storage": {
						"encoding": "inplace",
						"label": "struct Counters.Counter",
						"members": [
							{
								"astId": 1557,
								"contract": "test2/TokenMaster.sol:TokenMaster",
								"label": "_value",
								"offset": 0,
								"slot": "0",
								"type": "t_uint256"
							}
						],
						"numberOfBytes": "32"
					},
					"t_struct(Occasion)2738_storage": {
						"encoding": "inplace",
						"label": "struct TokenMaster.Occasion",
						"members": [
							{
								"astId": 2723,
								"contract": "test2/TokenMaster.sol:TokenMaster",
								"label": "id",
								"offset": 0,
								"slot": "0",
								"type": "t_uint256"
							},
							{
								"astId": 2725,
								"contract": "test2/TokenMaster.sol:TokenMaster",
								"label": "name",
								"offset": 0,
								"slot": "1",
								"type": "t_string_storage"
							},
							{
								"astId": 2727,
								"contract": "test2/TokenMaster.sol:TokenMaster",
								"label": "cost",
								"offset": 0,
								"slot": "2",
								"type": "t_uint256"
							},
							{
								"astId": 2729,
								"contract": "test2/TokenMaster.sol:TokenMaster",
								"label": "tickets",
								"offset": 0,
								"slot": "3",
								"type": "t_uint256"
							},
							{
								"astId": 2731,
								"contract": "test2/TokenMaster.sol:TokenMaster",
								"label": "maxTickets",
								"offset": 0,
								"slot": "4",
								"type": "t_uint256"
							},
							{
								"astId": 2733,
								"contract": "test2/TokenMaster.sol:TokenMaster",
								"label": "date",
								"offset": 0,
								"slot": "5",
								"type": "t_string_storage"
							},
							{
								"astId": 2735,
								"contract": "test2/TokenMaster.sol:TokenMaster",
								"label": "time",
								"offset": 0,
								"slot": "6",
								"type": "t_string_storage"
							},
							{
								"astId": 2737,
								"contract": "test2/TokenMaster.sol:TokenMaster",
								"label": "location",
								"offset": 0,
								"slot": "7",
								"type": "t_string_storage"
							}
						],
						"numberOfBytes": "256"
					},
					"t_uint256": {
						"encoding": "inplace",
						"label": "uint256",
						"numberOfBytes": "32"
					}
				}
			},
			"userdoc": {
				"kind": "user",
				"methods": {},
				"version": 1
			}
		}
	}
}